:020000040800F2
:10000000FFFF032011140008F5130008071400086F
:10001000F5130008F5130008F513000800000000B0
:10002000000000000000000000000000F5130008C0
:10003000F513000800000000F5130008F513000890
:10004000F5130008F5130008F5130008F513000870
:10005000F5130008F5130008F5130008F513000860
:10006000F5130008F5130008F5130008F513000850
:10007000F5130008F5130008F5130008F513000840
:10008000F5130008F5130008F5130008F513000830
:10009000F5130008F5130008F5130008F513000820
:1000A000F5130008F5130008F5130008F513000810
:1000B00055200008F5130008F5130008F513000893
:1000C000F5130008F5130008F5130008F5130008F0
:1000D000F5130008F5130008F5130008F5130008E0
:1000E000F5130008F5130008F5130008F5130008D0
:1000F000F5130008F5130008F5130008F5130008C0
:10010000F5130008F5130008F5130008F5130008AF
:10011000F5130008F5130008F5130008F51300089F
:10012000F5130008F5130008F5130008F51300088F
:10013000F5130008F5130008F5130008F51300087F
:10014000F5130008F5130008F5130008F51300086F
:10015000F5130008F5130008F5130008F51300085F
:10016000F5130008F5130008F5130008F51300084F
:10017000F5130008F5130008F5130008000000004F
:10018000F5130008F5130008F5130008F51300082F
:10019000F5130008F5130008F5130008F51300081F
:1001A000F5130008F5130008F5130008F51300080F
:1001B000F5130008F5130008F5130008F5130008FF
:0801C000F5130008F513000817
:1001C800044B05481B1A062B02D9044B03B11847E8
:1001D800704700BF330400203004002000000000F6
:1001E80005490648091A891001EBD171491002D056
:1001F800034B03B118477047300400203004002037
:100208000000000010B5064C237843B9FFF7D8FF6B
:10021800044B13B10448AFF300800123237010BDD1
:100228003004002000000000C029000808B5084B71
:100238001BB108480849AFF300800848036813B9A0
:10024800BDE80840CCE7064B002BF9D09847F7E704
:1002580000000000C02900083404002030040020F9
:10026800000000004FEA4102B2F1E04324BFB3F5B9
:10027800001CDCF1FE5C0DD901F0004C4FEAC00215
:100288004CEA5070B2F1004F40EB830008BF20F0F9
:100298000100704711F0804F21D113F13872BCBFB3
:1002A80001F00040704741F480114FEA5252C2F108
:1002B8001802C2F1200C10FA0CF320FA02F018BF51
:1002C80040F001004FEAC1234FEAD32303FA0CFCA4
:1002D80040EA0C0023FA02F34FEA4303CCE77FEA33
:1002E800625307D150EA01331EBF4FF0FE4040F47D
:1002F8004000704701F0004040F0FE4040F400002C
:10030800704700BF10B5044600F072FE4FF47A73D0
:10031800B0FBF3F000F0CEFA4FF0FF302146002298
:1003280000F08CFA002010BD074A08B5136843F4A2
:1003380000731360032000F06FFA0F20FFF7E2FF4D
:1003480000F08CFF002008BD003C0240014B1868FB
:10035800704700BF4C04002013B500230193194BCC
:100368001A6C42F080521A641B6C174A03F08053CF
:100378000193019B136843F480331360FFF7E6FF92
:100388000446114B5A68D20307D4FFF7DFFF001B5E
:10039800B0F57A7FF5D9032012E01A6842F40032EA
:1003A8001A60FFF7D3FF0446074B5B689B0306D42C
:1003B800FFF7CCFF001BB0F57A7FF5D9EBE70020FB
:1003C80002B010BD003802400070004070472DE9AF
:1003D800F04104460E4690461D46FFF7B7FF074614
:1003E800B8F1000F36D12268D3693340B3420ED03A
:1003F800691CF9D07DB1FFF7A9FFC01BA842F2D351
:1004080009E06B1C06D1D3693340B342F9D0002010
:10041800BDE8F081CDB923681A6822F080021A601D
:100428001A6822F020021A601A6822F480721A6090
:100438009A6822F001029A60012384F86930002347
:1004480084F868300320BDE8F081FFF77FFFC01B08
:10045800A842E0D22268D6E738B504460568A26803
:100468002169C3692868114362690A4342EA0301A2
:10047800814A02400A432A606A68206A22F440518D
:10048800E2680A436A60AA68A16922F430620143FB
:100498000A43AA60794A954207D102F5943278490D
:1004A800D2F8902002F0030209E0764A95420CD176
:1004B80002F5FA327449D2F8902002F00C02B3F532
:1004C800004F8A5C40F0B18072E0704A95420DD1CD
:1004D80002F5F832D2F8902002F03002102A00F02B
:1004E80082805DD9202A78D0302A0EE0684A954269
:1004F8000DD102F5F632D2F8902002F0C002402A5F
:1005080071D04DD9802A68D0C02A76D080E0614A5F
:1005180095420FD102F5F432D2F8902002F44072DD
:10052800B2F5807F5FD03BD9B2F5007F55D0B2F5E8
:10053800407FEAE7584A954212D102F59232D2F842
:10054800902002F44062B2F5806F4CD002D8002AA5
:100558003DD05DE0B2F5006F3FD0B2F5406FD4E713
:100568004E4A95420FD102F5E032D2F8902002F4BB
:100578004052B2F5805F36D012D9B2F5005F2CD068
:10058800B2F5405FC1E7464A954241D102F5DE32F5
:10059800D2F8902002F44042B2F5804F23D001D81F
:1005A8007AB135E0B2F5004F17D0B2F5404FACE75D
:1005B800082A30D8DFE802F0080E142F1A2F2F2F40
:1005C8002400B3F5004F39D100F02CFD10E0B3F54D
:1005D800004F36D100F03CFD0AE0B3F5004F33D1AF
:1005E8006068304B0FE0B3F5004F33D100F0C0FC2A
:1005F80040006368B0FBF3F307E0B3F5004F31D177
:1006080060684FF48033B3FBF0F39BB2002004E042
:10061800B3F5004F2ED10120002323F00F012268EB
:10062800C3F342030B43D36038BD082A22D8DFE85E
:1006380002F005080B2111212121190000F0F2FC1C
:100648000AE000F005FD07E06268174BB3FBF2F320
:100658009BB20CE000F08CFC6368B0FBF3F080B256
:10066800E86005E062684FF40043B3FBF2F3EB6027
:10067800002038BD012038BDF369FFEF00100140AC
:10068800E529000800440040D82900080048004037
:10069800004C004000500040001401400078004029
:1006A800007C00400048E8010024F400436ADA07AF
:1006B80010B541BF0468626822F40031826A44BF01
:1006C8000A4362609C0741BF0468626822F4803173
:1006D800C26A44BF0A436260590741BF046862683E
:1006E80022F48021026B44BF0A4362601A0741BFAB
:1006F8000468626822F40041426B44BF0A436260A6
:10070800DC0641BF0468A26822F48051826B44BFB2
:100718000A43A260990641BF0468A26822F4005106
:10072800C26B44BF0A43A2605A0610D50168046C24
:100738004A6822F480122243B4F5801F4A6001BF40
:100748004A6822F4C004426C224308BF4A601B0670
:1007580041BF01684B6823F40022836C44BF1343F4
:100768004B6010BD0022036810B5C2661B681907EC
:10077800044604D423681B685B0714D509E04FF4CA
:1007880000116FF07E43FFF722FE0028F2D003200D
:1007980010BD20464FF4800100226FF07E43FFF722
:1007A80016FE0028F3D10123002084F8693084F86C
:1007B800680010BD10B5044660B390F8693003F0C6
:1007C800FF021BB980F86820FFF700FE22680223A9
:1007D80084F86930136823F0010313602046FFF79B
:1007E8003BFE012816D0636A13B12046FFF75EFF6F
:1007F80023685A6822F490425A609A6822F02A02C2
:100808009A601A6842F0010220461A60BDE810405A
:10081800FFF7A8BF012010BD074AD36823F4E0639F
:100828001B041B0C43F0BF6343F4003300F00700C4
:1008380043EA0023D360704700ED00E0154BDB6806
:10084800C3F3022370B5C3F107051C1D042D28BF8F
:100858000425062C8CBF033B0023012404FA03F66D
:10086800AC40013C013E214099403240002842EA18
:1008780001024FEA0212AFBF00F1604000F00F0022
:10088800054BD2B2A5BF00F56140D2B21A5480F828
:10089800002370BD00ED00E014ED00E041090123E4
:1008A80000F01F00024A834042F82130704700BF21
:1008B80000E100E00138B0F1807F3FBF064B074AF6
:1008C8005860F0213FBF82F823100020072298606B
:1008D80034BF1A600120704710E000E000ED00E02E
:1008E80070470368DA6842F00102DA601A6842F079
:1008F80001021A60002070472E4A0368904212D005
:10090800B0F1804F0FD0A2F57C4290420BD002F597
:100918008062904207D002F58062904203D002F5CF
:100928007842904218D14A6823F070031343214A51
:10093800904237D0B0F1804F34D01F4A904231D026
:1009480002F5806290422DD002F58062904229D053
:1009580002F57842904225D0184A904222D002F5FA
:10096800806290421ED002F5806290421AD0A2F5B1
:100978009832904216D002F58062904212D002F569
:10098800806290420ED003608B68C3620B688362FA
:10099800084B98420BD003F58063984207D0012397
:1009A80043617047CA6823F440731343EBE70B694C
:1009B8000363F4E7000001400004004000400140E8
:1009C80010B5044680B190F839300BB9FFF788FFAD
:1009D800022384F839302068211DFFF78DFF012399
:1009E80084F83930002010BD012010BD036873B5AC
:1009F800DE07044603D423689D0770D4C2E0A44BE5
:100A08009A6802F00C02042A07D09A6802F00C02D5
:100A1800082A0BD15B68580208D59D4B1B689903BF
:100A2800E9D56368002BE6D10120B3E1984B1A6839
:100A380022F480321A601A6822F480221A601A6836
:100A480022F480321A60FFF781FC0546904B1A6841
:100A5800920307D5FFF77AFC401BB0F5FA7FF5D96A
:100A6800032097E11A6822F480321A606268B2F5AE
:100A7800803F03D11A6822F4802205E0B2F5A02F46
:100A880008D11A6842F480221A601A6842F4803247
:100A98001A6008E0196821F480211960196821F4A6
:100AA800803119606AB1FFF751FC0546784B1B6825
:100AB8009E03A0D4FFF74AFC401BB0F5FA7FF5D996
:100AC800CEE7FFF743FC0546714B1B68980392D5A8
:100AD800FFF73CFC401BB0F5FA7FF5D9C0E76C4B3B
:100AE8009A6812F00C0F07D09A6802F00C02082AD4
:100AF80016D15B68590213D4654B1A68920702D560
:100B0800E268012A90D11968F82090FAA0F02269C9
:100B1800B0FA80F021F0F80182400A431A6031E00F
:100B2800E2685B4BEAB11A6842F001021A60FFF70B
:100B38000DFC0546564803689E0705D4FFF706FCDA
:100B4800401B6428F6D98BE70268F82191FAA1F1D5
:100B58002369B1FA81F122F0F8028B401343036054
:100B680010E01A6822F001021A60FFF7EFFB054651
:100B7800474B1B68990705D5FFF7E8FB401B64281E
:100B8800F6D96DE723681A0703D423685B0767D58E
:100B980024E062693E4B82B15A6F42F001025A6703
:100BA800FFF7D4FB05463A4B5B6F9E07EDD4FFF782
:100BB800CDFB401B6428F6D952E75A6F22F0010298
:100BC8005A67FFF7C3FB0546314B5B6F9807DCD5C7
:100BD800FFF7BCFB401B6428F6D941E700230193CB
:100BE8002B4B1A6C42F080521A641B6C294A03F092
:100BF80080530193019B136843F480731360FFF7DC
:100C0800A5FB0546234B1B68D9052DD5204B1A6F2C
:100C180022F001021A671A6F22F004021A671A6F8B
:100C280022F001021A67FFF791FB0546184B1A6F6D
:100C380092071FD41A6F22F001021A67A268012ACC
:100C480020D11A6F22F004021A671A6F42F00102CB
:100C58001A67FFF77BFB05460D4B1B6F9E0725D5D3
:100C6800A169002939D17AE0FFF770FB401B64289D
:100C7800C8D9F5E6FFF76AFB41F28833401B984272
:100C8800D4D9EDE6052A07D11A6F42F00402DBE752
:100C98000038024000700040196F21F00401196704
:100CA800196F21F00101196742B1D2E7FFF74EFB36
:100CB80041F28833401B9842CED9D1E6FFF746FB74
:100CC8000546354B1B6F9807CAD5FFF73FFB41F226
:100CD8008833401B9842F4D9C2E62F4B9A6802F039
:100CE8000C02082A3FF4A0AE1A68022922F080728A
:100CF8001A6042D1FFF72AFB054627480368990185
:100D08002FD447F6C07696FAA6F64FF44035B6FAD1
:100D180086F695FAA5F54FF07061B5FA85F591FA62
:100D2800A1F1E369226AB1FA81F11A43636A42F0D8
:100D38000052B3401A43A36A5B08013BAB4013431C
:100D4800E26A8A4013434360036843F08073036098
:100D5800FFF7FCFA0446104B1B689A0107D50020E0
:100D680018E0FFF7F3FA401B6428C6D978E6FFF7C6
:100D7800EDFA001B6428EED972E6FFF7E7FA04469D
:100D8800054B1B689B01EAD5FFF7E0FA001B6428B6
:100D9800F6D965E602B070BD00380240724A1368A1
:100DA80003F00F03994270B504460D466BD91368DA
:100DB80023F00F030B431360136803F00F038B42F8
:100DC80001D0012070BD01688B0741BF6748836867
:100DD80023F0F002A36844BF13438360CE070BD40B
:100DE80021684D0740F1AF806048836823F4E052E2
:100DF800E36813438360A6E062685C4B012A1968C4
:100E080002D111F4003F06E0022A02D111F0007F5E
:100E180001E011F0020FD4D0996821F003010A43D0
:100E28009A60FFF793FA6368012B05460ED14F4B82
:100E38009B6803F00C03042BD2D0FFF787FA41F22A
:100E48008833401B9842F2D9032070BD022B14D17D
:100E5800464B9B6803F00C03082BC1D0FFF776FACA
:100E680041F28833401B9842F2D9EDE7FFF76EFA5A
:100E780041F28833401B9842E6D83C4B9B6813F0FC
:100E88000C0FF3D1ACE70168880741BF3748836886
:100E980023F0F002A36844BF13438360CA070BD44E
:100EA800314A136823F00F032B431360136803F0D0
:100EB8000F03AB4285D193E762682C4B012A19686E
:100EC80002D111F4003F06E0022A02D111F0007F9E
:100ED80001E011F0020F3FF474AF996821F00301AB
:100EE8000A439A60FFF732FA6368012B06460DD170
:100EF8001E4B9B6803F00C03042BD1D0FFF726FA96
:100F080041F28833801B9842F2D99DE7022B14D115
:100F1800164B9B6803F00C03082BC1D0FFF716FA99
:100F280041F28833801B9842F2D98DE7FFF70EFA19
:100F380041F28833801B984286D80C4B9B6813F08B
:100F48000C0FF3D1ACE70B0741BF084A216993683E
:100F580023F4604344BF43EAC10393600F20FFF7C3
:100F6800D1F9002070BD00BF003C024000380240AB
:100F780010B51C4CA36803F00C03042B2ED0082BCF
:100F88002ED1626802F03F03626847F6C07112F41E
:100F9800800F626891FAA1F147F6C07000EA02007A
:100FA80008BF114AB1FA81F120FA01F00EBFB2FB75
:100FB800F3F20E49B1FBF3F202FB00F3094A506861
:100FC8004FF4403292FAA2F200F44030B2FA82F2C0
:100FD800D04001304000B3FBF0F010BD034810BD15
:100FE800014810BD003802400024F40000127A00C5
:100FF80008B5FFF7BDFF084BF0229B6892FAA2F2F2
:1010080003F0F003B2FA82F2D340044AD35CD8402A
:10101800034B186008BD00BF00380240E9290008EA
:101028000400002008B5FFF7E3FF074B4FF4E05238
:101038009B6892FAA2F203F4E053B2FA82F2D34028
:10104800024AD35CD84008BD00380240E9290008AC
:1010580008B5FFF7CDFF074B4FF460429B6892FA43
:10106800A2F203F46043B2FA82F2D340024AD35C9C
:10107800D84008BD00380240E92900082DE9F341AD
:101088000F6800220123934003EA07059D4240F0C0
:10109800D8804C6824F0100CBCF1020F14D14FEA30
:1010A800D20E00EB8E0E02F00706DEF82030B600F6
:1010B8004FF00F0808FA06F823EA08080B69B3404E
:1010C80048EA0303CEF820304FEA420E03230668AD
:1010D80003FA0EF3DB4303EA060804F0030606FAF4
:1010E8000EF60CF1FF3C48EA0606BCF1010F06605B
:1010F80011D8866803EA060CCE6806FA0EF64CEAA2
:1011080006068660466826EA050CC4F30016964073
:101118004CEA06064660C66803EA060C8B6803FAC2
:101128000EF64CEA0603C360E30040F18A80484E9D
:1011380000230193D6F844E04EF4804EC6F844E00C
:10114800766C06F480460196019E22F0030606F1AD
:10115800804606F59C3602F0030CD6F808804FEA64
:101168008C0C4FF00F0E0EFA0CFE28EA0E0EDFF86C
:10117800E880404537D003F1804303F501339842B6
:1011880022D003F58063984220D003F5806398420B
:101198001ED003F5806398421CD003F58063984203
:1011A8001AD003F58063984218D003F580639842FB
:1011B80016D003F58063984214D003F580639842F3
:1011C8000CBF09230A230EE001230CE002230AE0E6
:1011D800032308E0042306E0052304E0062302E0D5
:1011E800072300E0082303FA0CF343EA0E03DFF8B1
:1011F80064E0B360DEF80030EE4314F4803F14BFBF
:101208002B433340CEF80030DEF80430DFF844E0FA
:1012180014F4003F14BF2B433340CEF80430DEF8FB
:10122800083014F4801F14BF2B433340CEF8083025
:10123800DEF80C30A40254BF06EA03051D43054B33
:10124800DD600132102A7FF41DAF02B0BDE8F081E5
:1012580000380240003C0140000002407047000096
:1012680030B5BFF34F8FBFF36F8F304B0022C3F8F9
:101278005022BFF34F8FBFF36F8F596941F480211C
:101288005961BFF34F8FBFF34F8FBFF36F8FC3F811
:101298005022596941F400315961BFF34F8FBFF3B0
:1012A8006F8FC3F88420BFF34F8FD3F88020C2F329
:1012B8004E33C2F3C902590143F6E0740C4011469B
:1012C8001A4844EA817511F1FF31C0F86052F7D22B
:1012D80013F1FF33EFD2BFF34F8FBFF36F8F0023AC
:1012E800C0F88430BFF34F8FD0F88020C2F34E335C
:1012F800C2F3C902590143F6E0740C4011460B4889
:1013080044EA817511F1FF31C0F86052F7D213F148
:10131800FF33EFD2BFF34F8F436943F48033436108
:10132800BFF34F8FBFF36F8F30BD00BF00ED00E0FC
:1013380010B592B0012306934FF4803307934FF40E
:1013480080030D9308230E934FF4D87302240F9350
:1013580006A809230C9410941193FFF747FB00B1DA
:10136800FEE7FEF7F9FF00B1FEE70F2301934FF404
:10137800A0530390049301A84FF4805307210294CB
:101388000593FFF70BFD00B1FEE712B010BD08B5DD
:10139800FFF766FFFEF7C8FFBDE80840FFF7C8BFC4
:1013A8000F49D1F8883043F47003C1F888300D4BE9
:1013B8001A68002042F001021A6098601A6822F048
:1013C800847222F480321A60074A5A601A6822F43A
:1013D80080221A60D8604FF000638B60704700BFAE
:1013E80000ED00E00038024010300024684620F08C
:1013F80007018D4601B5BDE801408546704768463E
:1014080020F007018D46FEE719491A4B5B1A9B0825
:1014180000229A4206D0184850F8220041F82200CB
:101428000132F6E7154B164A934203D0002243F8DF
:10143800042BF8E7134A144CD2F8883043F47003AD
:10144800C2F88830D2F8343223F04043C2F834323C
:101458000E4BE41AA41000251E46A54204D056F8E7
:10146800253098470135F8E7FFF79AFF00F046BAAC
:101478000000002030040020802A000830040020EA
:101488009407002000ED00E07C2A0008682A000884
:101498007047000002480349034A01F005BA00BF3B
:1014A80050040020991400080000002010B5044BD7
:1014B800044640F8143B00F0EFFB204610BD00BF87
:1014C800082A000810B50446FFF7F0FF204600F090
:1014D8007AFE204610BD000010B504463D4800F0D5
:1014E800A9FD40F24C43984288BFE268394882BF60
:1014F800536943F08003536100F09CFDB0F5C86F59
:1015080005D9A268536943F40053536110E0314888
:1015180000F090FDB0F5487F0AD9236913F0010F58
:10152800A3685A690CBF42F4005222F400525A616F
:1015380023690A21B3FBF1F201FB1232042A626823
:10154800516903F1010394BF41F4807121F4807162
:10155800516104F114002361002100F09FFB1E4833
:101568001E4900F03DFE216A1B4800F04FFE1A4854
:101578001A4900F035FE616A174800F047FE164820
:10158800164900F02DFEA16A134800F03FFE1248EC
:10159800124900F025FE1048104900F021FE61694B
:1015A8000D4800F033FE0C480C4900F019FEA16903
:1015B800094800F02BFE0848084900F011FEE169CF
:1015C800054800F023FE04480549BDE8104000F036
:1015D80007BE00BF900700208C070020142A0008CF
:1015E800262A00088CB03F4B00220192196B41F06B
:1015F80001011963196B01F0010101910292196B44
:1016080041F002011963196B01F002010291039282
:10161800196B41F004011963196B01F0040103917E
:101628000492196B41F008011963196B01F0080164
:1016380004910592196B41F010011963196B01F0BF
:10164800100105910692196B41F020011963196B7D
:1016580001F0200106910792196B41F040011963CE
:10166800196B01F0400107910892196B41F0800154
:101678001963196B01F0800108910992196B41F403
:1016880080711963196B01F4807109910A92196BC1
:1016980041F400711963196B01F400710A910B92FE
:1016A8001A6B42F480621A631B6B03F480630B931A
:1016B8000D4B03609A6822F440329A609A6842F4AB
:1016C80040329A605A6822F480725A605A685A60A6
:1016D8001A6822F440321A601A6842F480321A609A
:1016E8000CB0704700380240000002408CB03F4BFD
:1016F80000220192196B41F001011963196B01F085
:10170800010101910292196B41F002011963196BF1
:1017180001F0020102910392196B41F0040119636F
:10172800196B01F0040103910492196B41F008014F
:101738001963196B01F0080104910592196B41F0C6
:1017480010011963196B01F0100105910692196BCC
:1017580041F020011963196B01F0200106910792ED
:10176800196B41F040011963196B01F040010791B1
:101778000892196B41F080011963196B01F080011F
:1017880008910992196B41F480711963196B01F47E
:10179800807109910A92196B41F400711963196BF0
:1017A80001F400710A910B921A6B42F480621A6379
:1017B8001B6B03F480630B930D4B03609A6822F054
:1017C80040629A609A6842F040629A605A6822F4CD
:1017D80000525A605A685A601A6822F040621A60C9
:1017E8001A6842F080621A600CB0704700380240F4
:1017F800000C02408CB03F4B00220192196B41F063
:1018080001011963196B01F0010101910292196B31
:1018180041F002011963196B01F002010291039270
:10182800196B41F004011963196B01F0040103916C
:101838000492196B41F008011963196B01F0080152
:1018480004910592196B41F010011963196B01F0AD
:10185800100105910692196B41F020011963196B6B
:1018680001F0200106910792196B41F040011963BC
:10187800196B01F0400107910892196B41F0800142
:101888001963196B01F0800108910992196B41F4F1
:1018980080711963196B01F4807109910A92196BAF
:1018A80041F400711963196B01F400710A910B92EC
:1018B8001A6B42F480621A631B6B03F480630B9308
:1018C8000D4B03609A6822F440429A609A6842F489
:1018D80040429A605A6822F080025A605A685A60F8
:1018E8001A6822F440421A601A6842F480421A6068
:1018F8000CB07047003802400010024030B595B077
:10190800FFF745FD14AD00F083FE1249124800F0C0
:101918002CFD124B45F8503D01A8FFF763FE02A8C5
:10192800FFF7E4FE03A8FFF765FF002405A8049469
:1019380000F0B3F905A80A49049400F054FA0948DC
:1019480029463222234600F019FB064800F04CFBDA
:10195800FBE700BF162A00088C070020082A0008A9
:101968008007002090070020142300BF013B13F0DC
:10197800FF03FAD17047B1B903689A6822F03002C0
:101988009A609A6842F030029A605A6822F004021B
:101998005A605A685A601A6822F030021A601A6847
:1019A80042F0100243E001290ED103689A6822F040
:1019B80030029A609A6842F030029A601A6822F0FF
:1019C80030021A601A6832E0022913D103689A6853
:1019D80022F030029A609A6842F030029A601A68DF
:1019E80022F030021A601A681A60DA6842F01002AF
:1019F800DA607047032910D103689A6822F0300230
:101A08009A609A6842F030029A601A6822F03002AE
:101A18001A601A6842F0200209E0042908D1036814
:101A28001A6822F030021A601A6842F030021A600E
:101A38007047B1B903689A6822F00C029A609A68F4
:101A480042F00C029A605A6822F002025A605A6800
:101A58005A601A6822F00C021A601A6842F00402EE
:101A680043E001290ED103689A6822F00C029A60BB
:101A78009A6842F00C029A601A6822F00C021A6006
:101A88001A6832E0022913D103689A6822F00C021E
:101A98009A609A6842F00C029A601A6822F00C0266
:101AA8001A601A681A60DA6842F00402DA6070474D
:101AB800032910D103689A6822F00C029A609A6888
:101AC80042F00C029A601A6822F00C021A601A6836
:101AD80042F0080209E0042908D103681A6822F0D4
:101AE8000C021A601A6842F00C021A60704738B586
:101AF80000F108050446043428460121FFF73BFF9E
:101B080020460121FFF795FF28460121FFF733FF03
:101B180020460021FFF78DFF28460021FFF72BFF05
:101B280020460121FFF785FFBDE83840FFF71CBFBD
:101B380038B500F108050446043428460021FFF7AB
:101B48001AFF20460021FFF774FF28460121FFF7FE
:101B580012FF20460021FFF76CFF28460121FFF7FE
:101B68000AFF20460121FFF764FFBDE83840FFF770
:101B7800FBBE2DE9F04107460E46082407F108058B
:101B880000212846FFF7F7FE07F10408FFF7ECFEEF
:101B980016F0800F14BF012100214046FFF749FFCE
:101BA800013CFFF7E1FE28460121FFF7E4FE76003D
:101BB800FFF7DAFE14F0FF04F6B2DFD1284621461B
:101BC800FFF7D9FEFFF7D0FE40460121FFF731FFAE
:101BD800FFF7CAFE28460121FFF7CDFEFFF7C4FE36
:101BE8007B681E6928462146FFF7C5FEFFF7BCFE45
:101BF80086F00200C0F34000BDE8F0812DE9F8430B
:101C08008046071D3846894608F108060121FFF776
:101C180010FF30460021FFF7AEFEFFF7A5FE0825AE
:101C2800002430460121FFF7A6FEFFF79DFED8F8F5
:101C380004301B6964009B0730464FF00001E4B292
:101C480005F1FF3548BF44F00104FFF794FEFFF7A4
:101C58008BFE15F0FF05E4D13846B9F1000F01D02D
:101C6800294600E00121FFF7E4FEFFF77DFE30463C
:101C78000121FFF780FEFFF777FE30460021FFF7CE
:101C88007AFEFFF771FE38460121FFF7D2FEFFF713
:101C98006BFE2046BDE8F883704770472DE9F04198
:101CA8000446806B03680F22DB690F46D4219847EE
:101CB8006828A06B0CBF0123002323630368D42189
:101CC800DB691922984700021FFA80F8A06B0368A5
:101CD800D421DB691822984748EA00001FFA80F8E7
:101CE800A06B0368D421DB691B229847000285B2E8
:101CF800A06B0368D421DB691A229847284385B270
:101D0800A06B0368D421DB691D229847000286B2C4
:101D1800A06B03681C22DB69D421984730430FFA73
:101D280088F32AB200B247B1616A19446162A16AB4
:101D38001144A162E16A0144E162616AA5695B1A22
:101D4800A16AE360521AE16A2261401A192193FBE1
:101D5800F1F32B44A361E36992FBF1F21A44236A7D
:101D6800606190FBF1F018442062A06BE2610368A7
:101D7800D421DB6929229847000285B2A06B036849
:101D8800D421DB6928229847284387B2A06B0368CF
:101D9800D421DB692B229847000285B2A06B036827
:101DA800D421DB692A229847284386B2A06B0368AE
:101DB800D421DB692D229847000285B2A06B036805
:101DC800D421DB692C22984728433FB236B200B2AF
:101DD80027606660A060BDE8F08111F1FF3101D392
:101DE80000BFFAE7704738B5044600258163C5602F
:101DF8000561456145628562C5628561C5610562A7
:101E080042F21071FFF7E9FFA06B25630368D42144
:101E1800DB690F2298476828A06B04BF012323635E
:101E28000368D4211D691022A823A847A06B036862
:101E3800D4211D691E223823A847A06B0368D4212A
:101E48001D692E220023A847A06B0368D4211D69B1
:101E580012220023A847A06B0368D4211D69202201
:101E68006023A847A06B03681F221D69D42138236B
:101E7800A847204642F21071FFF7AFFF2046002125
:101E8800FFF70CFF00236363142520460121FFF7A9
:101E980005FF20466421FFF7A0FF013DF5D114227C
:101EA800636AA56193FBF2F3E56163622562A36A45
:101EB800256093FBF2F36560A362A560E36A93FB78
:101EC800F2F3E36238BD000002480349034A00F018
:101ED800EBBC00BFB4040020A11C000800000020D7
:101EE80070477047F0B5A3B000241B4B00945A6CA0
:101EF8001A4E42F010025A645B6C03F01003009310
:101F08004FF400730225019307270123304601A9E6
:101F18000393029504950597FFF7B0F84FF4806393
:101F2800304601A9019302950597FFF7A7F80C4BD6
:101F380006934FF4E13307930C230B9306A84FF451
:101F48000043089409940A940C940D930E940F94EA
:101F5800FEF730FC23B0F0BD00380240000002401C
:101F680000100140034BDA69120601D400BFF9E7FB
:101F7800996270470010014070477047F0B572B61B
:101F880000254FF0FF3014260D4C6E43A719A659B3
:101F98001EB97E68002E08BF28460135202DF2D1D3
:101FA800451C0AD01425C6B26E43A5190027A751AF
:101FB8006960AA60EA602F746B7462B6F0BD00BFF6
:101FC800F404002072B6074B142202FB01310B7C8B
:101FD80003F0FF001BB1087C0023C0B20B7462B68B
:101FE800704700BFF40400202DE9F04107460024A3
:101FF8000F4E1425654373191033B0465B788BB1C7
:1020080038462146FFF7DEFF60B173590BB17359AB
:102018009847142303FB04835A681AB15868036865
:102028009B6898470134E4B2202C28BF0024DFE7DE
:10203800F404002082B072B6034B1B68019362B6A9
:10204800019802B0704700BFF004002038B54FF087
:1020580080431A69D20733D54FF6FE721A610024FD
:102068001849142303FB041303F1080250680D46B2
:1020780018B15368013B53601BE0986850601A7CA4
:10208800FF2A1FBF1A7C0132D2B21A741423634389
:10209800CA181032527862B9CA580AB1CB58984750
:1020A800142303FB04535A681AB1586803689B68E1
:1020B80098470134202CD3D1034A136801331360A5
:1020C80038BD00BFF4040020F004002010B592B021
:1020D8000C46FEF7A7FF002C4FEA400308BF012477
:1020E800A04207EE903A28BF2046B8EE677A07EE7E
:1020F800900AF8EE677A0024C7EE277A1B4B029401
:10210800196C41F0010119641B6C079403F0010379
:1021180002934FF08043039303A80594BCEEE77A3B
:10212800089417EE102A120C531C07EE103AB8EE5A
:10213800C77A0492C7EE877AB7EE007A77EEC77A45
:10214800FCEEE77ACDED017ABDF804300693FEF790
:1021580037FC032122461C20FEF770FB1C20FEF7EB
:102168009DFB03A8FEF7BDFB12B010BD003802406E
:1021780038B500240D4D142161436A180023013439
:102188006B50202C4FF47A7153609160D3601374B4
:102198005374EFD1064A1360064A0360136C43F088
:1021A80001031364FFF792FF62B638BDF404002000
:1021B800F004002000380240014B0360704700BF64
:1021C800940700207047704710B50446FFF788FE53
:1021D800204610BD10B50446FFF783FE204610BD0B
:1021E80038B505464C1E14F8011F19B12846FFF7EB
:1021F800B9FEF8E738BD38B505464C1E14F8011F7E
:1022080019B12846FFF7AEFEF8E738BD30B585B0FE
:102218000B1E4FF00002BABF5B42012414468DF832
:102228000F200A210A2293FBF2F502FB153304AAB8
:102238000A44303302F80C3C4A1ED2B22B460DB188
:102248001146EFE72CB104AB13442D2103F80C1C05
:10225800114601AB1944FFF7CEFF05B030BD1FB5DD
:1022680000238DF80F300A220A23B1FBF3F403FB95
:10227800141304A91144303301F80C3C531EDBB28B
:1022880021460CB11A46EFE701AB9918FFF7B3FFE7
:1022980004B010BD1FB500238DF80F300A2201F0DD
:1022A8000F0304AC092B144494BF3033573304F89C
:1022B8000C3C090902F1FF33DBB201D01A46EEE704
:1022C80001AB9918FFF797FF04B010BDF8B5B5EE4C
:1022D800C00A2DED028BF1EE10FA0D46064646BFF8
:1022E800B1EE400A2D21202101230022AA4203D267
:1022F8000A2043430132F9E7BDEEC08A3046F8EEC2
:10230800C87A30EE670A07EE903AF8EE677A20EE60
:10231800270ABDEEC00A10EE104A002CB8BF64426E
:10232800FFF720FE304618EE101AFFF76FFF304611
:102338002E21FFF717FE002301220A214A43013309
:10234800A242DBB2F9DBED1AEDB20027AF4230460C
:1023580004D23021FFF706FE0137F7E7BDEC028B08
:102368002146BDE8F840FFF751BF0EB477B507AB7B
:10237800044653F8046B01930025715D002954D07D
:10238800252904D02046FFF7EDFD0135F5E773193F
:102398005978692916D007D863292BD0662931D0F6
:1023A800252940D120462AE0752913D0782919D04B
:1023B800732938D1019B20461A1D19680192FFF72D
:1023C8001AFF30E0019B20461A1D19680192FFF799
:1023D8001DFF28E0019B20461A1D19680192FFF78E
:1023E8003EFF20E0019B20461A1D19680192FFF765
:1023F80051FF18E0019B1A1D197801922046FFF73A
:10240800B1FD10E0019B073323F0070303F1080235
:10241800D3E900010192FDF725FF032100EE100A20
:102428002046FFF753FF0235A7E703B0BDE8704029
:1024380003B070470121022280E806007047704708
:102448002DE9F0411D46036804461B6816460F46F1
:102458009847236839469B68204698472368314641
:102468009B6820469847236820469A6829469047E3
:10247800236820465B68BDE8F04118472DE9F04124
:102488001D46036804461B6816460F46984723688E
:1024980039469B6820469847236831469B68204602
:1024A80098472368C5F307219B6820469847236807
:1024B80020469B68E9B29847236820465B68BDE8D8
:1024C800F04118472DE9F0411D460368069E1B6838
:1024D8000446174688469847236841469B68204625
:1024E8009847236820469B68394698472E44B5424A
:1024F800236805D09B6815F8011B20469847F6E726
:1025080020465B68BDE8F0411847036870B504468B
:102518001B6816460D469847236829469B6820463F
:102528009847236831469B68204698472368204689
:102538001B689847236845F001019B682046984727
:1025480023680021DB6820469847236805465B68B6
:1025580020469847284670BD036870B504461B6836
:1025680016460D469847236829469B682046984793
:10257800236831469B6820469847236820461B6895
:102588009847236845F001019B68204698472368CF
:102598002046DB6801219847236800210502DB6893
:1025A80020469847236805435B6820469847284695
:1025B80070BD2DE9F0411D460368069E1B68044660
:1025C80090460F469847236839469B6820469847A7
:1025D800236841469B6820469847236820461B6825
:1025E8009847236820469B6847F0010198472E4486
:1025F800B542236806D0DB6820460121984705F8D4
:10260800010BF5E720465B68BDE8F041184700007C
:1026180008B5FEF7C5FE0448FFF7AAFD0348BDE864
:102628000840FFF75FBC00BF900700208C07002020
:1026380010B58CB0364B00220192196B41F00101A4
:102648001963196B01F0010101910292196B41F0B4
:1026580002011963196B01F0020102910392196BCF
:1026680041F004011963196B01F00401039104920C
:10267800196B41F008011963196B01F00801049105
:102688000592196B41F010011963196B01F01001E3
:1026980005910692196B41F020011963196B01F03D
:1026A800200106910792196B41F040011963196BDB
:1026B80001F0400107910892196B41F080011963FC
:1026C800196B01F0800108910992196B41F480712E
:1026D8001963196B01F4807109910A92196B41F41D
:1026E80000711963196B01F400710A910B921A6B4E
:1026F80042F480621A631B6B03F480630B93054BEF
:10270800036001210446FFF794F920460CB010BD80
:1027180000380240000C024010B58CB0364B002245
:102728000192196B41F001011963196B01F0010164
:1027380001910292196B41F002011963196B01F0C2
:10274800020102910392196B41F004011963196B9C
:1027580001F0040103910492196B41F00801196317
:10276800196B01F0080104910592196B41F01001F1
:102778001963196B01F0100105910692196B41F06C
:1027880020011963196B01F0200106910792196B5A
:1027980041F040011963196B01F04001079108925B
:1027A800196B41F080011963196B01F080010891E0
:1027B8000992196B41F480711963196B01F48071E6
:1027C80009910A92196B41F400711963196B01F4AC
:1027D80000710A910B921A6B42F480621A631B6BA8
:1027E80003F480630B93054B036001210446FFF754
:1027F800C2F820460CB010BD00380240000C024060
:1028080038B51E4D1E4C28460021FFF7D5FC28463A
:102818001C4D1D49224600F047F82846FFF70AFEDE
:1028280028461A4D1A49224600F03EF82846194B08
:1028380040F8043BFFF7FCFE05F10800FFF76CFFCA
:102848006A68536923F002035361AA68124D5369F9
:1028580023F0040353612846FFF7B6FC28460F4DC2
:102868000F49224600F020F82846FFF785FB284646
:1028780022460C49BDE8384000F016B87C07002015
:102888000000002074070020CD21000880070020E8
:1028980047240008302A00088C07002090070020F1
:1028A800DD210008831F000803460846194600F08A
:1028B80007B800BF014600200246034600F020B8D2
:1028C80010B40C4613460146224602205DF8044B1C
:1028D80000F016B838B5084B084DED1AAC1018BF03
:1028E800ED1805D0013C55F8043D9847002CF9D166
:1028F800BDE8384000F066B87C2A0008802A000845
:102908002DE9F047254C2568D5F848410646884604
:1029180092469946CCB360681F2818DC431C7EB1E8
:1029280004EB80050121C5F888A0D4F8887101FA64
:1029380000F21743022EC4F88871C5F808911ED01A
:102948000230636044F820800020BDE8F087144B13
:1029580003B34FF4C870AFF300800446D0B1D5F884
:102968004831002780E88800C5F8484138460123E7
:10297800C4F88871C4F88C71002EE1D0D0E7D4F87F
:102988008C110A43C4F88C21DAE705F5A674C5F85A
:102998004841C0E74FF0FF30BDE8F0875C2A0008E7
:1029A80000000000024B13B10248FFF783BF7047D5
:1029B80000000000DD280008F8B500BFF8BC08BC1E
:1029C8009E467047F8B500BFF8BC08BC9E467047E5
:1029D800001010100410101002101010080104024A
:1029E80008000000000102030401020304060708AE
:1029F80009000000000000000000000000000000C6
:102A0800B5140008CD140008E11400082000737400
:102A1800617274696E6720746872656164730A0014
:102A28000000000000000000F71A0008391B000829
:102A38007B1B0008051C00084924000885240008A1
:102A4800CD2400081325000861250008BB250008CF
:082A580043000000080000200B
:082A600050FEFF7F01000000A1
:102A6800AD290008350200089D140008D11E000891
:042A78000928000821
:042A7C000D0200083F
:102A8000000000000024F40000000000F402002018
:102A90005C030020C40300200000000000000000D0
:102AA0000000000000000000000000000000000026
:102AB000000000000000000000000000582A00088C
:102AC0000000000000000000000000000000000006
:102AD00000000000000000000000000000000000F6
:102AE00000000000000000000000000000000000E6
:102AF00000000000000000000000000000000000D6
:102B000000000000000000000000000000000000C5
:102B100000000000000000000000000000000000B5
:102B200000000000000000000000000000000000A5
:102B300001000000000000000E33CDAB34126DE642
:102B4000ECDE05000B0000000000000000000000AB
:102B50000000000000000000000000000000000075
:102B60000000000000000000000000000000000065
:102B70000000000000000000000000000000000055
:102B80000000000000000000000000000000000045
:0400000508001411CA
:00000001FF
