:020000040800F2
:1000000000000420E5010008C9010008DB01000828
:10001000C9010008C9010008C9010008000000006A
:10002000000000000000000000000000C9010008FE
:10003000C901000800000000C9010008C90100084A
:10004000C9010008C9010008C9010008C901000868
:10005000C9010008C9010008C9010008C901000858
:10006000C9010008C9010008C9010008C901000848
:10007000C9010008C9010008C9010008C901000838
:10008000C9010008C9010008C9010008C901000828
:10009000C9010008C9010008C9010008C901000818
:1000A000C9010008C9010008C9010008C901000808
:1000B000FD1D0008C9010008C9010008C9010008A8
:1000C000C9010008C9010008C9010008C9010008E8
:1000D000C9010008C9010008C9010008C9010008D8
:1000E000C9010008C9010008C9010008C9010008C8
:1000F000C9010008C9010008C9010008C9010008B8
:10010000C9010008C9010008C9010008C9010008A7
:10011000C9010008C9010008C9010008C901000897
:10012000C9010008C9010008C9010008C901000887
:10013000C9010008C9010008C9010008C901000877
:10014000C9010008C9010008C9010008C901000867
:10015000C9010008C9010008C9010008C901000857
:10016000C9010008C9010008C9010008C901000847
:10017000C9010008C9010008C90100080000000009
:10018000C9010008C9010008C9010008C901000827
:10019000C9010008C9010008C9010008C901000817
:1001A000C9010008C9010008C9010008C901000807
:1001B000C9010008C9010008C9010008C9010008F7
:0801C000C9010008C901000893
:1001C800684620F007018D4601B5BDE80140854627
:1001D8007047684620F007018D46FEE71549164A24
:1001E8001648521A921000239A4217D1144A154EF3
:1001F800D2F88830144C43F47003C2F88830D2F82F
:100208003432A41B43F04043C2F83432A410002512
:10021800A54209D100F01AF801F006B850F82340B9
:1002280041F823400133DFE756F825309847013578
:10023800EEE700BF00000020040000206829000845
:1002480000ED00E0682900086C2900080F49D1F882
:10025800883043F47003C1F888300D4B1A680020C9
:1002680042F001021A6098601A6822F0847222F43F
:1002780080321A60074A5A601A6822F480221A608B
:10028800D8604FF000638B60704700BF00ED00E05E
:10029800003802401030002470472DE9F041069DD7
:1002A80004460F46164698462168CA6937EA02038B
:1002B8000CBF01220022B24202D00020BDE8F0812A
:1002C8006B1CF2D09DB923681A6822F4D0721A60A8
:1002D8009A6822F001029A60202384F8693084F831
:1002E8006A30002384F868300320BDE8F08100F00C
:1002F80009FAA0EB08008542D6D8E4E738B50446E9
:1003080005682169A268C36928680A4361690A43C4
:1003180093491A4301400A432A606A68E168206ADF
:1003280022F440520A436A60A968A26921F4306144
:1003380002430A43AA608B4A954219D102F59432C6
:100348008949D2F8902002F00302B3F5004F8A5C85
:1003580040F0B380082A00F2AD80DFE812F02600F2
:100368007B00E900AB00F500AB00AB00AB00FB0085
:100378007E4A954207D102F5FA327D49D2F890209B
:1003880002F00C02E1E77B4A95422BD102F5F832E4
:10039800D2F8902002F03002102A00F0D28016D84D
:1003A800DAB9B3F5004F40F09F8000F06FFD616847
:1003B8004A0802EB4003B3FBF1F39BB2002023F0A1
:1003C8000F022168C3F342031343CB6038BD202AD0
:1003D80000F0AB80302A00F0BA80B3F5004F69D046
:1003E800012038BD644A95420ED102F5F632D2F8A2
:1003F800902002F0C002402A00F0A380D0D9802AC1
:1004080000F09380C02AE6E75C4A954210D102F5D5
:10041800F432D2F8902002F44072B2F5807F00F0F6
:100428009080BDD9B2F5007F7FD0B2F5407FD2E78A
:10043800534A954217D102F59232D2F8902002F42D
:100448004062B2F5806F7CD007D8002AC5D1B3F5D9
:10045800004F54D100F02AFDA9E7B2F5006F64D02F
:10046800B2F5406FB7E7474A95420FD102F5E0323F
:10047800D2F8902002F44052B2F5805F61D08FD953
:10048800B2F5005F51D0B2F5405FA4E73E4A95420D
:10049800A3D102F5DE32D2F8902002F44042B2F540
:1004A800804F4ED07FF67CAFB2F5004F3DD0B2F50D
:1004B800404F90E70120002381E7082A90D801A344
:1004C80053F822F0F1040008070500080D0500089C
:1004D800E903000823050008E9030008E903000808
:1004E800E90300082905000800F0D0FC636800EB68
:1004F8005300B0FBF3F080B2E860002038BD00F094
:10050800D5FCF3E76268530803F5740303F5105349
:10051800B3FBF2F39BB2EB60EFE700F0FDFBE5E71E
:100528006268530803F50043F2E7B3F5004FE9D1D9
:100538006068430803F1F47303F59043B3FBF0F3E9
:100548003BE7B3F5004FE8D100F0E6FB2FE7B3F542
:10055800004FE5D16068430803F58033EEE700BF3C
:10056800F369FFEF001001404C27000800440040E9
:100578005027000800480040004C00400050004050
:100588000014014000780040007C0040436ADA070C
:1005980010B506D50168846A4A6822F400322243FD
:1005A8004A609C0706D50168C46A4A6822F480320A
:1005B80022434A60590706D50168046B4A6822F449
:1005C800802222434A601A0706D50168446B4A68AC
:1005D80022F4004222434A60DC0606D50168846B97
:1005E8008A6822F4805222438A60990606D50168F7
:1005F800C46B8A6822F4005222438A605A060FD5D7
:100608000168046C4A6822F480122243B4F5801F02
:100618004A6005D14A68446C22F4C00222434A6009
:100628001B0606D50268816C536823F400230B432C
:10063800536010BD37B504460025C56600F062F862
:10064800226812681207034609D42023002084F880
:10065800693084F8680084F86A3003B030BD6FF000
:100668007E4200924FF400112A462046FFF715FEFD
:100678000028EAD00320F0E710B5044660B390F8EC
:10068800693003F0FF021BB980F86820FFF704FE09
:100698002268242384F86930136823F00103136067
:1006A8002046FFF72BFE012816D0636A13B12046B7
:1006B800FFF76CFF23685A6822F490425A609A68E0
:1006C80022F02A029A601A6842F0010220461A6053
:1006D800BDE81040FFF7AEBF012010BD10B5084BB4
:1006E800044618684FF47A73B0FBF3F000F050F842
:1006F800002221464FF0FF3000F00AF8002010BD1C
:1007080000000020014B1868704700BFE00200207D
:10071800174B30B5DC68C4F30224C4F10703251D68
:10072800042B28BF0423062D4FF0010505FA03F317
:1007380003F1FF338CBF033C00241940A14005FAA4
:1007480004F4013C2240002842EA01024FEA021266
:10075800AFBF00F1604000F00F00064BD2B2A5BF5A
:1007680000F56140D2B21A5480F8002330BD00BFB2
:1007780000ED00E014ED00E04209012300F01F0045
:1007880003FA00F0014B43F82200704700E100E053
:100798000138B0F1807F0AD2064B074A5860F02131
:1007A80082F823100020072298601A607047012001
:1007B800704700BF10E000E000ED00E0194B37B5CE
:1007C8001A6C194C42F080521A641B6C03F0805367
:1007D8000193019B236843F480332360FFF792FF62
:1007E80005466368DA030CD5236843F400332360B5
:1007F800FFF788FF0C4C054663689B030AD5002069
:1008080006E0FFF77FFF401BB0F57A7FE9D90320A8
:1008180003B030BDFFF776FF401BB0F57A7FEBD908
:10082800F5E700BF00380240007000402DE9F04FA6
:1008380085B00B68DFF8A481664ADFF8A4910193BC
:1008480000234FF0010E019C0EFA03FE0EEA040687
:10085800B64540F0AA804C6824F01007022F16D144
:100868004FEAD30A00EB8A0A03F0070BDAF82050A4
:100878004FEA8B0B4FF00F0C0CFA0BFC25EA0C0C13
:100888000D6905FA0BF545EA0C05CAF820504FEA40
:10089800430A0325D0F800B005FA0AF5ED4304F041
:1008A800030C0BEA050B0CFA0AFC013F4CEA0B0C93
:1008B800012FC0F800C011D8876807EA050BCF6878
:1008C80007FA0AFC4CEA0B078760476827EA0E0E0E
:1008D800C4F300179F4047EA0E074760C7683D40CA
:1008E8008F6807FA0AF73D43C560E5005DD5D8F87B
:1008F800445045F48045C8F84450D8F8445023F093
:10090800030707F1804705F4804507F59C370395F1
:1009180003F0030E039DD7F808A04FF00F0C4FEA21
:100928008E0E0CFA0EF52AEA050C2B4DA84243D080
:1009380005F58065A84241D005F58065A8423FD0FD
:1009480005F58065A8423DD005F58065A8423BD0F5
:1009580048453BD005F50065A84239D005F58065C6
:10096800A84214BF0825072505FA0EF545EA0C0527
:10097800BD601568F74314F4803F0CBF3D40354314
:100988001560556814F4003F0CBF3D403543556071
:10099800956814F4801F0CBF3D4035439560D568B9
:1009A800A40254BF3D403543D5600133102B7FF47A
:1009B80048AF05B0BDE8F08F0025D5E70125D3E79E
:1009C8000225D1E70325CFE70425CDE70525CBE7A9
:1009D8000625C9E7003C01400000024000380240FB
:1009E800001402402DE9F341044618B9012002B071
:1009F800BDE8F0810368DD0710D42368980762D446
:100A08002368190700F1A88023685A0700F1C980F4
:100A1800A269002A40F034810020E8E7964B9A68E2
:100A280002F00C02042A07D09A6802F00C02082A85
:100A38000AD15B68590207D58F4B1B689A03DCD52E
:100A48006368002BD9D1D1E763688B4DB3F5803F3C
:100A580013D12B6843F480332B60FFF753FE864E87
:100A6800074641F2883533689B03C6D4FFF74AFE30
:100A7800C01BA842F7D90320B9E7ABB92B6823F408
:100A880080332B602B6823F480232B60FFF73AFE1A
:100A980041F2883706462B689803AED5FFF732FE39
:100AA800801BB842F7D9E6E7B3F5A02F2B6803D12E
:100AB80043F480232B60CCE723F480332B602B682E
:100AC80023F48023C8E76C4B9A6812F00C0F07D008
:100AD8009A6802F00C02082A12D15B6859020FD4F6
:100AE800654B1A68920703D5E268012A7FF47EAF46
:100AF8001A68216922F0F80242EAC1021A607FE707
:100B0800E3685D4DBBB12B6843F001032B60FFF731
:100B1800F9FD06462B689F0707D52B68226923F045
:100B2800F80343EAC2032B606AE7FFF7EBFD801B7B
:100B38000228EFD99FE72B6823F001032B60FFF70A
:100B4800E1FD06462B6898077FF55AAFFFF7DAFDF7
:100B5800801B0228F6D98EE76369474D83B16B6F16
:100B680043F001036B67FFF7CDFD06466B6F9B07EC
:100B78003FF54AAFFFF7C6FD801B0228F6D97AE792
:100B88006B6F23F001036B67FFF7BCFD06466B6FC5
:100B98009F077FF539AFFFF7B5FD801B0228F6D90F
:100BA80069E7354B1A6CD00027D41A6C42F0805292
:100BB8001A641B6C03F080530193019B01262F4D8F
:100BC8002B68D9051BD5A3682B4D012B27D12B6F7B
:100BD80043F001032B67FFF795FD274F804641F24D
:100BE80088353B6F9B073FD5002E3FF411AF224A53
:100BF800136C23F0805313640AE70026DFE72B68A1
:100C080043F480732B60FFF77DFD07462B68DA05F8
:100C1800D9D4FFF777FDC01B6428F7D92BE7ABB908
:100C28002B6F23F001032B672B6F23F004032B6733
:100C3800FFF768FD41F2883807462B6F9807D3D530
:100C4800FFF760FDC01B4045F7D914E7052B2B6F54
:100C580003D143F004032B67B9E723F001032B67A3
:100C68002B6F23F00403B5E7FFF74CFDA0EB08005A
:100C7800A842B6D9FFE600BF003802400070004025
:100C8800244DAB6803F00C03082B3FF4AFAE2B6880
:100C9800022A23F080732B602ED1FFF733FD06461E
:100CA8002B68990122D4226AE3691343626A43F0EC
:100CB800005343EA8213E26A43EA0263A26A154CCC
:100CC8005208013A43EA02436B602B6843F0807391
:100CD8002B60FFF717FD054623689A013FF59CAE88
:100CE800FFF710FD401B0228F6D9C4E6FFF70AFDFE
:100CF800801B0228D4D9BEE6FFF704FD04462B6802
:100D08009B017FF589AEFFF7FDFC001B0228F6D991
:100D1800B1E600BF00380240114B9A6802F00C029D
:100D2800042A03D0082A03D00E4870470E4870479B
:100D38005A6859685B684902C3F3881302F03F0296
:100D48004CBF09480748B0FBF2F05843044B5B68B6
:100D5800C3F3014301335B00B0FBF3F0704700BFFE
:100D6800003802400024F40000127A002DE9F04116
:100D78000D46044610B90120BDE8F0813F4A1368CA
:100D880003F00F038B4228D32268960730D4D0078C
:100D980036D43A4A136803F00F039D425AD32268A7
:100DA800510762D4130707D5354A2169936823F49C
:100DB800604343EAC1039360FFF7AEFF304B314A0B
:100DC8009B68C3F30313D35CD8402F4B18600F20E4
:100DD800FFF784FC0020BDE8F081136823F00F03BF
:100DE8000B431360136803F00F039942C3D1CBE799
:100DF8002349A0688B6823F0F00303438B60C6E7A0
:100E080061681F4B01291A681CD112F4003FB2D047
:100E18009A681B4E22F003020A439A60FFF772FC9D
:100E280041F288380746B368626803F00C03B3EBF5
:100E3800820FAED0FFF766FCC01B4045F3D90320F4
:100E4800BDE8F081022902D112F0007FDFE712F03D
:100E5800020FDCE7136823F00F032B4313601368BA
:100E680003F00F039D4286D199E70549E0688B6836
:100E780023F4E05303438B6094E700BF003C024037
:100E8800003802403427000800000020044B054ABF
:100E98009B68C3F38223D35C034A1068D840704729
:100EA800003802404427000800000020044B054A8F
:100EB8009B68C3F34233D35C034A1068D840704739
:100EC80000380240442700080000002070470368EB
:100ED800DA6842F00102DA601A6842F001021A6028
:100EE80000207047304A0368904212D0B0F1804F1A
:100EF8000FD0A2F57C4290420BD002F5806290425E
:100F080007D002F58062904203D002F57842904201
:100F18001DD14A6823F070031343234A904204D139
:100F2800CA6823F44073134328E0B0F1804FF7D028
:100F38001E4A9042F4D002F580629042F0D002F549
:100F480080629042ECD002F578429042E8D0184A8C
:100F58009042E5D002F580629042E1D002F58062CD
:100F68009042DDD0A2F598329042D9D002F5806245
:100F78009042D5D002F580629042D1D04A6923F0E0
:100F88008003134303608B68C3620B688362064B5C
:100F9800984206D003F58063984202D0012343614A
:100FA80070470B690363F9E7000001400004004043
:100FB8000040014010B50446A0B190F83D3003F060
:100FC800FF021BB980F83C20FFF780FF022384F85A
:100FD8003D302068211DFFF785FF012384F83D304F
:100FE800002010BD012010BD7047704714234360D6
:100FF800704700207047002070470000014B0360D5
:10100800704700BF6827000870472DE9F0411D466A
:10101800036804461B6816460F46984723683946F6
:10102800DB682046984723683146DB6820469847A6
:1010380023682946DA6820469047236820465B687B
:10104800BDE8F0411847036870B504461B681646AA
:101058000D46984723682946DB6820469847236849
:101068003146DB6820469847236820461B68984726
:10107800236845F00101DB68204698472368002172
:101088001B6920469847236805465B6820469847B1
:10109800284670BD42680023934202D000BF013346
:1010A800FAE77047014B02481860704704000020B7
:1010B800E4020020704700207047704710B51421E3
:1010C8000446FFF7F7FF204610BD0000836810B5FF
:1010D8000446D3B94268536923F400535361A368A3
:1010E800052B27D1E368322203F00701B3FBF2F3A3
:1010F8000F22B3FBF2F2C2EB02129B1A274AD35C0F
:10110800994263685A691AD211E0012B04D14268E6
:10111800536943F40053E1E7022B13D1C1686423F8
:10112800B1FBF3F203FB121243683AB95A6942F46D
:1011380000525A61E3680133E36010BD5A6922F432
:101148000052F6E7042B10D1C1683223B1FBF3F249
:1011580003FB1212436822B95A6942F400525A61D9
:10116800BDE75A6922F40052F9E7032BB7D10C48BE
:1011780000F022FE236903F54873984202D901233F
:10118800A360ACE7E1686422B1FBF2F302FB13133E
:10119800182B63685A69E5D8DFE700BF7C27000889
:1011A800DC02002010B500230446C36081600248B9
:1011B80000F002FE206110BDDC020020164A174B29
:1011C80010B50360136B6FEA53236FEA432313636D
:1011D800134B43609A6822F040629A609A6842F022
:1011E80040629A605A6822F400525A605A685A60FB
:1011F8001A6822F040621A601A6842F08062044657
:101208001A600321FFF7CEFF00230122214605487B
:1012180000F09EFD204610BD0038024094270008CB
:10122800000C0240DC0200207FB500F023F80E48D5
:1012380001F05CF801A8FFF7C1FF4FF448710B48B3
:1012480000F0C6FD052101A8FFF7ACFF084800F033
:101258002FF904210DEB0100FFF7A4FF4FF0FF3138
:10126800014800F0B9FEFEE798010020DC020020EA
:10127800F401002010B592B0012306934FF4803397
:1012880007934FF480030D9304230E934FF4967342
:1012980002240F9306A809230C9410941193FFF7C6
:1012A800A1FB00B1FEE7FFF789FA00B1FEE70F23C3
:1012B80001934FF4A0530390049307214FF48053F4
:1012C80001A802940593FFF751FD00B1FEE712B0A3
:1012D80010BD000010B5034B0360044600F0F4FB9A
:1012E800204610BDA827000810B50446FFF7F2FFF6
:1012F80020460421FFF7DEFE204610BD10B5044647
:1013080000F0EAFB014B2360204610BDA827000827
:1013180038B505464C1E14F8011F19B1284600F0CF
:101328001FFCF8E738BDFFF7F3BF7FB50B1E4FF082
:1013380000024FF00A01BABF5B42012414468DF83F
:101348000F200E4604AA93FBF6F50A4406FB153354
:10135800303302F80C3C4A1ED2B22B4665B92CB188
:1013680004AB13442D2103F80C1C114601AB19449E
:10137800FFF7CEFF04B070BD1146E3E730B585B086
:1013880000230A228DF80F301546B1FBF5F405FB52
:10139800141304A91144303301F80C3C531EDBB27A
:1013A80021462CB901AB9918FFF7B2FF05B030BD43
:1013B8001A46EAE7704710B504210446FFF77AFE9B
:1013C800204610BD014B0360704700BFB8270008D6
:1013D800704700207047704710B518210446FFF782
:1013E80069FE204610BD027B836832B10022027379
:1013F8005A6942F480725A617047012202735A692D
:1014080022F48072F7E700001C4A1D4B0360136B3F
:1014180030B540F2FF152B4313631A4B43609C68A9
:1014280024F0C0049C609C6844F0C0049C601C6864
:1014380024F0C0041C601C681C60DC6844F0400494
:10144800DC60136B2B4313630F4B83609A6822F4A1
:1014580040329A609A6842F440329A605A6822F49C
:1014680080725A605A685A601A6822F440321A60C8
:101478001A6842F480321A6030BD00BF003802405A
:10148800C827000800100240000002404FF0FF3358
:1014980010B5436100230446037301464FF4FA7202
:1014A800024800F055FC206110BD00BFDC0200209E
:1014B800436870B504461A69120701D500BFFAE7F8
:1014C800012363616422217C0F480F4D00F068FC02
:1014D8000D4800F071FC00F5FA6663681B691B078C
:1014E8000FD4094800F068FCB042F6D96369012BB3
:1014F800F3D13222217C284600F052FC022363619A
:10150800EBE7606970BD00BFDC02002070477047E0
:1015180010B524210446FFF7CDFD204610BD10B5B7
:10152800CC210446FFF7C6FD204610BD484A494B6A
:101538000360136B30B540F2FF1423431363464B2B
:1015480043609D6825F440459D609D6845F440458D
:101558009D605D6825F080055D605D685D601D6863
:1015680025F440451D601D6845F480451D603B4BD2
:10157800036143638365C367136B23431363384B6A
:10158800C0F8A0301D6825F00C051D601D6845F0E9
:101598000C051D60156B254315631D68C0F8A43044
:1015A80025F030051D601D6845F030051D60156B80
:1015B800254315631D68C0F8A83025F0C0051D60D7
:1015C8001D6845F0C0051D60156B254315631D6832
:1015D800C0F8AC3025F440751D601D6845F44075B1
:1015E8001D60156B254315631D68C0F8B03025F4E0
:1015F80040551D601D6845F440551D60156B254319
:1016080015631D68C0F8B43025F440451D601D6899
:1016180045F440451D60136B23431363114BC0F819
:10162800B8301D6825F440751D601D6845F4407587
:101638001D60156B2C4314631A68C0F8BC3022F483
:1016480040621A601A6842F440621A6030BD00BFF6
:1016580000380240EC27000800100240DC27000890
:1016680000000240000802404268536923F08003EA
:101678002DE9F0416421044653612B48DFF8AC8022
:1016880000F0A6FB6421284800F0A2FB04F138060C
:101698003746002529464046FFF79BFE0135082DB1
:1016A80047F8040BF6D162681F4853691F4F43F08F
:1016B80080035361642100F08BFB002529463846DE
:1016C800FFF787FE56F8043B0135C01A082D306233
:1016D800F4D104F1800304F1A001002243F8042BA3
:1016E8009942FBD16FF0FF0363616FF0BF03A36101
:1016F8006FF07F03E3616FF03F032362402363626F
:101708008023A362C023E3624FF4807323634FF402
:10171800C873A3602273002304222146024800F004
:1017280017FB0020BDE8F081DC02002050010020FA
:1017380000EB810030B54269D0F8805002FB05F417
:1017480079B1C36F0269062902FB03422B440BD807
:10175800D0F8841080690B4400FB012292FBF3F05F
:1017680030BD62006B00F3E722442B44F6E7826841
:1017780000F18003002053F8041B8A4204DB013087
:101788000828F8D14FF0FF30704700002DE9F84FD6
:101798000025DFF86CA0DFF86C90044600F13806ED
:1017A800AB4629465046FFF714FE56F8043BC01ACC
:1017B80009FB00F0336A90FBF3F0013510F57A70FD
:1017C80054BF7064C6F844B0082DEAD12046FFF72C
:1017D800CEFF431C014611D02046FFF7A9FF012385
:1017E8000746804684F8C030012384F8C130C4F825
:1017F800C470C4F8C8802373BDE8F88F0023F1E7EC
:101808005001002018FCFFFF704710B54421044622
:10181800FFF750FC204610BD014B0360704700BF26
:10182800002800082DE9F0410446006C03681B6895
:1018380088469847206C0368D421DB689847206C59
:1018480003681921DB689847206C03681B68984770
:10185800206C0368D521DB689847206C0368012158
:101868001B699847000207B2206C036801211B69B5
:1018780098470743206C036801211B6998470002B9
:1018880006B2206C036801211B6998470643206C47
:10189800036801211B699847000205B2206C0368A0
:1018A80000211B6998470543206C03685B683FB2B9
:1018B80036B22DB29847B8F1000F08D0A36A3B445E
:1018C800A362E36A3344E362236B2B442363A36A72
:1018D800E169226BE06AFB1AAD1A2361192293FBB6
:1018E800F2F301EB4303E361236AA561301A6061F7
:1018F80090FBF2F003EB40002062636A206C95FBDA
:10190800F2F503EB4505036865621B689847206C90
:101918000368D421DB689847206C03682921DB68B9
:101928009847206C03681B689847206C0368D5218A
:10193800DB689847206C036801211B6998470002FF
:1019480007B2206C036801211B6998470743206C84
:10195800036801211B699847000206B2206C0368DE
:1019680001211B6998470643206C036801211B6904
:101978009847000205B2206C036800211B6998474C
:101988000543206C03685B6898473FB236B22DB2B6
:1019980001236760A660E56084F83C30BDE8F0810B
:1019A8000021FFF73FBF406B003018BF0120704790
:1019B80090F83C3072B613B1002280F83C2062B631
:1019C8001846704711F1FF3101D300BFFAE770479D
:1019D80038B50446102208462164A823D421FFF70D
:1019E80014FB002323616361A361A362E3622363A1
:1019F800E3612362636242F210712046FFF7E2FF5F
:101A08000F226363D421206CFFF71DFB682804BFF5
:101A1800012363631022A823D421206CFFF7F5FA71
:101A280038231E22D421206CFFF7EFFA00232E2240
:101A3800D421206CFFF7E9FA00231222D421206C6C
:101A4800FFF7E3FA60232022D421206CFFF7DDFAA8
:101A580038231F22D421206CFFF7D7FA42F21071E5
:101A68002046FFF7AFFF00212046FFF7DBFE0023EB
:101A7800A3634FF47A7501212046FFF7D3FE642152
:101A88002046FFF79FFF013DF5D14FF47A72A36A14
:101A9800E56193FBF2F32562A3626562E36A656020
:101AA80093FBF2F3A560E362E560236B054893FBC3
:101AB800F2F3214623630A222B4600F049F984F801
:101AC8003C5038BDDC020020704710B504210446A4
:101AD800FFF7F0FA204610BD014B0360704700BFC6
:101AE800142800081B4B1A6BF0B542F001021A6368
:101AF8005A6C194DA3B042F010025A644FF40073A7
:101B080002240F4601930726012301A928460393BF
:101B1800029404940596FEF789FE4FF4806301A9A8
:101B28002846019302940596FEF780FE0B4B069318
:101B38000C2200230B9206A84FF400420797089343
:101B480009930A930C930D920E930F93FEF794FD4D
:101B580023B0F0BD003802400000024000100140F0
:101B6800034BDA69120601D400BFFAE7996270479D
:101B780000100140704710B544210446FFF79AFA57
:101B8800204610BD2549264B03600B6B70B540F20B
:101B9800FF152B430B63234B83619A6822F03002B5
:101BA8009A609A6842F030029A605A6822F00402F9
:101BB8005A605A685A601A6822F030021A601A6825
:101BC80042F010021A600A6B2A430A63164AC2617D
:101BD800166826F440661660166846F44066166075
:101BE8000E6B2E430E631E68036226F003061E600A
:101BF8001E6846F003061E600E6B35430D631168C0
:101C0800426221F003011160116841F00301116083
:101C18005A6922F004025A6170BD00BF00380240C0
:101C2800242800080004024000000240826938B5F8
:101C38005369002523F004038562044653614FF479
:101C48008073C562056345638563C5630564436046
:101C58008360C3600574457401462B4632220348ED
:101C680000F076F82575284638BD00BFDC02002054
:101C780000EB8202936BD26A9B1A23EAE373102269
:101C8800C3F5805393FBF2F30A6802EB4202134454
:101C9800042293FBF2F30B607047000038B5856AA5
:101CA800044615B1012D17D038BD08212648FFF785
:101CB80090FB0921A0632448FFF78BFB0A21E0630E
:101CC8002148FFF786FBA2692064536943F00403A7
:101CD80053610123A36238BD08211B48FFF779FB34
:101CE8000921E0621848FFF774FB0A2120631648AF
:101CF800FFF76FFBA2696063536923F00403536124
:101D080004F1080100222046FFF7B2FF2A46211DF0
:101D18002046FFF7ADFF022204F10C012046FFF731
:101D2800A7FFA268EF2A4FF0000304DCD12A25742C
:101D380003DD637402E02374FBE765740023A36288
:101D48000123237538BD00BF50010020704770473C
:101D5800F0B572B6114D00244FF0FF304FF0140E5D
:101D68002F460EFB04F605EB060CAE5926B9DCF837
:101D78000460002E08BF20460134102CF1D1441C09
:101D88000AD0C4B2142565437C1900267E516160CF
:101D9800A260E2602674637462B6F0BD1000002091
:101DA8000448142303FB01010023CA608A600B74F2
:101DB800704700BF1000002082B072B6034B1B684A
:101DC800019362B6019802B0704700BF0C00002072
:101DD80007B50246FFF7F0FF014401911046FFF7EF
:101DE800EBFF019B984201D200BFF7E703B05DF813
:101DF80004FB0000F8B54FF080431A69D20714D5E8
:101E0800194F4FF6FE721A61002414263D4606FB50
:101E18000473DA6852B1DA68013ADA600134102CD6
:101E2800F5D1124A136801331360F8BD9A68DA6075
:101E38001A7CFF2A1FBF1A7C0132D2B21A7406FB21
:101E480004F3EA18527C002AE8D1EA580AB1EB58A0
:101E5800984706FB04535A68002ADFD0586803687D
:101E68009B689847DAE700BF100000200C000020AC
:101E780010B592B00C46FFF709F8002C08BF0124F2
:101E8800A0424FEA400328BF204607EE103A07EE6B
:101E9800900AB8EE477AF8EE677A1B49C7EE276AC8
:101EA8000A6C42F001020A644FF080420292002458
:101EB80002A8069404940794FCEEE67A17EE903A8A
:101EC8001B0C5A1C07EE102AB8EEC77A0393C6EE0D
:101ED800877A9FED0E7A77EEC77AFCEEE77ACDED3A
:101EE800017ABDF804200592FFF764F82246032121
:101EF8001C20FEF70DFC1C20FEF73EFC02A8FEF796
:101F0800E6FF12B010BD00BF003802400000803F5D
:101F1800F8B500220C4D142713464FF47A7607FBC8
:101F280002F429190132102A2B514B608E60CB60C4
:101F38000B744B74F3D1054A4FF47A711360036044
:101F4800FFF796FF62B6F8BD100000200C000020D5
:101F5800704710B508210446FFF7ACF8204610BDBD
:101F680010B5034B03600446FFF74EF8204610BD3A
:101F78003828000810B50446FFF7F2FF2046102164
:101F8800FFF798F8204610BD1049114B03600B6B02
:101F98006FEA53236FEA43230B630E4B43609A683F
:101FA80022F440329A609A6842F440329A605A6841
:101FB80022F480725A605A685A601A6822F44032D1
:101FC8001A601A6842F480321A607047003802407A
:101FD80060290008000002402DE9F84380460F46BA
:101FE80040484149414D3F4C414EFFF79CF94FF065
:101FF8000109B9F1000F72D02846FFF7D9FC002873
:10200800F7D0D8F804202969536943F48073002F66
:1020180053612046C8BF07F1FF37FFF786F93146FD
:102028002046FFF780F969692046FFF77EF93146B7
:102038002046FFF778F9A9692046FFF776F9314677
:102048002046FFF770F92B492046FFF76CF96968BD
:102058002046FFF76AF931462046FFF764F9A96878
:102068002046FFF762F931462046FFF75CF9E96838
:102078002046FFF75AF931462046FFF754F91D4923
:102088002046FFF750F9E9692046FFF74EF9314637
:102098002046FFF748F9296A2046FFF746F93146F6
:1020A8002046FFF740F9696A2046FFF73EF93146B6
:1020B8002046FFF738F910492046FFF734F9D8F8D9
:1020C80004200E48536923F480735361C821FFF735
:1020D8007FFE17F1000918BF4FF0010989E7BDE835
:1020E800F88300BFD802002054280008B00100205F
:1020F800672800086528000873280008DC0200200B
:10210800B9B903689A6822F00C029A609A6842F09A
:102118000C029A605A6822F002025A605A685A60A1
:102128001A6822F00C021A601A6842F004021A6057
:10213800704701290ED103689A6822F00C029A6050
:102148009A6842F00C029A601A6822F00C021A602F
:102158001A68ECE7022913D103689A6822F00C0286
:102168009A609A6842F00C029A601A6822F00C028F
:102178001A601A681A60DA6842F00402DA60704776
:10218800052910D103689A6822F00C029A609A68AF
:1021980042F00C029A601A6822F00C021A601A685F
:1021A80042F00802C3E70429C2D103681A6822F082
:1021B8000C021A601A6842F00C02B8E7064A08B521
:1021C800136B6FEA53236FEA43231363034B0360D4
:1021D8000121FFF795FF08BD00380240000C0240BE
:1021E800B9B903689A6822F030029A609A6842F096
:1021F80030029A605A6822F004025A605A685A609B
:102208001A6822F030021A601A6842F010021A6046
:10221800704701290ED103689A6822F030029A604B
:102228009A6842F030029A601A6822F030021A6006
:102238001A68ECE7022913D103689A6822F0300281
:102248009A609A6842F030029A601A6822F0300266
:102258001A601A681A60DA6842F01002DA60704789
:10226800052910D103689A6822F030029A609A68AA
:1022780042F030029A601A6822F030021A601A6836
:1022880042F02002C3E70429C2D103681A6822F089
:1022980030021A601A6842F03002B8E7064A08B5F8
:1022A800136B6FEA53236FEA43231363034B0360F3
:1022B8000121FFF795FF08BD00380240000C0240DD
:1022C800C82310B5436004460830FFF777FF04F1D0
:1022D8000C00FFF7E3FFA268536923F00203536180
:1022E800E268536923F00403536110BD426838B5AE
:1022F800536943F4807353614FF4E13104463B481A
:10230800FFF7F0FB3A493948FFF70DF839493748E4
:10231800FFF709F8FEF7C6FE374905463348FFF7C9
:1023280002F829463148FFF729F834492F48FEF7C3
:10233800FAFF3348FFF7ECFD32492C48FEF7F3FF6C
:1023480031492A48FEF7EFFFC8212D48FFF740FD25
:102358002E492648FEF7E7FF2D48FFF7B1FF2D4924
:102368002248FEF7E0FF2A492B48FFF731FB1F48B8
:102378002A49FEF7D8FF2848FFF715FB002832D076
:1023880027491A48FEF7CFFF1C491848FEF7CBFF2C
:102398002448FFF71DF824491448FEF7C4FF2348D2
:1023A800FFF762F922491148FEF7BDFF2148FFF700
:1023B8003DFC21490D48FEF7B6FF2048FFF766F8B7
:1023C8001F490A48FEF7AFFF1E490848FEF7ABFF52
:1023D8001D490648FEF7A7FF6268536923F4807316
:1023E8005361002038BD1949CBE700BFD80200204F
:1023F800692800087528000889280008732800083B
:10240800DC020020A7280008B8280008CF28000808
:10241800A0010020C6280008B0010020D528000827
:10242800E928000850010020F42800080C020020C8
:1024380003290008540100201A290008F40100208B
:10244800352900087228000844290008EE280008E9
:1024580070B5044600F10C0604F108053046002169
:10246800FFF7BEFE28460021FFF74AFE304601214D
:10247800FFF7B6FE28460021FFF742FE304601214D
:10248800FFF7AEFE28460121FFF73AFE2046BDE8D9
:102498007040FEF7FFBD70B5044600F10C0604F16C
:1024A800080530460121FFF79BFE28460121FFF76A
:1024B80027FE30460121FFF793FE28460021FFF74B
:1024C8001FFE30460021FFF78BFE28460121FFF74B
:1024D80017FE2046BDE87040FEF7DCBD2DE9F84345
:1024E800044600F108073846894604F10C06012124
:1024F800FFF706FE00213046FFF772FE2046FEF782
:10250800C9FD4FF009080025B8F1010817D00121CD
:102518003046FFF765FE2046FEF7BCFDA3681B6941
:102528006D009B073046EDB24FF0000148BF45F003
:102538000105FFF755FE2046FEF7ACFDE4E7B9F1CB
:10254800000F1ED041463846FFF7DAFD2046FEF759
:10255800A1FD01213046FFF743FE2046FEF79AFD14
:1025680000213046FFF73CFE2046FEF793FD01218F
:102578003846FFF7C5FD2046FEF78CFD2846BDE826
:10258800F8830121DFE72DE9F04104460F460926CB
:1025980000F10C0500F10808013E1AD00021284678
:1025A800FFF71EFE2046FEF775FD3B064CBF0121D6
:1025B80000214046FFF7A4FD2046FEF76BFD0121F0
:1025C8002846FFF70DFE7F002046FEF763FDFFB2A9
:1025D800E2E731462846FFF703FE2046FEF75AFD9C
:1025E80001214046FFF78CFD2046FEF753FD0121EF
:1025F8002846FFF7F5FD2046FEF74CFDA368314657
:102608001F692846FFF7ECFD2046FEF743FD87F0DB
:102618000200C0F34000BDE8F081000038B52F4D3E
:102628002F4C2846FFF7B0FC28462E4D2E4922464F
:10263800FEF741FD2846FEF761FE28462B4D2C4942
:102648002246FEF738FD2846FFF780FB2846294D2D
:1026580029492246FEF72FFD2846FEF7CFFC2846DB
:10266800264B40F8083BFFF7A9FD05F10C00FFF7E2
:1026780015FE2846224D23492246FEF71CFD284612
:10268800FFF7CAF82846204D20492246FEF713FDD9
:102698002846FEF797FE28461D4D1E492246FEF79E
:1026A8000AFD2846FEF742FF28461B4D1B492246D5
:1026B800FEF701FD2846FFF765FA2846184D194927
:1026C8002246FEF7F8FC2846FEF79EFE22462846DC
:1026D8001549BDE83840FEF7EEBC00BF9801002060
:1026E80008000020D8020020591F0008DC02002042
:1026F800DD120008A0010020571D00083828000836
:10270800B0010020691F00085001002011180008BE
:102718000C020020BD130008540100201515000804
:10272800F40100207D1B0008DF13000800000000F2
:102738000000000001020304060708090000000069
:102748000102030401040208001010100410101004
:102758000210101008000000000000000000000037
:10276800F10F0008F30F0008F50F0008FB0F000831
:10277800FF0F00080001020304050607060504030D
:10278800020100000000000000000000C310000863
:10279800C5100008D5100008000000000000000067
:1027A800DD120008F112000800000000000000001F
:1027B800BD130008BF13000800000000000000005F
:1027C800DF130008E1130008EF1300080000000001
:1027D8000000000017150008191500080000000087
:1027E80000000000151500082715000895170008B7
:1027F800000000000000000011180008131800086D
:10280800A91900080000000000000000D11A000803
:10281800D31A000800000000000000007D1B00081B
:102828007F1B0008A51C0008000000000000000035
:102838009F24000859240008C92200088F25000891
:10284800E5240008691F00087D1F000809657374E6
:102858005F696D755F73656E736F720A00203A2049
:10286800000A0A0A23232323230A0A0A007465722A
:102878006D696E616C20696E697420646F6E650A9B
:10288800006D656D20696E697420646F6E652C201B
:1028980068656170207374617274206174200074BB
:1028A800696D657220696E697420646F6E650A00CF
:1028B80064656C617920323030206D732000693294
:1028C8006320696E697420646F6E650A00696D75AE
:1028D80020696E697420646F6E652077697468205A
:1028E80000747275650066616C73650061646320CD
:1028F800696E697420646F6E650A006C696E652084
:1029080073656E736F7220696E697420646F6E658B
:102918000A0064697374616E63652073656E736F12
:102928007220696E697420646F6E650A006B657940
:1029380020696E697420646F6E650A007379737418
:10294800656D20696E697420646F6E650A00000009
:102958000000000000000000591F00085B1F00086D
:042968002526000818
:04296C000024F4004F
:04000005080001E509
:00000001FF
