:020000040800F2
:1000000000000420E5010008C9010008DB01000828
:10001000C9010008C9010008C9010008000000006A
:10002000000000000000000000000000C9010008FE
:10003000C901000800000000C9010008C90100084A
:10004000C9010008C9010008C9010008C901000868
:10005000C9010008C9010008C9010008C901000858
:10006000C9010008C9010008C9010008C901000848
:10007000C9010008C9010008C9010008C901000838
:10008000C9010008C9010008C9010008C901000828
:10009000C9010008C9010008C9010008C901000818
:1000A000C9010008C9010008C9010008C901000808
:1000B000B5210008C9010008C9010008C9010008EC
:1000C000C9010008C9010008C9010008C9010008E8
:1000D000C9010008C9010008C9010008C9010008D8
:1000E000C9010008C9010008C9010008C9010008C8
:1000F000C9010008C9010008C9010008C9010008B8
:10010000C9010008C9010008C9010008C9010008A7
:10011000C9010008C9010008C9010008C901000897
:10012000C9010008C9010008C9010008C901000887
:10013000C9010008C9010008C9010008C901000877
:10014000C9010008C9010008C9010008C901000867
:10015000C9010008C9010008C9010008C901000857
:10016000C9010008C9010008C9010008C901000847
:10017000C9010008C9010008C90100080000000009
:10018000C9010008C9010008C9010008C901000827
:10019000C9010008C9010008C9010008C901000817
:1001A000C9010008C9010008C9010008C901000807
:1001B000C9010008C9010008C9010008C9010008F7
:0801C000C9010008C901000893
:1001C800684620F007018D4601B5BDE80140854627
:1001D8007047684620F007018D46FEE71549164A24
:1001E8001648521A921000239A4217D1144A154EF3
:1001F800D2F88830144C43F47003C2F88830D2F82F
:100208003432A41B43F04043C2F83432A410002512
:10021800A54209D100F01AF801F0ACB950F8234012
:1002280041F823400133DFE756F825309847013578
:10023800EEE700BF0000002004000020042D0008A5
:1002480000ED00E0042D0008082D00080F49D1F842
:10025800883043F47003C1F888300D4B1A680020C9
:1002680042F001021A6098601A6822F0847222F43F
:1002780080321A60074A5A601A6822F480221A608B
:10028800D8604FF000638B60704700BF00ED00E05E
:10029800003802401030002470472DE9F041069DD7
:1002A80004460F46164698462168CA6937EA02038B
:1002B8000CBF01220022B24202D00020BDE8F0812A
:1002C8006B1CF2D09DB923681A6822F4D0721A60A8
:1002D8009A6822F001029A60202384F8693084F831
:1002E8006A30002384F868300320BDE8F08100F00C
:1002F80009FAA0EB08008542D6D8E4E738B50446E9
:1003080005682169A268C36928680A4361690A43C4
:1003180093491A4301400A432A606A68E168206ADF
:1003280022F440520A436A60A968A26921F4306144
:1003380002430A43AA608B4A954219D102F59432C6
:100348008949D2F8902002F00302B3F5004F8A5C85
:1003580040F0B380082A00F2AD80DFE812F02600F2
:100368007B00E900AB00F500AB00AB00AB00FB0085
:100378007E4A954207D102F5FA327D49D2F890209B
:1003880002F00C02E1E77B4A95422BD102F5F832E4
:10039800D2F8902002F03002102A00F0D28016D84D
:1003A800DAB9B3F5004F40F09F8000F015FF61689F
:1003B8004A0802EB4003B3FBF1F39BB2002023F0A1
:1003C8000F022168C3F342031343CB6038BD202AD0
:1003D80000F0AB80302A00F0BA80B3F5004F69D046
:1003E800012038BD644A95420ED102F5F632D2F8A2
:1003F800902002F0C002402A00F0A380D0D9802AC1
:1004080000F09380C02AE6E75C4A954210D102F5D5
:10041800F432D2F8902002F44072B2F5807F00F0F6
:100428009080BDD9B2F5007F7FD0B2F5407FD2E78A
:10043800534A954217D102F59232D2F8902002F42D
:100448004062B2F5806F7CD007D8002AC5D1B3F5D9
:10045800004F54D100F0D0FEA9E7B2F5006F64D088
:10046800B2F5406FB7E7474A95420FD102F5E0323F
:10047800D2F8902002F44052B2F5805F61D08FD953
:10048800B2F5005F51D0B2F5405FA4E73E4A95420D
:10049800A3D102F5DE32D2F8902002F44042B2F540
:1004A800804F4ED07FF67CAFB2F5004F3DD0B2F50D
:1004B800404F90E70120002381E7082A90D801A344
:1004C80053F822F0F1040008070500080D0500089C
:1004D800E903000823050008E9030008E903000808
:1004E800E90300082905000800F076FE636800EBC0
:1004F8005300B0FBF3F080B2E860002038BD00F094
:100508007BFEF3E76268530803F5740303F51053A1
:10051800B3FBF2F39BB2EB60EFE700F0A3FDE5E776
:100528006268530803F50043F2E7B3F5004FE9D1D9
:100538006068430803F1F47303F59043B3FBF0F3E9
:100548003BE7B3F5004FE8D100F08CFD2FE7B3F59A
:10055800004FE5D16068430803F58033EEE700BF3C
:10056800F369FFEF00100140C42A0008004400406E
:10057800C82A000800480040004C004000500040D5
:100588000014014000780040007C0040436ADA070C
:1005980010B506D50168846A4A6822F400322243FD
:1005A8004A609C0706D50168C46A4A6822F480320A
:1005B80022434A60590706D50168046B4A6822F449
:1005C800802222434A601A0706D50168446B4A68AC
:1005D80022F4004222434A60DC0606D50168846B97
:1005E8008A6822F4805222438A60990606D50168F7
:1005F800C46B8A6822F4005222438A605A060FD5D7
:100608000168046C4A6822F480122243B4F5801F02
:100618004A6005D14A68446C22F4C00222434A6009
:100628001B0606D50268816C536823F400230B432C
:10063800536010BD37B504460025C56600F062F862
:10064800226812681207034609D42023002084F880
:10065800693084F8680084F86A3003B030BD6FF000
:100668007E4200924FF400112A462046FFF715FEFD
:100678000028EAD00320F0E710B5044660B390F8EC
:10068800693003F0FF021BB980F86820FFF704FE09
:100698002268242384F86930136823F00103136067
:1006A8002046FFF72BFE012816D0636A13B12046B7
:1006B800FFF76CFF23685A6822F490425A609A68E0
:1006C80022F02A029A601A6842F0010220461A6053
:1006D800BDE81040FFF7AEBF012010BD10B5084BB4
:1006E800044618684FF47A73B0FBF3F000F050F842
:1006F800002221464FF0FF3000F00AF8002010BD1C
:1007080000000020014B1868704700BF300300202C
:10071800174B30B5DC68C4F30224C4F10703251D68
:10072800042B28BF0423062D4FF0010505FA03F317
:1007380003F1FF338CBF033C00241940A14005FAA4
:1007480004F4013C2240002842EA01024FEA021266
:10075800AFBF00F1604000F00F00064BD2B2A5BF5A
:1007680000F56140D2B21A5480F8002330BD00BFB2
:1007780000ED00E014ED00E04209012300F01F0045
:1007880003FA00F0014B43F82200704700E100E053
:100798000138B0F1807F0AD2064B074A5860F02131
:1007A80082F823100020072298601A607047012001
:1007B800704700BF10E000E000ED00E0194B37B5CE
:1007C8001A6C194C42F080521A641B6C03F0805367
:1007D8000193019B236843F480332360FFF792FF62
:1007E80005466368DA030CD5236843F400332360B5
:1007F800FFF788FF0C4C054663689B030AD5002069
:1008080006E0FFF77FFF401BB0F57A7FE9D90320A8
:1008180003B030BDFFF776FF401BB0F57A7FEBD908
:10082800F5E700BF00380240007000407047000044
:1008380010B50446002800F09980036C23B943647E
:1008480080F83C30FFF7F2FF236CDB0600F18C8068
:10085800236C23F4885323F0020343F00203236438
:10086800434B5A6822F440325A605A6861680A4316
:100878005A60236821695A6822F480725A605A685B
:1008880042EA01225A605A68A16822F040725A600E
:100898005A680A435A609A68E16822F400629A60CA
:1008A8009A680A439A603349A26A8A4250D0996882
:1008B80021F07061996099680A439A609A68E16AC0
:1008C80022F040529A609A680A439A609A68A1692D
:1008D80022F002029A609A6842EA41029A60226A09
:1008E800002A3DD05A68616A42F400625A605A6828
:1008F80022F460425A605A68013942EA41325A6029
:10090800DA6AE16922F47002DA62DA6A013942EAE3
:100918000152DA629A68216B22F400729A609A682E
:1009280042EA41229A609A68616922F480629A6078
:100938009A68002042EA81229A606064236C23F05E
:10094800030343F001032364002384F83C3010BD03
:100958009A6822F070629A609A6822F04052B4E76E
:100968005A6822F40062CAE70120EDE7012010BDB1
:10097800002301400100000F82B00023019390F88A
:100988003C30012B4ED0012380F83C3003689A6834
:10099800D10705D59A68D20714D4002002B0704751
:1009A8009A68214942F001029A60204A1268B2FB13
:1009B800F1F202EB42020192019A002AEAD0019A6E
:1009C800013AF8E7026C22F4E06222F0010242F4F4
:1009D800807202645A68510541BF026C22F4405289
:1009E80042F480520264026C12F480521CBF426CC2
:1009F80022F006024264002280F83C206FF02202B6
:100A08001A600B4A5268D20608D1986810F0405014
:100A1800C3D19A6842F080429A60BFE7054A934280
:100A2800BBD1F2E70220B9E740420F0000000020E6
:100A38000023014000200140F7B50023019390F8FE
:100A48003C30012B71D00D6804688A680123092D98
:100A580080F83C30AEB231D906EB46031E3BE7685E
:100A68004FF0070E0EFA03FE27EA0E07E7603D4F28
:100A7800BD420DBFE368E76802FA03F343EA026385
:100A880018BF3B43E3604A68062A4FEA820325D829
:100A98001344676B591F1F238B4027EA03036363C3
:100AA800626B06FA01F1114361632F4B9C4234D00B
:100AB800002380F83C30184603B0F0BD276905EBE9
:100AC80045034FF0070E0EFA03FE27EA0E072761CB
:100AD800276902FA03F33B432361D4E70C2A0ED8B3
:100AE8001344216BA3F123021F23934021EA03033C
:100AF8002363236B06FA02F21A432263D5E71344F1
:100B0800E16A413B1F229A4021EA0202E262E26A5C
:100B180006FA03F11143E162C7E7122D07D1134A20
:100B2800536843F480035360C2E70220C4E70D4BC7
:100B38009D4201D0112DBBD10C494A689D4242F417
:100B480000024A60B4D10A4B0A4A1B68B3FBF2F2AE
:100B58000A2353430193019B002BA9D0019B013B1E
:100B6800F8E700BF120000100020014000230140F8
:100B78000000002040420F002DE9F04F85B00B68BF
:100B8800DFF8A481664ADFF8A491019300234FF0AF
:100B9800010E019C0EFA03FE0EEA0406B64540F06B
:100BA800AA804C6824F01007022F16D14FEAD30A06
:100BB80000EB8A0A03F0070BDAF820504FEA8B0B98
:100BC8004FF00F0C0CFA0BFC25EA0C0C0D6905FA1A
:100BD8000BF545EA0C05CAF820504FEA430A0325ED
:100BE800D0F800B005FA0AF5ED4304F0030C0BEA5F
:100BF800050B0CFA0AFC013F4CEA0B0C012FC0F85C
:100C080000C011D8876807EA050BCF6807FA0AFC05
:100C18004CEA0B078760476827EA0E0EC4F30017F3
:100C28009F4047EA0E074760C7683D408F6807FA4C
:100C38000AF73D43C560E5005DD5D8F8445045F452
:100C48008045C8F84450D8F8445023F0030707F10A
:100C5800804705F4804507F59C37039503F0030E9C
:100C6800039DD7F808A04FF00F0C4FEA8E0E0CFA30
:100C78000EF52AEA050C2B4DA84243D005F58065F0
:100C8800A84241D005F58065A8423FD005F58065AA
:100C9800A8423DD005F58065A8423BD048453BD0E9
:100CA80005F50065A84239D005F58065A84214BF4E
:100CB8000825072505FA0EF545EA0C05BD601568F7
:100CC800F74314F4803F0CBF3D4035431560556829
:100CD80014F4003F0CBF3D4035435560956814F44B
:100CE800801F0CBF3D4035439560D568A40254BFB2
:100CF8003D403543D5600133102B7FF448AF05B034
:100D0800BDE8F08F0025D5E70125D3E70225D1E717
:100D18000325CFE70425CDE70525CBE70625C9E759
:100D2800003C01400000024000380240001402402C
:100D38002DE9F341044618B9012002B0BDE8F0815D
:100D48000368DD0710D42368980762D4236819075D
:100D580000F1A88023685A0700F1C980A269002A17
:100D680040F034810020E8E7964B9A6802F00C02C4
:100D7800042A07D09A6802F00C02082A0AD15B6894
:100D8800590207D58F4B1B689A03DCD56368002B83
:100D9800D9D1D1E763688B4DB3F5803F13D12B6868
:100DA80043F480332B60FFF7ADFC864E074641F2D3
:100DB800883533689B03C6D4FFF7A4FCC01BA84240
:100DC800F7D90320B9E7ABB92B6823F480332B603C
:100DD8002B6823F480232B60FFF794FC41F28837BB
:100DE80006462B689803AED5FFF78CFC801BB842EB
:100DF800F7D9E6E7B3F5A02F2B6803D143F4802396
:100E08002B60CCE723F480332B602B6823F48023FA
:100E1800C8E76C4B9A6812F00C0F07D09A6802F07A
:100E28000C02082A12D15B6859020FD4654B1A6864
:100E3800920703D5E268012A7FF47EAF1A68216918
:100E480022F0F80242EAC1021A607FE7E3685D4DCA
:100E5800BBB12B6843F001032B60FFF753FC064638
:100E68002B689F0707D52B68226923F0F80343EA0C
:100E7800C2032B606AE7FFF745FC801B0228EFD905
:100E88009FE72B6823F001032B60FFF73BFC064626
:100E98002B6898077FF55AAFFFF734FC801B0228B0
:100EA800F6D98EE76369474D83B16B6F43F0010351
:100EB8006B67FFF727FC06466B6F9B073FF54AAF4A
:100EC800FFF720FC801B0228F6D97AE76B6F23F026
:100ED80001036B67FFF716FC06466B6F9F077FF5EC
:100EE80039AFFFF70FFC801B0228F6D969E7354BAD
:100EF8001A6CD00027D41A6C42F080521A641B6C0A
:100F080003F080530193019B01262F4D2B68D905CF
:100F18001BD5A3682B4D012B27D12B6F43F0010361
:100F28002B67FFF7EFFB274F804641F288353B6F71
:100F38009B073FD5002E3FF411AF224A136C23F0D4
:100F4800805313640AE70026DFE72B6843F48073B5
:100F58002B60FFF7D7FB07462B68DA05D9D4FFF7D4
:100F6800D1FBC01B6428F7D92BE7ABB92B6F23F053
:100F780001032B672B6F23F004032B67FFF7C2FBDA
:100F880041F2883807462B6F9807D3D5FFF7BAFB8D
:100F9800C01B4045F7D914E7052B2B6F03D143F04D
:100FA80004032B67B9E723F001032B672B6F23F0AA
:100FB8000403B5E7FFF7A6FBA0EB0800A842B6D9E3
:100FC800FFE600BF0038024000700040244DAB68C7
:100FD80003F00C03082B3FF4AFAE2B68022A23F072
:100FE80080732B602ED1FFF78DFB06462B68990185
:100FF80022D4226AE3691343626A43F0005343EA46
:101008008213E26A43EA0263A26A154C5208013A63
:1010180043EA02436B602B6843F080732B60FFF751
:1010280071FB054623689A013FF59CAEFFF76AFB02
:10103800401B0228F6D9C4E6FFF764FB801B022890
:10104800D4D9BEE6FFF75EFB04462B689B017FF50B
:1010580089AEFFF757FB001B0228F6D9B1E600BF9F
:1010680000380240114B9A6802F00C02042A03D09F
:10107800082A03D00E4870470E4870475A685968C6
:101088005B684902C3F3881302F03F024CBF09486A
:101098000748B0FBF2F05843044B5B68C3F30143C5
:1010A80001335B00B0FBF3F0704700BF003802402B
:1010B8000024F40000127A002DE9F0410D460446A0
:1010C80010B90120BDE8F0813F4A136803F00F030F
:1010D8008B4228D32268960730D4D00736D43A4AB0
:1010E800136803F00F039D425AD32268510762D454
:1010F800130707D5354A2169936823F4604343EA07
:10110800C1039360FFF7AEFF304B314A9B68C3F3CE
:101118000313D35CD8402F4B18600F20FFF7DEFA7B
:101128000020BDE8F081136823F00F030B43136020
:10113800136803F00F039942C3D1CBE72349A06892
:101148008B6823F0F00303438B60C6E761681F4B8D
:1011580001291A681CD112F4003FB2D09A681B4EBC
:1011680022F003020A439A60FFF7CCFA41F288386A
:101178000746B368626803F00C03B3EB820FAED086
:10118800FFF7C0FAC01B4045F3D90320BDE8F08142
:10119800022902D112F0007FDFE712F0020FDCE72C
:1011A800136823F00F032B431360136803F00F0336
:1011B8009D4286D199E70549E0688B6823F4E0539E
:1011C80003438B6094E700BF003C024000380240B4
:1011D800AC2A000800000020044B054A9B68C3F3B2
:1011E8008223D35C034A1068D84070470038024015
:1011F800BC2A000800000020044B054A9B68C3F382
:101208004233D35C034A1068D84070470038024024
:10121800BC2A00080000002070470368DA6842F022
:101228000102DA601A6842F001021A600020704771
:10123800304A0368904212D0B0F1804F0FD0A2F527
:101248007C4290420BD002F58062904207D002F5B2
:101258008062904203D002F5784290421DD14A68DC
:1012680023F070031343234A904204D1CA6823F43D
:101278004073134328E0B0F1804FF7D01E4A9042E4
:10128800F4D002F580629042F0D002F5806290427C
:10129800ECD002F578429042E8D0184A9042E5D066
:1012A80002F580629042E1D002F580629042DDD082
:1012B800A2F598329042D9D002F580629042D5D0FA
:1012C80002F580629042D1D04A6923F0800313432B
:1012D80003608B68C3620B688362064B984206D032
:1012E80003F58063984202D00123436170470B697C
:1012F8000363F9E70000014000040040004001409A
:1013080010B50446A0B190F83D3003F0FF021BB9B8
:1013180080F83C20FFF780FF022384F83D302068E6
:10132800211DFFF785FF012384F83D30002010BD03
:10133800012010BD70477047142343607047002098
:101348007047002070470000014B0360704700BFE2
:10135800E02A000870472DE9F0411D46036804465D
:101368001B6816460F46984723683946DB682046AF
:10137800984723683146DB68204698472368294602
:10138800DA6820469047236820465B68BDE8F0414C
:101398001847036870B504461B6816460D469847FB
:1013A80023682946DB682046984723683146DB686E
:1013B80020469847236820461B689847236845F0CD
:1013C8000101DB6820469847236800211B692046F5
:1013D8009847236805465B6820469847284670BDAD
:1013E80042680023934202D000BF0133FAE77047F6
:1013F800014B0248186070470400002034030020A5
:10140800704700207047704710B514210446FFF755
:10141800F7FF204610BD0000836810B50446D3B915
:101428004268536923F400535361A368052B27D1FD
:10143800E368322203F00701B3FBF2F30F22B3FB98
:10144800F2F2C2EB02129B1A274AD35C99426368F4
:101458005A691AD211E0012B04D14268536943F446
:101468000053E1E7022B13D1C1686423B1FBF3F207
:1014780003FB121243683AB95A6942F400525A619E
:10148800E3680133E36010BD5A6922F40052F6E7BD
:10149800042B10D1C1683223B1FBF3F203FB121203
:1014A800436822B95A6942F400525A61BDE75A6941
:1014B80022F40052F9E7032BB7D10C4800F058FE8C
:1014C800236903F54873984202D90123A360ACE766
:1014D800E1686422B1FBF2F302FB1313182B636873
:1014E8005A69E5D8DFE700BFF42A00082C0300207A
:1014F80010B500230446C3608160024800F038FE3E
:10150800206110BD2C030020164A174B10B503604C
:10151800136B6FEA53236FEA43231363134B436040
:101528009A6822F040629A609A6842F040629A6033
:101538005A6822F400525A605A685A601A6822F0AF
:1015480040621A601A6842F0806204461A600321F9
:10155800FFF7CEFF002301222146054800F0D4FD05
:10156800204610BD003802400C2B0008000C024039
:101578002C0300207FB500F023F80E4801F074F822
:1015880001A8FFF7C1FF4FF448710B4800F0FCFDBC
:10159800052101A8FFF7ACFF084800F0DFF9042196
:1015A8000DEB0100FFF7A4FF4FF0FF31014800F0F9
:1015B800FDFEFEE7E40100202C030020400200208D
:1015C80010B592B0012306934FF4803307934FF47C
:1015D80080030D9304230E934FF49C7302240F93FE
:1015E80006A80D230C9410941193FFF7A1FB00B1EA
:1015F800FEE7FFF7E3F800B1FEE70F2301934FF48E
:10160800A0530390049307214FF4805301A8029438
:101618000593FFF751FD00B1FEE712B010BD0000C1
:1016280010B5034B0360044600F04AFC204610BD89
:10163800202B000810B50446FFF7F2FF20460421CE
:10164800FFF7DEFE204610BD10B5044600F040FC52
:10165800014B2360204610BD202B000838B50546F5
:101668004C1E14F8011F19B1284600F075FCF8E764
:1016780038BDFFF7F3BF7FB50B1E4FF000024FF0E8
:101688000A01BABF5B42012414468DF80F200E46AA
:1016980004AA93FBF6F50A4406FB1533303302F827
:1016A8000C3C4A1ED2B22B4665B92CB104AB13448C
:1016B8002D2103F80C1C114601AB1944FFF7CEFF8E
:1016C80004B070BD1146E3E730B585B000230A22A7
:1016D8008DF80F301546B1FBF5F405FB141304A97A
:1016E8001144303301F80C3C531EDBB221462CB9AF
:1016F80001AB9918FFF7B2FF05B030BD1A46EAE70B
:10170800704710B55C210446FFF77AFE204610BDED
:10171800014B0360704700BF302B000810B5041D53
:10172800C16400F14C012046FFF786F92046FFF717
:1017380023F9044B1A68920701D400BFFAE7D86C62
:1017480010BD00BF00200140164BF7B55A6C42F49B
:1017580080725A645B6C03F480730025044601268A
:101768000193071D104B43608560C5604561C661E4
:10177800456285620563C5620561066245638661E7
:101788003846FFF755F8E66426656665A56504F1F1
:101798004C013846FFF750F908B100BFFDE703B028
:1017A800F0BD00BF00380240002001402DE9F041A3
:1017B8002C4A2D4D136B86B006AC022643F0070366
:1017C800136344F8146D032302932146002328462B
:1017D8000393FFF7D1F90423214628460193FFF725
:1017E800CBF908232146284601931027FFF7C4F9AF
:1017F800214628460197FFF7BFF94023214628468E
:101808000193FFF7B9F98023214628460193FFF792
:10181800B3F90197154F21463846FFF7ADF94FF058
:10182800200821463846CDF804800127FFF7A4F99F
:10183800214628460197FFF79FF92146284605F5D6
:101848008065CDF80480FFF797F92146284601976F
:10185800FFF792F9214628460196FFF78DF906B061
:10186800BDE8F08100380240000002400008024054
:1018780010B50446FFF79AFF2046BDE81040FFF771
:1018880063BF704710B518210446FFF7B9FD20461D
:1018980010BD027B836832B1002202735A6942F498
:1018A80080725A617047012202735A6922F4807269
:1018B800F7E700001C4A1D4B0360136B30B540F27C
:1018C800FF152B4313631A4B43609C6824F0C00434
:1018D8009C609C6844F0C0049C601C6824F0C004B0
:1018E8001C601C681C60DC6844F04004DC60136BFE
:1018F8002B4313630F4B83609A6822F440329A603B
:101908009A6842F440329A605A6822F480725A60A7
:101918005A685A601A6822F440321A601A6842F407
:1019280080321A6030BD00BF00380240402B0008EA
:1019380000100240000002404FF0FF3310B5436131
:1019480000230446037301464FF4FA72024800F07C
:10195800DBFB206110BD00BF2C030020436870B57D
:1019680004461A69120701D500BFFAE7012363612B
:101978006422217C0F480F4D00F0EEFB0D4800F06B
:10198800F7FB00F5FA6663681B691B070FD4094863
:1019980000F0EEFBB042F6D96369012BF3D1322295
:1019A800217C284600F0D8FB02236361EBE76069DD
:1019B80070BD00BF2C03002070477047704710B5FA
:1019C80024210446FFF71CFD204610BD10B5242134
:1019D8000446FFF715FD204610BD10B5D02104467A
:1019E800FFF70EFD204610BD1449154B03600B6B25
:1019F8006FEA53236FEA43230B63124B43609968E2
:101A080021F440419960996841F4404199605968CE
:101A180021F08001596059685960196821F44041E2
:101A28001960196841F480411960074B0361074B3D
:101A380043638365C367C0F8A0307047003802402D
:101A4800742B000800100240542B0008642B000877
:101A58004268536923F080032DE9F041642104466C
:101A680053613348DFF8CC8000F08EFB64213048A6
:101A780000F08AFB012363610223A3610323E3616E
:101A880004232362062363620723A3620E23E3620F
:101A980004F114050F23236304F134072E4656F886
:101AA800041B4046FFF73AFEBE427064F7D16268F5
:101AB8001F4853691F4F43F080035361642100F0AE
:101AC80063FB55F8041B3846FFF728FE6B6CB542DC
:101AD800A0EB0300A866F4D104F1A40304F1C40147
:101AE800002243F8042B9942FBD16FF0FF03A36354
:101AF8006FF0BF03E3636FF07F0323646FF03F036E
:101B080063644023A3648023E364C02323654FF404
:101B1800807363654FF4C873A360227300230422A3
:101B28002146034800F0F0FA0020BDE8F08100BF2C
:101B38002C0300205001002000EB810030B5826B9F
:101B4800D0F8A45002FB05F481B1D0F8A030426B64
:101B5800062902FB03422B440BD8D0F8A810C06B0F
:101B68000B4400FB012292FBF3F030BD62006B00D6
:101B7800F3E722442B44F6E7826800F1A40300202F
:101B880053F8041B8A4204DB01300828F8D14FF0CF
:101B9800FF3070472DE9F84FDFF870A0DFF870903C
:101BA800044600F1140500F134084FF0000B55F815
:101BB800041B5046FFF7B2FD6B6CC01A09FB00F01E
:101BC800AB6E90FBF3F010F57A7054BFC5F88C003B
:101BD800C5F88CB04545EAD12046FFF7CDFF431C38
:101BE800014611D02046FFF7A7FF01230646074606
:101BF80084F8C430012384F8C530C4F8C860C4F838
:101C0800CC702373BDE8F88F0023F1E75001002062
:101C180018FCFFFF704710B544210446FFF7F0FB9E
:101C2800204610BD014B0360704700BF882B000899
:101C38002DE9F0410446006C03681B688846984704
:101C4800206C0368D421DB689847206C036819214D
:101C5800DB689847206C03681B689847206C03680A
:101C6800D521DB689847206C036801211B699847D8
:101C7800000207B2206C036801211B6998470743DB
:101C8800206C036801211B699847000206B2206C8A
:101C9800036801211B6998470643206C03680121EA
:101CA8001B699847000205B2206C036800211B6974
:101CB80098470543206C03685B683FB236B22DB283
:101CC8009847B8F1000F08D0A36A3B44A362E36ABF
:101CD8003344E362236B2B442363A36AE169226BD9
:101CE800E06AFB1AAD1A2361192293FBF2F301EBA8
:101CF8004303E361236AA561301A606190FBF2F047
:101D080003EB40002062636A206C95FBF2F503EB5D
:101D18004505036865621B689847206C0368D421F1
:101D2800DB689847206C03682921DB689847206C9A
:101D380003681B689847206C0368D521DB689847BF
:101D4800206C036801211B699847000207B2206CC8
:101D5800036801211B6998470743206C0368012128
:101D68001B699847000206B2206C036801211B69B1
:101D780098470643206C036801211B6998470002B5
:101D880005B2206C036800211B6998470543206C45
:101D980003685B6898473FB236B22DB2012367608B
:101DA800A660E56084F83C30BDE8F0810021FFF7CB
:101DB8003FBF406B003018BF0120704711F1FF3161
:101DC80001D300BFFAE7704738B504461022084629
:101DD8002164A823D421FFF7BEFA0023236163619D
:101DE800A361A362E3622363E3612362636242F255
:101DF80010712046FFF7E2FF0F226363D421206CA5
:101E0800FFF7C7FA682804BF012363631022A823D9
:101E1800D421206CFFF79FFA38231E22D421206C8E
:101E2800FFF799FA00232E22D421206CFFF793FAAA
:101E380000231222D421206CFFF78DFA6023202280
:101E4800D421206CFFF787FA38231F22D421206C75
:101E5800FFF781FA42F210712046FFF7AFFF002129
:101E68002046FFF7E5FE0023A3634FF47A750121AE
:101E78002046FFF7DDFE64212046FFF79FFF013D66
:101E8800F5D14FF47A72A36AE56193FBF2F3256208
:101E9800A3626562E36A656093FBF2F3A560E3629F
:101EA800E560236B054893FBF2F3214623630A227E
:101EB8002B4600F029F984F83C5038BD2C0300204B
:101EC800704710B504210446FFF79AFA204610BD62
:101ED800014B0360704700BF9C2B00081B4B1A6B1B
:101EE800F0B542F001021A635A6C194DA3B042F0E2
:101EF80010025A644FF4007302240F460193072618
:101F0800012301A928460393029404940596FEF739
:101F180033FE4FF4806301A9284601930294059685
:101F2800FEF72AFE0B4B06930C2200230B9206A801
:101F38004FF400420797089309930A930C930D9264
:101F48000E930F93FEF798FB23B0F0BD00380240C4
:101F58000000024000100140034BDA69120601D468
:101F680000BFFAE79962704700100140704710B54A
:101F780038210446FFF744FA204610BD1249134B96
:101F880003600B6B6FEA53236FEA43230B63104B19
:101F980083619A6822F030029A609A6842F03002AF
:101FA8009A605A6822F004025A605A685A601A689D
:101FB80022F030021A601A6842F010021A605A6958
:101FC80022F004025A61704700380240AC2B000826
:101FD80000040240826938B55369002523F00403E0
:101FE800C561044653614FF480730562456285629A
:101FF800C5620563456343608360C36005744574C7
:1020080001462B461922034800F07EF8257528461C
:1020180038BD00BF2C03002000EB8202D36A126A8D
:102028009B1A23EAE3731022C3F5805393FBF2F360
:102038000A6802EB42021344042293FBF2F30B609A
:102048007047000038B5C569044615B1012D17D091
:1020580038BD05212648FFF761FB0821E0622448C6
:10206800FFF75CFB294620632148FFF757FBA2696D
:102078006063536943F0040353610123E36138BD8E
:1020880005211B48FFF74AFB082120621848FFF783
:1020980045FB002160621648FFF740FBA269A06279
:1020A800536923F00403536104F108010022204618
:1020B800FFF7B2FF2A46211D2046FFF7ADFF022297
:1020C80004F10C012046FFF7A7FFA268EF2A4FF0A2
:1020D800000304DCD12A257403DD637402E0237451
:1020E800FBE765740023E3610123237538BD00BF56
:1020F80050010020037D72B60BB10022027562B652
:102108001846704770477047F0B572B6114D0024F5
:102118004FF0FF304FF0140E2F460EFB04F605EB80
:10212800060CAE5926B9DCF80460002E08BF20461C
:102138000134102CF1D1441C0AD0C4B214256543D3
:102148007C1900267E516160A260E2602674637487
:1021580062B6F0BD100000200448142303FB0101FF
:102168000023CA608A600B74704700BF100000200B
:1021780082B072B6034B1B68019362B6019802B035
:10218800704700BF0C00002007B50246FFF7F0FFBC
:10219800014401911046FFF7EBFF019B984201D2E1
:1021A80000BFF7E703B05DF804FB0000F8B54FF097
:1021B80080431A69D20714D5194F4FF6FE721A6177
:1021C800002414263D4606FB0473DA6852B1DA6827
:1021D800013ADA600134102CF5D1124A1368013340
:1021E8001360F8BD9A68DA601A7CFF2A1FBF1A7C50
:1021F8000132D2B21A7406FB04F3EA18527C002AA0
:10220800E8D1EA580AB1EB58984706FB04535A68D4
:10221800002ADFD0586803689B689847DAE700BF50
:10222800100000200C00002010B592B00C46FEF7FC
:10223800D3FF002C08BF0124A0424FEA400328BF67
:10224800204607EE103A07EE900AB8EE477AF8EE05
:10225800677A1B49C7EE276A0A6C42F001020A64D2
:102268004FF080420292002402A806940494079436
:10227800FCEEE67A17EE903A1B0C5A1C07EE102A71
:10228800B8EEC77A0393C6EE877A9FED0E7A77EE9B
:10229800C77AFCEEE77ACDED017ABDF80420059205
:1022A800FFF72EF8224603211C20FEF731FA1C20E6
:1022B800FEF762FA02A8FEF7B0FF12B010BD00BF29
:1022C800003802400000803FF8B500220C4D14276A
:1022D80013464FF47A7607FB02F429190132102AC3
:1022E8002B514B608E60CB600B744B74F3D1054A55
:1022F8004FF47A7113600360FFF796FF62B6F8BD7A
:10230800100000200C000020704710B5082104467A
:10231800FFF776F8204610BD10B5034B036004465E
:10232800FFF718F8204610BDC02B000810B504466A
:10233800FFF7F2FF20461021FFF762F8204610BD94
:1023480010B5044621B10349FFF793F9204610BDA3
:102358000149F9E7E92C0008EE2C00081049114B57
:1023680003600B6B6FEA53236FEA43230B630E4B37
:1023780043609A6822F440329A609A6842F4403284
:102388009A605A6822F480725A605A685A601A68C9
:1023980022F440321A601A6842F480321A60704798
:1023A80000380240FC2C0008000002402DE9F843E8
:1023B80080460F462B482C492C4D2A4C2C4EFFF7B3
:1023C80058F94FF00109B9F1000F48D02846FFF736
:1023D80091FE0028F7D0D8F804206968536943F4BF
:1023E8008073002F53612046C8BF07F1FF37FFF7FE
:1023F80042F931462046FFF73CF9A9682046FFF725
:102408003AF931462046FFF734F9E9682046FFF7E4
:1024180032F931462046FFF72CF9297C2046FFF790
:102428008FFF3146FFF725F9697C2046FFF788FFC3
:102438003146FFF71EF90F492046FFF71AF9D8F879
:1024480004200D48536923F480735361C821FFF7B2
:102458009BFE17F1000918BF4FF00109B3E7BDE86B
:10246800F88300BF28030020F12B0008AC010020EE
:10247800EF2B0008112C00082C030020B9B90368C1
:102488009A6822F00C029A609A6842F00C029A60EC
:102498005A6822F002025A605A685A601A6822F092
:1024A8000C021A601A6842F004021A607047012987
:1024B8000ED103689A6822F00C029A609A6842F07A
:1024C8000C029A601A6822F00C021A601A68ECE78B
:1024D800022913D103689A6822F00C029A609A685C
:1024E80042F00C029A601A6822F00C021A601A680C
:1024F8001A60DA6842F00402DA607047052910D1E0
:1025080003689A6822F00C029A609A6842F00C02FA
:102518009A601A6822F00C021A601A6842F00802DF
:10252800C3E70429C2D103681A6822F00C021A60B2
:102538001A6842F00C02B8E7064A08B5136B6FEA4E
:1025480053236FEA43231363034B03600121FFF70F
:1025580095FF08BD00380240000C0240B9B9036875
:102568009A6822F030029A609A6842F030029A60C3
:102578005A6822F004025A605A685A601A6822F0AF
:1025880030021A601A6842F010021A607047012976
:102598000ED103689A6822F030029A609A6842F075
:1025A80030029A601A6822F030021A601A68ECE762
:1025B800022913D103689A6822F030029A609A6857
:1025C80042F030029A601A6822F030021A601A68E3
:1025D8001A60DA6842F01002DA607047052910D1F3
:1025E80003689A6822F030029A609A6842F03002D2
:1025F8009A601A6822F030021A601A6842F02002C3
:10260800C3E70429C2D103681A6822F030021A60AD
:102618001A6842F03002B8E7064A08B5136B6FEA49
:1026280053236FEA43231363034B03600121FFF72E
:1026380095FF08BD00380240000C0240C82310B5C1
:10264800436004460830FFF777FF04F10C00FFF7FA
:10265800E3FFA268536923F002035361E2685369F8
:1026680023F00403536110BD426853692DE9F0411A
:102678003E4C3F4FDFF84C8143F48073536105466D
:102688004FF4E1312046FFF729FC20463949FEF78F
:10269800F0FF39492046FEF7ECFFFEF7A9FE37495F
:1026A80006462046FEF7E5FF3146354E2046FFF741
:1026B8000BF831462046FEF7DCFF3846FFF704FEEC
:1026C80020463049FEF7D5FF20462F49FEF7D1FFB7
:1026D8003846C821FFF758FD2C492D4F2046FEF7F4
:1026E800C8FF4046FFF7AAFF20462A49FEF7C1FF68
:1026F80041463846FFF768FB27492046FEF7B9FFF1
:102708003846FFF756FB01462046FFF719FE3146CB
:10271800FEF7AFFF2148FFF7ABF821492046FEF747
:10272800A8FF2048FFF794F91F492046FEF7A1FFAC
:102738001E48FFF74FFC1E492046FEF79AFF1D482A
:10274800FFF7FAF820461C49FEF793FF20461B497D
:10275800FEF78FFF20461A49FEF78BFF6A68536918
:1027680023F4807353610020BDE8F0812803002022
:102778002C030020072C0008132C0008272C000825
:10278800112C0008452C0008562C00086D2C000858
:10279800FC010020642C0008732C00085001002064
:1027A800872C000858020020962C0008AC01002055
:1027B800AD2C000840020020C82C0008102C00088E
:1027C800D72C0008EC01002070B5044600F10C0677
:1027D80004F1080530460021FFF7C0FE2846002115
:1027E800FFF74CFE30460121FFF7B8FE28460021CE
:1027F800FFF744FE30460121FFF7B0FE28460121CD
:10280800FFF73CFE2046BDE87040FEF7E9BD70B515
:10281800044600F10C0604F1080530460121FFF7D3
:102828009DFE28460121FFF729FE30460121FFF7CA
:1028380095FE28460021FFF721FE30460021FFF7CC
:102848008DFE28460121FFF719FE2046BDE870409D
:10285800FEF7C6BD2DE9F843044600F108073846DF
:10286800894604F10C060121FFF708FE00213046D5
:10287800FFF774FE2046FEF7B3FD4FF00908002568
:10288800B8F1010817D001213046FFF767FE20464E
:10289800FEF7A6FDA3681B696D009B073046EDB2E5
:1028A8004FF0000148BF45F00105FFF757FE2046ED
:1028B800FEF796FDE4E7B9F1000F1ED04146384611
:1028C800FFF7DCFD2046FEF78BFD01213046FFF7C0
:1028D80045FE2046FEF784FD00213046FFF73EFE08
:1028E8002046FEF77DFD01213846FFF7C7FD20464B
:1028F800FEF776FD2846BDE8F8830121DFE72DE9DC
:10290800F04104460F46092600F10C0500F10808BD
:10291800013E1AD000212846FFF720FE2046FEF788
:102928005FFD3B064CBF012100214046FFF7A6FD95
:102938002046FEF755FD01212846FFF70FFE7F00D0
:102948002046FEF74DFDFFB2E2E731462846FFF785
:1029580005FE2046FEF744FD01214046FFF78EFDA7
:102968002046FEF73DFD01212846FFF7F7FD2046EA
:10297800FEF736FDA36831461F692846FFF7EEFDCE
:102988002046FEF72DFD87F00200C0F34000BDE8A9
:10299800F081000038B52F4D2F4C2846FFF7DEFC9C
:1029A80028462E4D2E492246FEF72BFD2846FEF7D7
:1029B8004BFE28462B4D2C492246FEF722FD284681
:1029C800FFF7A0FB2846294D29492246FEF719FDA5
:1029D8002846FEF7B9FC2846264B40F8083BFFF787
:1029E800ABFD05F10C00FFF717FE2846224D2349E1
:1029F8002246FEF706FD2846FFF714F92846204D23
:102A080020492246FEF7FDFC2846FEF781FE2846AF
:102A18001D4D1E492246FEF7F4FC2846FEF7E4FF4A
:102A280028461B4D1B492246FEF7EBFC2846FFF7BC
:102A3800A5FA2846184D19492246FEF7E2FC284611
:102A4800FEF738FF224628461549BDE83840FEF70C
:102A5800D8BC00BFE40100200800002028030020A3
:102A6800112300082C03002029160008EC0100207F
:102A78000F210008C02B0008FC01002021230008BA
:102A8800500100201D1C00085802002009170008EA
:102A9800AC010020C119000840020020751F000881
:102AA8008B18000800000000000000000102030469
:102AB80006070809000000000102030401040208D7
:102AC8000010101004101010021010100800000060
:102AD80000000000000000003D1300083F1300083C
:102AE80041130008471300084B13000800010203B4
:102AF80004050607060504030201000000000000A3
:102B0800000000000F140008111400082114000828
:102B18000000000000000000291600083D1600080B
:102B28000000000000000000091700080B1700084B
:102B380000000000000000008B1800088D18000835
:102B48009B1800080000000000000000C3190008DE
:102B5800C71900080000000000000000C51900089F
:102B6800D51900080000000000000000C119000885
:102B7800E31900089D1B0008000000000000000089
:102B88001D1C00081F1C0008B51D000800000000DF
:102B980000000000C91E0008CB1E0008000000004D
:102BA80000000000751F0008771F00084D2000086E
:102BB800000000000000000017280008D1270008C6
:102BC80045260008072900085D2800082123000879
:102BD80035230008096573745F696D755F73656EE9
:102BE800736F720A00203A2000096573745F646984
:102BF8007374616E63655F73656E736F720A000A42
:102C08000A0A23232323230A0A0A007465726D69BA
:102C18006E616C20696E697420646F6E650A006D60
:102C2800656D20696E697420646F6E652C20686517
:102C38006170207374617274206174200074696D0E
:102C4800657220696E697420646F6E650A00646538
:102C58006C617920323030206D7320006932632036
:102C6800696E697420646F6E650A00696D75206904
:102C78006E697420646F6E652077697468200061DE
:102C8800646320696E697420646F6E650A006C69FC
:102C98006E652073656E736F7220696E6974206447
:102CA8006F6E650A0064697374616E63652073658D
:102CB8006E736F7220696E697420646F6E650A00A6
:102CC8006B657920696E697420646F6E650A00739C
:102CD800797374656D20696E697420646F6E650A16
:102CE80000747275650066616C7365000000000011
:0C2CF80000000000112300081323000856
:042D04009D290008FD
:042D08000024F400AF
:04000005080001E509
:00000001FF
