:020000040800F2
:1000000000000420E5010008C9010008DB01000828
:10001000C9010008C9010008C9010008000000006A
:10002000000000000000000000000000C9010008FE
:10003000C901000800000000C9010008C90100084A
:10004000C9010008C9010008C9010008C901000868
:10005000C9010008C9010008C9010008C901000858
:10006000C9010008C9010008791D0008C90100087C
:10007000C9010008C9010008C9010008C901000838
:10008000C9010008C9010008C9010008C901000828
:10009000C9010008C9010008C9010008491D00087C
:1000A000C9010008C9010008C9010008C901000808
:1000B000CD210008C9010008C9010008C9010008D4
:1000C000C9010008C9010008C9010008C9010008E8
:1000D000C9010008C9010008C9010008C9010008D8
:1000E000C9010008C9010008C9010008C9010008C8
:1000F000C9010008C9010008C9010008C9010008B8
:10010000C9010008C9010008C9010008C9010008A7
:10011000C9010008C9010008C9010008C901000897
:10012000C9010008C9010008C9010008C901000887
:10013000C9010008C9010008C9010008C901000877
:10014000C9010008C9010008C9010008C901000867
:10015000C9010008C9010008C9010008C901000857
:10016000C9010008C9010008C9010008C901000847
:10017000C9010008C9010008C90100080000000009
:10018000C9010008C9010008C9010008C901000827
:10019000C9010008C9010008C9010008C901000817
:1001A000C9010008C9010008C9010008C901000807
:1001B000C9010008C9010008C9010008C9010008F7
:0801C000C9010008C901000893
:1001C800684620F007018D4601B5BDE80140854627
:1001D8007047684620F007018D46FEE71549164A24
:1001E8001648521A921000239A4217D1144A154EF3
:1001F800D2F88830144C43F47003C2F88830D2F82F
:100208003432A41B43F04043C2F83432A410002512
:10021800A54209D100F01AF801F0FAB850F82340C5
:1002280041F823400133DFE756F825309847013578
:10023800EEE700BF00000020040000205C2F00084B
:1002480000ED00E05C2F0008602F00080F49D1F88E
:10025800883043F47003C1F888300D4B1A680020C9
:1002680042F001021A6098601A6822F0847222F43F
:1002780080321A60074A5A601A6822F480221A608B
:10028800D8604FF000638B60704700BF00ED00E05E
:100298000038024010300024174A1849936803F0C8
:1002A8000C03042B10B50DD0082B0DD0144B0B608C
:1002B800114B144A9B68C3F30313D25C0B68D340F9
:1002C8000B6010BD104BF2E7546850685268630227
:1002D800C2F3881200F03F004CBF0B4B084BB3FB36
:1002E800F0F35343044A5268C2F301420132520008
:1002F800B3FBF2F3DBE700BF003802400000002048
:100308000024F400242B000800127A00FEE7000005
:10031800C378012B10B5044603D994211F48FFF771
:10032800F5FF63780F2B03D995211C48FFF7EEFFE3
:10033800A3780F2B03D996211848FFF7E7FFE37836
:100348002278FBB1164BD9686378C943C1F30221FF
:10035800C1F10400C0B283400F2040FA01F1A07837
:10036800DBB201400B430F491B018818DBB280F850
:1003780000335009012302F01F0203FA02F241F888
:10038800202010BD5309012102F01F0201FA02F2D8
:100398002033044941F8232010BD00BF342B000846
:1003A80000ED00E000E100E0012810B5084C09D993
:1003B80040F291110748FFF7A9FF236843F48033FF
:1003C800236010BD0028F8D1236823F48033F7E7B1
:1003D800007000405A2B0008012810B5084C09D9B4
:1003E8004FF4D6710748FFF791FF236843F40033B1
:1003F800236010BD0028F8D1236823F40033F7E701
:10040800007000405A2B000800F10043013B1F2BED
:1004180010B5044626D8164A22FA03F3DB0716D489
:1004280024F00043042B12D0082B10D0B4F5804FD1
:100438001AD0B4F5803F17D0B4F5003F14D0B4F506
:10044800402F11D040F275310A48FFF75FFF002CAA
:100458000ADA094BDB6803F03F031C4214BF012092
:10046800002010BD0228DBD1034B5B68F5E700BF15
:10047800038000805A2B0008007000400A2838B515
:1004880005460C4603D954210E48FFF73FFF0F2CB1
:1004980003D955210B48FFF739FF04F0FC0101F19E
:1004A800804101F59C3104F003038A689B000F200A
:1004B800984022EA00028A608A689D4015438D6050
:1004C80038BD00BF892B000838B5464B9842044612
:1004D8000D4636D0B0F1804F33D0A3F57C43984217
:1004E8002FD003F5806398422BD003F580639842A0
:1004F80027D003F58063984223D003F580639842A0
:100508001FD003F5704398421BD003F570539842EF
:1005180017D003F58063984213D003F5806398429F
:100528000FD0A3F5983398420BD003F58063984217
:1005380007D003F58063984203D0B1212A48FFF71A
:10054800E5FE6B6833F0100209D023F04002202A40
:1005580005D0402B03D0B2212348FFF7D7FEEB6824
:1005680033F4807206D0B3F5007F03D0B3211E4860
:10057800FFF7CCFE1B4A2368944212D002F5806232
:1005880094420ED0B4F1804F0BD0A2F58032944241
:1005980007D002F58062944203D002F5806294424B
:1005A80003D16A6823F070031343104A944207D0BA
:1005B80002F5806294421EBFEA6823F44073134335
:1005C8002360AB68E3622B68A362064B9C4203D0AE
:1005D80003F580639C4201D12B6923630123636186
:1005E80038BD00BF00000140BB2B000800100040D0
:1005F80038B5274B984204460D4637D0B0F1804FA6
:1006080034D0A3F57C43984230D003F580639842F8
:100618002CD003F58063984228D003F58063984274
:1006280024D003F58063984220D003F570439842A4
:100638001CD003F57053984218D003F58063984294
:1006480014D003F58063984210D0A3F598339842EC
:100658000CD003F58063984208D003F58063984274
:1006680004D040F2F9110B48FFF750FE012D09D9CB
:100678004FF4FD710748FFF749FE236843F0010373
:10068800236038BD002DF8D1236823F00103F7E774
:1006980000000140BB2B00082C4B984270B5044663
:1006A8000D46164637D0B0F1804F34D0A3F57C43C1
:1006B800984230D003F5806398422CD003F58063CC
:1006C800984228D003F58063984224D003F58063CC
:1006D800984220D003F5704398421CD003F570531C
:1006E800984218D003F58063984214D003F58063CC
:1006F800984210D0A3F5983398420CD003F5806344
:10070800984208D003F58063984204D040F614312B
:100718000F48FFF7FBFD35F0FF0300D125B940F680
:1007280015310B48FFF7F2FD012E08D940F61631B6
:100738000748FFF7EBFDE3681D43E56070BD002E39
:10074800F9D1E36823EA0505F7E700BF0000014097
:10075800BB2B00082DE9F84F4C4B984204460D4638
:100768002BD003F58063984227D003F58063984225
:1007780023D003F5806398421FD003F58063984225
:100788001BD003F58063984217D003F58063984225
:1007980013D003F5806398420FD003F58063984225
:1007A8000BD003F58063984207D003F58063984225
:1007B80003D093213648FFF7A9FD2B881BB9942154
:1007C8003348FFF7A3FD2B79032B03D99521304834
:1007D800FFF79CFDEB79022B03D996212C48FFF7F4
:1007E80095FDDFF8AC90002601274FF003082A6832
:1007F80007FA06F3934343D14FEA460A236808FAF7
:100808000AFB6FEA0B0B03EA0B0323602B792168C1
:1008180003FA0AF2013B0A43012B226023D86B79C1
:10082800032B03D9A8214846FFF770FDA3680BEAFC
:100838000303A3606B79A26803FA0AF31343A36066
:10084800AB79012B03D9AF214846FFF75FFD6368F9
:1008580007FA06F223EA02036360AB796268B340E1
:100868009BB213436360E36808FA0AF223EA0203BF
:10087800E360EB79E26803FA0AFA4AEA0202E26004
:100888000136102EB3D1BDE8F88F00BF000002403A
:10089800EA2B000838B5194B984204460D4620D07B
:1008A800A3F54C4398421CD003F58063984218D0B6
:1008B80003F58063984214D003F58063984210D002
:1008C80003F5444398420CD0A3F51C43984208D042
:1008D80003F58063984204D04FF468710848FFF725
:1008E80015FDB5F5007F04D340F2A1310448FFF7A8
:1008F8000DFDC5F30805A56238BD00BF0010014015
:100908001A2C000838B5304B984205460C4620D0C2
:10091800A3F54C4398421CD003F58063984218D045
:1009280003F58063984214D003F58063984210D091
:1009380003F5444398420CD0A3F51C43984208D0D1
:1009480003F58063984204D040F263711F48FFF7B3
:10095800DDFC621E1F2A34D81D4BD340DB072AD486
:10096800402C28D0B4F5807F25D0B4F5007F22D064
:10097800B4F5806F1FD0B4F5006F1CD0B4F5805F5C
:1009880019D0B4F5804F16D0B4F5004F13D0B4F594
:10099800803F10D0B4F5003F0DD0B4F5802F0AD0B9
:1009A800B4F5002F07D0B4F5001F04D040F26471ED
:1009B8000648FFF7ABFCEB691C4214BF012000207E
:1009C80038BD802CCCD1F6E7001001401A2C000865
:1009D8008B8000800F2810B5044603D98D21054867
:1009E800FFF794FC044B186820F00F0020431860B0
:1009F80010BD00BF4B2C0008003C024038B53C4BF2
:100A0800984205460C460BD003F58073984207D0F0
:100A180003F58073984203D089213648FFF776FCA6
:100A2800236833F0407303D08A213248FFF76EFC05
:100A38002379012B03D98B212E48FFF767FC6379B3
:100A4800012B03D98C212B48FFF760FCA36833F0F6
:100A5800405303D08D212748FFF758FCE36833F053
:100A6800407212D0B2F1806F0FD023F0A062B2F1C1
:100A7800006F0AD0B3F1306F07D003F17143012B37
:100A880003D98E211B48FFF741FC236933F4006327
:100A980003D08F211748FFF739FC237D013B0F2B2B
:100AA80003D990211348FFF731FC6A68217923683C
:100AB80022F0407222F4807243EA012313436B60F0
:100AC800AB680D4AE1681A4023690B43A1680B43E0
:100AD800617943EA41031343AB60227DEB6A013A33
:100AE80023F47003D2B243EA0253EB6238BD00BF6D
:100AF800002001407C2C0008FDF7FFC038B5124BE0
:100B0800984204460D460CD003F58073984208D0ED
:100B180003F58073984204D040F22B110B48FFF77D
:100B2800F5FB012D09D94FF496710848FFF7EEFB44
:100B3800A36843F00103A36038BD002DF8D1A36872
:100B480023F00103F7E700BF002001407C2C0008D8
:100B58002DE9F0419846394B984205460F46144610
:100B68000CD003F58073984208D003F5807398423F
:100B780004D04FF41A713248FFF7C8FB122F04D97A
:100B880040F269212E48FFF7C1FB661EF3B20F2B16
:100B980004D940F26A212A48FFF7B8FBB8F1070FD9
:100BA80004D940F26B212648FFF7B0FB092F1BD967
:100BB800A7F10A03EA6803EB43030721994022EAF5
:100BC800010208FA03F31343EB60062C18D86C6B88
:100BD80006EB86061F23B34024EA030407FA06F649
:100BE80026436E63BDE8F0812A6907EB47010723B6
:100BF8008B4022EA030208FA01F313432B61E4E76E
:100C08000C2C0DD8E31F2E6B03EB83031F249C4091
:100C180026EA040407FA03F634432C63BDE8F0819E
:100C28000D3C04EB8403EA6A1F249C4022EA040278
:100C380007FA03F41443EC62BDE8F0810020014098
:100C48007C2C00080B4B984210B504460CD003F5D9
:100C58008073984208D003F58073984204D040F21C
:100C6800DF210548FFF752FBA36843F08043A360E8
:100C780010BD00BF002001407C2C00080A4B9842A0
:100C880010B504460CD003F58073984208D003F5DC
:100C98008073984204D040F275310448FFF736FB60
:100CA800E06C80B210BD00BF002001407C2C000821
:100CB80038B5134B984204460D460CD003F58073A3
:100CC800984208D003F58073984204D040F2F2515C
:100CD8000C48FFF71BFB6B1EDBB21F2B04D80A4A1C
:100CE80022FA03F3DB0704D440F2F3510548FFF777
:100CF8000DFB23681D4214BF0120002038BD00BF32
:100D0800002001407C2C00088B800080012810B551
:100D1800044605D9052803D0D0210448FFF7F6FA80
:100D2800034B00221A701C7010BD00BFBB2C0008BA
:100D3800023802402DE9F0411D4630F48003804618
:100D48000C461746069E04D040F2A5112448FFF72A
:100D5800DDFAA31E3D2B04D94FF4D3712048FFF7C9
:100D6800D5FAA7F1C003F02B04D940F2A7111C480B
:100D7800FFF7CCFA082D04D84FF4AA73EB40DB0731
:100D880004D44FF4D4711648FFF7C0FAB31E0D2BE4
:100D980004D940F2A9111248FFF7B8FA47F6C07211
:100DA80092FAA2F24FF44030B2FA82F290FAA0F02E
:100DB8004FF07061B0FA80F091FAA1F144F000535D
:100DC8006D08974043EA0803013DB1FA81F13B43BE
:100DD80085402B438E40034A33435360BDE8F0817E
:100DE800BB2C000800380240012810B5084C09D96E
:100DF80040F2BF110748FFF789FA236843F0807370
:100E0800236010BD0028F8D1236823F08073F7E72A
:100E180000380240BB2C0008022810B5044604D94B
:100E280040F2F7210448FFF771FA044A936823F067
:100E380003031C43946010BDBB2C0008003802401B
:100E480030F0800310B5044612D020F02003902B18
:100E58000ED020F04003A02B0AD020F01003C02BA6
:100E680006D0F02804D04FF44B710548FFF74EFA2E
:100E7800044A936823F0F0031C43946010BD00BF3C
:100E8800BB2C00080038024030F4805310B50446EB
:100E98000CD020F40063B3F5A05F07D0B0F5C05FB5
:100EA80004D040F24B310548FFF730FA044A936802
:100EB80023F4E0531C43946010BD00BFBB2C000812
:100EC8000038024030F4805310B504460CD020F4AA
:100ED8000063B3F5A05F07D0B0F5C05F04D040F25F
:100EE8006A310548FFF712FA044B986820F460400D
:100EF80040EAC400986010BDBB2C000800380240CE
:100F08001D4A936803F00C03042B10B51AD0082B64
:100F18001AD01A4B184A036093681949C3F303138C
:100F2800CC5C0368E34043609468C4F382240C5D9E
:100F380023FA04F484609268C2F342328A5CD34094
:100F4800C36010BD0F4BE5E75468516852686302EF
:100F5800C2F3881201F03F014CBF0A4B074BB3FBA9
:100F6800F1F35343044A5268C2F30142013252007A
:100F7800B3FBF2F3CEE700BF003802400024F400D0
:100F8800AB2C000800127A000E4B034070B50446E3
:100F98000E4603B920B940F23D510B48FFF7B6F9A8
:100FA800012E0A4D08D940F23F510748FFF7AEF924
:100FB8002B6B1C432C6370BD002EF9D12B6B23EADD
:100FC8000404F7E700E80B81BB2C00080038024056
:100FD800C30470B504460E4600D420B940F2B1519E
:100FE8000A48FFF793F9012E094D08D940F2B2518A
:100FF8000648FFF78BF92B6C1C432C6470BD002E40
:10100800F9D12B6C23EA0404F7E700BFBB2C0008D6
:10101800003802400E4B034070B504460E4603B933
:1010280020B940F2DF510B48FFF770F9012E0A4D45
:1010380008D94FF4BC610748FFF768F96B6C1C438B
:101048006C6470BD002EF9D16B6C23EA0404F7E7D9
:101058004C800893BB2C000800380240A0F1210303
:10106800DBB21C2B10B5044604D8114A22FA03F34C
:10107800DB070CD404F0DF03412B08D0A4F179037B
:10108800062B04D940F6C8010A48FFF73FF9620960
:10109800012A094B06D1186804F01F04E04000F04B
:1010A800010010BD022A0CBF186F586FF4E700BF8B
:1010B80001000115BB2C00080038024013B50023BD
:1010C800019341F288343120FFF7C8FF019B0133B7
:1010D8000193019BA34201D00028F4D03120FFF7EF
:1010E800BDFF003018BF012002B010BD38B503792C
:1010F80013F0FB0F044603D042212A48FFF706F9F4
:10110800637903F0FB02082A05D0102B03D0432192
:101118002448FFF7FBF82268D30DDB0503B91AB999
:1011280044212048FFF7F2F8A379012B03D9452180
:101138001C48FFF7EBF8A2792379216842B31A4AD1
:101148001568C84305401560556803F1804303F5E9
:101158009E332840506018680143196023689068DE
:10116800D94308409060D0680140D1606179102966
:1011780006D1916819439160D1680B43D36038BD9B
:1011880001F1804202F59E3211680B43136038BDAD
:1011980003F1804303F59E331A6822EA01011960BE
:1011A80038BD00BFEA2C0008003C0140C30DDB0538
:1011B80010B5044603B918B9E2210348FFF7A6F8A9
:1011C800024B5C6110BD00BFEA2C0008003C0140E6
:1011D8007047704714234360704700207047002011
:1011E80070470000014B0360704700BF242D0008C2
:1011F80070472DE9F0411D46036804461B681646F2
:101208000F46984723683946DB6820469847236885
:101218003146DB682046984723682946DA68204625
:101228009047236820465B68BDE8F041184703688B
:1012380070B504461B6816460D469847236829462C
:10124800DB682046984723683146DB682046984784
:10125800236820461B689847236845F00101DB682E
:1012680020469847236800211B6920469847236831
:1012780005465B6820469847284670BD42680023AB
:10128800934202D000BF0133FAE77047014B02488E
:101298001860704704000020F40200207047002006
:1012A8007047704710B514210446FFF7F7FF204632
:1012B80010BD0000836810B50446D3B9426853696D
:1012C80023F400535361A368052B27D1E368322226
:1012D80003F00701B3FBF2F30F22B3FBF2F2C2EB08
:1012E80002129B1A274AD35C994263685A691AD238
:1012F80011E0012B04D14268536943F40053E1E73C
:10130800022B13D1C1686423B1FBF3F203FB121261
:1013180043683AB95A6942F400525A61E3680133A2
:10132800E36010BD5A6922F40052F6E7042B10D18D
:10133800C1683223B1FBF3F203FB1212436822B9EE
:101348005A6942F400525A61BDE75A6922F40052C0
:10135800F9E7032BB7D10C4800F0A8FF236903F580
:101368004873984202D90123A360ACE7E16864227C
:10137800B1FBF2F302FB1313182B63685A69E5D823
:10138800DFE700BF382D0008F002002010B5002369
:101398000446C3608160024800F088FF206110BDE8
:1013A800F0020020164A174B10B50360136B6FEA62
:1013B80053236FEA43231363134B43609A6822F065
:1013C80040629A609A6842F040629A605A6822F4D1
:1013D80000525A605A685A601A6822F040621A60CD
:1013E8001A6842F0806204461A600321FFF7CEFFB4
:1013F800002301222146054800F024FF204610BDA5
:1014080000380240502D0008000C0240F002002075
:101418007FB500F06DF80C4801F04AF901A8FFF714
:10142800C1FF4FF44871094800F04CFF052101A89D
:10143800FFF7ACFF064800F0C9F904210DEB0100E5
:10144800FFF7A4FFFEE700BF94010020F002002090
:101458000402002013B50120FFF758FCFFF72EFE09
:101468000128044600D0FEE7092300934FF48000CA
:1014780002234FF4D8720821FFF75CFC2046FFF7DF
:10148800B3FC3920FFF7EAFD0028FAD04FF080506E
:101498000121FFF79DFD0120FEF786FF4FF4803004
:1014A800FEF7B2FF0028F9D03120FFF7D7FD00285A
:1014B800FAD00120FEF790FF4FF40030FEF7A4FFAA
:1014C8000028F9D00720FFF785FA0220FFF7A4FCCF
:1014D8000020FFF7B5FC4FF4A050FFF7D5FC4FF400
:1014E8008050FFF7EFFC02B0BDE81040FEF7D4BE15
:1014F80008B5FEF7ABFEFFF7ADFFBDE80840FEF705
:10150800CBBE000010B5034B0360044600F024FD79
:10151800204610BD642D000810B50446FFF7F2FF01
:1015280020460421FFF7BAFE204610BD10B5044638
:1015380000F01AFD014B2360204610BD642D000801
:1015480038B505464C1E14F8011F19B1284600F09D
:1015580069FDF8E738BDFFF7F3BF30B585B0002364
:101568000A228DF80F301546B1FBF5F405FB14136C
:1015780004A91144303301F80C3C531EDBB2214658
:101588002CB901AB9918FFF7DBFF05B030BD1A463F
:10159800EAE7704710B504210446FFF77FFE2046AE
:1015A80010BD0000014B0360704700BF742D000898
:1015B80008B5012308481A46C9B2FFF7C9FA064810
:1015C800FFF740FB02210448FFF772FB0028F9D01F
:1015D8000148FFF753FB08BD0020014030B5114C0E
:1015E80087B001214FF48070FFF714FD0125002317
:1015F800694620468DF8043000938DF80530039332
:10160800029304938DF81450FFF7F8F92946204601
:10161800FFF774FA2B462A460B212046FFF798FA63
:1016280007B030BD00200140F7B52A4A2A4C136B99
:1016380043F00703136303238DF8043002250023C6
:10164800694620468DF807300095FFF783F8042394
:10165800694620460093FFF77DF80823694620462F
:1016680000931026FFF776F8694620460096FFF7A4
:1016780071F84023694620460093FFF76BF88023F2
:10168800694620460093FFF765F80096134E6946B1
:101698003046FFF75FF82027694630460097012655
:1016A800FFF758F8694620460096FFF753F8694651
:1016B800204604F580640097FFF74CF869462046F9
:1016C8000096FFF747F8694620460095FFF742F86D
:1016D80003B0F0BD0038024000000240000802409C
:1016E80010B50446FFF7A0FF2046BDE81040FFF7FD
:1016F80075BF704710B518210446FFF7CFFD204687
:1017080010BD027B836832B1002202735A6942F429
:1017180080725A617047012202735A6922F48072FA
:10172800F7E700001C4A1D4B0360136B30B540F20D
:10173800FF152B4313631A4B43609C6824F0C004C5
:101748009C609C6844F0C0049C601C6824F0C00441
:101758001C601C681C60DC6844F04004DC60136B8F
:101768002B4313630F4B83609A6822F440329A60CC
:101778009A6842F440329A605A6822F480725A6039
:101788005A685A601A6822F440321A601A6842F499
:1017980080321A6030BD00BF00380240842D000836
:1017A80000100240000002404FF0FF3310B54361C3
:1017B80000230446037301464FF4FA72024800F00E
:1017C80041FD206110BD00BFF0020020436870B5E4
:1017D80004461A69120701D500BFFAE701236361BD
:1017E8006422217C0F480F4D00F054FD0D4800F095
:1017F8005DFD00F5FA6663681B691B070FD409488D
:1018080000F054FDB042F6D96369012BF3D13222BE
:10181800217C284600F03EFD02236361EBE7606906
:1018280070BD00BFF002002070477047704710B5C8
:1018380024210446FFF732FD204610BD10B52421AF
:101848000446FFF72BFD204610BD10B5D0210446F5
:10185800FFF724FD204610BD1449154B03600B6BA0
:101868006FEA53236FEA43230B63124B4360996873
:1018780021F440419960996841F440419960596860
:1018880021F08001596059685960196821F4404174
:101898001960196841F480411960074B0361074BCF
:1018A80043638365C367C0F8A030704700380240BF
:1018B800B82D000800100240982D0008A82D000837
:1018C8004268536923F080032DE9F04164210446FE
:1018D80053613348DFF8CC8000F0F4FC64213048D1
:1018E80000F0F0FC012363610223A3610323E36199
:1018F80004232362062363620723A3620E23E362A1
:1019080004F114050F23236304F134072E4656F817
:10191800041B4046FFF74CFEBE427064F7D1626874
:101928001F4853691F4F43F080035361642100F03F
:10193800C9FC55F8041B3846FFF73AFE6B6CB542F4
:10194800A0EB0300A866F4D104F1A40304F1C401D8
:10195800002243F8042B9942FBD16FF0FF03A363E5
:101968006FF0BF03E3636FF07F0323646FF03F03FF
:1019780063644023A3648023E364C02323654FF496
:10198800807363654FF4C873A36022730023042235
:101998002146034800F056FC0020BDE8F08100BF56
:1019A800F00200205801002000EB810030B5826B66
:1019B800D0F8A45002FB05F481B1D0F8A030426BF6
:1019C800062902FB03422B440BD8D0F8A810C06BA1
:1019D8000B4400FB012292FBF3F030BD62006B0068
:1019E800F3E722442B44F6E7826800F1A4030020C1
:1019F80053F8041B8A4204DB01300828F8D14FF061
:101A0800FF3070472DE9F84FDFF870A0DFF87090CD
:101A1800044600F1140500F134084FF0000B55F8A6
:101A2800041B5046FFF7C4FD6B6CC01A09FB00F09D
:101A3800AB6E90FBF3F010F57A7054BFC5F88C00CC
:101A4800C5F88CB04545EAD12046FFF7CDFF431CC9
:101A5800014611D02046FFF7A7FF01230646074697
:101A680084F8C430012384F8C530C4F8C860C4F8C9
:101A7800CC702373BDE8F88F0023F1E758010020EC
:101A880018FCFFFF704710B544210446FFF706FC19
:101A9800204610BD014B0360704700BFCC2D0008E5
:101AA8002DE9F0410446006C03681B688846984796
:101AB800206C0368D421DB689847206C03681921DF
:101AC800DB689847206C03681B689847206C03689C
:101AD800D521DB689847206C036801211B6998476A
:101AE800000207B2206C036801211B69984707436D
:101AF800206C036801211B699847000206B2206C1C
:101B0800036801211B6998470643206C036801217B
:101B18001B699847000205B2206C036800211B6905
:101B280098470543206C03685B683FB236B22DB214
:101B38009847B8F1000F08D0A36A3B44A362E36A50
:101B48003344E362236B2B442363A36AE169226B6A
:101B5800E06AFB1AAD1A2361192293FBF2F301EB39
:101B68004303E361236AA561301A606190FBF2F0D8
:101B780003EB40002062636A206C95FBF2F503EBEF
:101B88004505036865621B689847206C0368D42183
:101B9800DB689847206C03682921DB689847206C2C
:101BA80003681B689847206C0368D521DB68984751
:101BB800206C036801211B699847000207B2206C5A
:101BC800036801211B6998470743206C03680121BA
:101BD8001B699847000206B2206C036801211B6943
:101BE80098470643206C036801211B699847000247
:101BF80005B2206C036800211B6998470543206CD7
:101C080003685B6898473FB236B22DB2012367601C
:101C1800A660E56084F83C30BDE8F0810021FFF75C
:101C28003FBF406B003018BF0120704711F1FF31F2
:101C380001D300BFFAE7704738B5044610220846BA
:101C48002164A823D421FFF7D4FA00232361636118
:101C5800A361A362E3622363E3612362636242F2E6
:101C680010712046FFF7E2FF0F226363D421206C36
:101C7800FFF7DDFA682804BF012363631022A82355
:101C8800D421206CFFF7B5FA38231E22D421206C0A
:101C9800FFF7AFFA00232E22D421206CFFF7A9FA10
:101CA80000231222D421206CFFF7A3FA60232022FC
:101CB800D421206CFFF79DFA38231F22D421206CF1
:101CC800FFF797FA42F210712046FFF7AFFF0021A5
:101CD8002046FFF7E5FE0023A3634FF47A75012140
:101CE8002046FFF7DDFE64212046FFF79FFF013DF8
:101CF800F5D14FF47A72A36AE56193FBF2F325629A
:101D0800A3626562E36A656093FBF2F3A560E36230
:101D1800E560236B054893FBF2F3214623630A220F
:101D28002B4600F08FFA84F83C5038BDF0020020B2
:101D3800704710B514210446FFF7B0FA204610BDCD
:101D4800094B1B6913F0C0030BD0C02B0CBF012338
:101D58004FF0FF33054A116840200B441360FFF72A
:101D680025BA0123F6E700BF000802400C00002056
:101D7800094B1B6913F030030BD0302B0CBF4FF00D
:101D8800FF330123054A116810200B441360FFF745
:101D98000DBA4FF0FF33F5E70004024010000020B1
:101DA800304A314B0360136B30B540F2FF142343C4
:101DB80013632E4B43609D6825F440559D609D68D4
:101DC80045F440559D601D6825F440551D601D680B
:101DD8001D60DD6845F48055DD60156B254315638E
:101DE8009D68836025F440459D609D6845F44045A5
:101DF8009D601D6825F440451D601D681D60DD68F7
:101E080045F48045DD60136B23431363184BC360AF
:101E18009D6825F440759D609D6845F440759D60FA
:101E28001D6825F440751D601D681D60DD6845F45A
:101E38008075DD60156B2C4314639A68036122F486
:101E480040629A609A6842F440629A601A6822F482
:101E580040621A601A681A60DA6842F48062DA60CE
:101E680030BD00BF00380240E02D000800080240E5
:101E780000040240F0B5344B00241C60334B87B09B
:101E880001214FF480401C60FFF7C4F801210420B1
:101E9800FFF77AF801210220FFF776F8012540269E
:101EA800032702A92A4802968DF80C408DF80E40A7
:101EB8008DF80F508DF80D70FEF74CFC06210220AE
:101EC800FEF7DCFA049610260DEB06008DF8165086
:101ED8008DF814408DF81560FFF708F9172301A84D
:101EE8008DF804308DF805408DF806508DF80750B0
:101EF800FEF70EFA02A917488DF80C408DF80E402F
:101F080002968DF80F508DF80D70FEF723FC042112
:101F18002846FEF7B3FA0DEB060004968DF8165026
:101F28008DF814408DF81560FFF7E0F80A2301A832
:101F38008DF804308DF805408DF806508DF807505F
:101F4800FEF7E6F907B0F0BD0C00002010000020F5
:101F58000008024000040240704710B504210446FE
:101F6800FFF79CF9204610BD014B0360704700BF86
:101F7800F02D0008274A136B30B540F2FF152B43AC
:101F88001363254B9C6824F440249C609C6844F4AB
:101F980040249C601C6824F440241C601C6844F4A1
:101FA80000241C60106B28431063986820F44010CC
:101FB8009860986840F440109860186820F44010C1
:101FC8001860186840F400101860586A20F0F00093
:101FD8005862586A40F070005862586A20F470607D
:101FE8005862586A40F4E0605862536C43F010033A
:101FF80053640A4B00220C205A60490018609A600A
:10200800074AB2FBF1F1D9601A6842F001021A607E
:1020180030BD00BF003802400000024000100140FF
:1020280000E6DF0C10B50C4680210548FEF76AFC77
:102038000028F9D021460248BDE81040FEF72ABC26
:1020480000100140704710B538210446FFF726F903
:10205800204610BD1049114B03600B6B6FEA5323E8
:102068006FEA43230B630E4B83619A6822F03002B8
:102078009A609A6842F030029A605A6822F0040224
:102088005A605A685A601A6822F030021A601A6850
:1020980042F010021A60704700380240002E000813
:1020A80000040240826938B55369002523F004030F
:1020B800C561044653614FF48073056245628562C9
:1020C800C5620563456343608360C36005744574F6
:1020D80001462B461922034800F0B4F82575284616
:1020E80038BD00BFF002002000EB8202D36A126AFA
:1020F8009B1A23EAE3731022C3F5805393FBF2F390
:102108000A6802EB42021344042293FBF2F30B60C9
:102118007047000038B5C569044615B1012D17D0C0
:1021280038BD05212648FFF743FA0821E062244814
:10213800FFF73EFA294620632148FFF739FAA269DA
:102148006063536943F0040353610123E36138BDBD
:1021580005211B48FFF72CFA082120621848FFF7D1
:1021680027FA002160621648FFF722FAA269A062E6
:10217800536923F00403536104F108010022204647
:10218800FFF7B2FF2A46211D2046FFF7ADFF0222C6
:1021980004F10C012046FFF7A7FFA268EF2A4FF0D1
:1021A800000304DCD12A257403DD637402E0237480
:1021B800FBE765740023E3610123237538BD00BF85
:1021C80058010020F8B54FF080431A69D20714D59A
:1021D800194F4FF6FE721A61002414263D4606FB7D
:1021E8000473DA6852B1DA68013ADA600134102C03
:1021F800F5D1124A136801331360F8BD9A68DA60A2
:102208001A7CFF2A1FBF1A7C0132D2B21A7406FB4D
:1022180004F3EA18527C002AE8D1EA580AB1EB58CC
:10222800984706FB04535A68002ADFD058680368A9
:102238009B689847DAE700BF1800002014000020C8
:1022480070477047F0B572B6114D00244FF0FF305B
:102258004FF0140E2F460EFB04F605EB060CAE5994
:1022680026B9DCF80460002E08BF20460134102C83
:10227800F1D1441C0AD0C4B2142565437C19002648
:102288007E516160A260E2602674637462B6F0BD3C
:10229800180000200448142303FB01010023CA602E
:1022A8008A600B74704700BF1800002082B072B6B5
:1022B800034B1B68019362B6019802B0704700BFD8
:1022C8001400002007B50246FFF7F0FF0144019112
:1022D8001046FFF7EBFF019B984201D200BFF7E7DA
:1022E80003B05DF804FB000010B52DED028B8CB037
:1022F800002966D0344B994228BF194607EE901A38
:102308009FED327AF8EEE77A012187EE278A0846B0
:10231800FCEEC87A17EE904AFEF75AFE240C03A882
:10232800FEF7EEFD0794013407EE904AF8EEE77ADF
:10233800002288EE277A07A94FF0804008920A9277
:10234800DFED237A77EE677AFCEEE77ACDED017A56
:10235800BDF804300993FEF7B7F801214FF080402B
:10236800FEF746F9012211464FF08040FEF794F936
:10237800184A136B6FEA53236FEA43231363164B10
:102388009A6822F440329A609A6842F440329A601D
:102398005A6822F480725A605A685A601A6822F49D
:1023A80040321A601A6842F480321A600B4B1022CD
:1023B80083F81C234FF080521A600CB0BDEC028BDE
:1023C80010BD01219AE700BF80F9370360FECD4CAC
:1023D8000000803F003802400000024000E100E0B9
:1023E800F8B500220C4D142713464FF47A7607FBF4
:1023F80002F429190132102A2B514B608E60CB60F0
:102408000B744B74F3D1054A4FF47A71136003606F
:10241800FFF76AFF62B6F8BD18000020140000201C
:10242800704710B508210446FEF738FF204610BD56
:1024380010B5034B03600446FEF7DAFE204610BDD4
:10244800142E000810B50446FFF7F2FF20461021AD
:10245800FEF724FF204610BD10B5044621B10349FC
:10246800FFF779F8204610BD0149F9E7412F000828
:10247800462F00081049114B03600B6B6FEA53237A
:102488006FEA43230B630E4B43609A6822F4403291
:102498009A609A6842F440329A605A6822F48072CC
:1024A8005A605A685A601A6822F440321A601A68E8
:1024B80042F480321A60704700380240542F0008F6
:1024C80000000240B9B903689A6822F00C029A60C9
:1024D8009A6842F00C029A605A6822F002025A6026
:1024E8005A685A601A6822F00C021A601A6842F098
:1024F80004021A60704701290ED103689A6822F015
:102508000C029A609A6842F00C029A601A6822F0EB
:102518000C021A601A68ECE7022913D103689A685A
:1025280022F00C029A609A6842F00C029A601A68CB
:1025380022F00C021A601A681A60DA6842F0040283
:10254800DA607047052910D103689A6822F00C02F6
:102558009A609A6842F00C029A601A6822F00C029B
:102568001A601A6842F00802C3E70429C2D1036856
:102578001A6822F00C021A601A6842F00C02B8E7D6
:10258800064A08B5136B6FEA53236FEA43231363B4
:10259800034B03600121FFF795FF08BD0038024097
:1025A800000C0240B9B903689A6822F030029A60B8
:1025B8009A6842F030029A605A6822F004025A601F
:1025C8005A685A601A6822F030021A601A6842F093
:1025D80010021A60704701290ED103689A6822F028
:1025E80030029A609A6842F030029A601A6822F0C3
:1025F80030021A601A68ECE7022913D103689A6856
:1026080022F030029A609A6842F030029A601A68A2
:1026180022F030021A601A681A60DA6842F0100272
:10262800DA607047052910D103689A6822F03002F1
:102638009A609A6842F030029A601A6822F0300272
:102648001A601A6842F02002C3E70429C2D103685D
:102658001A6822F030021A601A6842F03002B8E7AD
:10266800064A08B5136B6FEA53236FEA43231363D3
:10267800034B03600121FFF795FF08BD00380240B6
:10268800000C0240142310B5436004460830FFF7DD
:1026980077FF04F10C00FFF7E3FFA268536923F00A
:1026A80002035361E268536923F00403536110BDC8
:1026B800426853692DE9F041424C434FDFF8648189
:1026C80043F48073536105464FF4E1312046FFF728
:1026D80051FC20463D49FEF73EFF3D492046FEF7A6
:1026E8003AFFFEF7D3FD3B4906462046FEF733FF87
:1026F8003146394E2046FEF730FF31462046FEF778
:102708002AFF3846FFF76CFE20463449FEF723FFC0
:1027180020463349FEF71FFF3846C821FFF7D2FD90
:102728003049314F2046FEF716FF4046FFF7AAFF13
:1027380020462E49FEF70FFF41463846FFF77CFA40
:102748002B492046FEF707FF3846FFF76AFA01468D
:102758002046FFF781FE3146FEF7FDFE2548FEF7CD
:10276800BFFF25492046FEF7F6FE2448FFF7A8F8E4
:1027780023492046FEF7EFFE2248FFF793FC224943
:102788002046FEF7E8FE2148FFF774FB2049204663
:10279800FEF7E1FE1F48FFF707F820461E49FEF73F
:1027A800DAFE20461D49FEF7D6FE20461C49FEF7F4
:1027B800D2FE6A68536923F4807353610020BDE830
:1027C800F08100BFEC020020F0020020452E000836
:1027D800512E0008652E00084F2E0008832E000891
:1027E800942E0008AB2E0008C0010020A22E00087D
:1027F800B12E000858010020C52E00081C02002038
:10280800D42E00085C010020EB2E00089C0100205B
:10281800062F000804020020202F00084E2E000872
:102828002F2F0008B001002070B5044600F10C06F7
:1028380004F1080530460021FFF7B4FE28460021C0
:10284800FFF740FE30460121FFF7ACFE2846002185
:10285800FFF738FE30460121FFF7A4FE2846012184
:10286800FFF730FE2046BDE87040FEF707BD70B5A3
:10287800044600F10C0604F1080530460121FFF773
:1028880091FE28460121FFF71DFE30460121FFF782
:1028980089FE28460021FFF715FE30460021FFF784
:1028A80081FE28460121FFF70DFE2046BDE8704055
:1028B800FEF7E4BC2DE9F843044600F10807384662
:1028C800894604F10C060121FFF7FCFD0021304682
:1028D800FFF768FE2046FEF7D1FC4FF009080025F7
:1028E800B8F1010817D001213046FFF75BFE2046FA
:1028F800FEF7C4FCA3681B696D009B073046EDB268
:102908004FF0000148BF45F00105FFF74BFE204698
:10291800FEF7B4FCE4E7B9F1000F1ED04146384693
:10292800FFF7D0FD2046FEF7A9FC01213046FFF74E
:1029380039FE2046FEF7A2FC00213046FFF732FEA2
:102948002046FEF79BFC01213846FFF7BBFD2046D9
:10295800FEF794FC2846BDE8F8830121DFE72DE95E
:10296800F04104460F46092600F10C0500F108085D
:10297800013E1AD000212846FFF714FE2046FEF734
:102988007DFC3B064CBF012100214046FFF79AFD24
:102998002046FEF773FC01212846FFF703FE7F005F
:1029A8002046FEF76BFCFFB2E2E731462846FFF708
:1029B800F9FD2046FEF762FC01214046FFF782FD43
:1029C8002046FEF75BFC01212846FFF7EBFD204679
:1029D800FEF754FCA36831461F692846FFF7E2FD5D
:1029E8002046FEF74BFC87F00200C0F34000BDE82C
:1029F800F081000038B5334D334C2846FFF73AFDD7
:102A08002846324D32492246FEF749FC2846FEF751
:102A18008DFD28462F4D30492246FEF740FC2846BA
:102A2800FFF70EFC28462D4D2D492246FEF737FCB0
:102A38002846FEF7D7FB28462A4B40F8083BFFF705
:102A48009FFD05F10C00FFF70BFE2846264D274990
:102A58002246FEF724FC2846FFF71CF82846244D9A
:102A680024492246FEF71BFC2846FEF79BFD284614
:102A7800214D22492246FEF712FC2846FEF7ECFEBD
:102A880028461F4D1F492246FEF709FC2846FFF736
:102A9800E1FA28461C4D1D492246FEF700FC28464F
:102AA800FFF77EF928461A4D1A492246FEF7F7FB2A
:102AB8002846FEF737FE224628461749BDE8384023
:102AC800FEF7EDBB9401002008000020EC02002076
:102AD80029240008F00200200D150008B00100208C
:102AE8004B220008142E0008C001002039240008D9
:102AF800580100208D1A00081C0200209B150008B0
:102B08005C010020311800089C0100204D200008BD
:102B180004020020391D0008FB1600080000000010
:102B280000000000010203040607080953544D334E
:102B380032463778785F5374645065726970685F9D
:102B48004472697665722F7372632F6D6973632E91
:102B5800630053544D3332463778785F537464506A
:102B680065726970685F4472697665722F73726303
:102B78002F73746D3332663778785F7077722E638F
:102B88000053544D3332463778785F537464506538
:102B9800726970685F4472697665722F7372632F09
:102BA80073746D3332663778785F737973636667E9
:102BB8002E630053544D3332463778785F5374642C
:102BC8005065726970685F4472697665722F7372B6
:102BD800632F73746D3332663778785F74696D2E3E
:102BE800630053544D3332463778785F53746450DA
:102BF80065726970685F4472697665722F73726373
:102C08002F73746D3332663778785F6770696F2E0B
:102C1800630053544D3332463778785F53746450A9
:102C280065726970685F4472697665722F73726342
:102C38002F73746D3332663778785F757361727489
:102C48002E630053544D3332463778785F5374649B
:102C58005065726970685F4472697665722F737225
:102C6800632F73746D3332663778785F666C61737F
:102C7800682E630053544D3332463778785F537467
:102C8800645065726970685F4472697665722F7303
:102C980072632F73746D3332663778785F6164635B
:102CA8002E63000000000001020304010203040671
:102CB80007080953544D3332463778785F537464A4
:102CC8005065726970685F4472697665722F7372B5
:102CD800632F73746D3332663778785F7263632E4F
:102CE800630053544D3332463778785F53746450D9
:102CF80065726970685F4472697665722F73726372
:102D08002F73746D3332663778785F657874692EFF
:102D1800630000000000000000000000D911000856
:102D2800DB110008DD110008E3110008E7110008B5
:102D3800000102030405060706050403020100005A
:102D48000000000000000000AB120008AD120008EF
:102D5800BD12000800000000000000000D1500086A
:102D68002115000800000000000000009B15000865
:102D78009D1500080000000000000000FB16000878
:102D8800FD1600080B1700080000000000000000F6
:102D98003318000837180008000000000000000081
:102DA8003518000845180008000000000000000061
:102DB80031180008531800080D1A00080000000018
:102DC800000000008D1A00088F1A0008251C000852
:102DD8000000000000000000391D00083B1D00082D
:102DE8000000000000000000611F0008631F0008C9
:102DF80000000000000000004D2000084F200008DF
:102E08001D210008000000000000000077280008CD
:102E1800312800088D26000867290008BD28000809
:102E2800392400084D240008096573745F696D75BD
:102E38005F73656E736F720A00203A20000A0A0AEF
:102E480023232323230A0A0A007465726D696E61BD
:102E58006C20696E697420646F6E650A006D656D1B
:102E680020696E697420646F6E652C2068656170D6
:102E7800207374617274206174200074696D6572C6
:102E880020696E697420646F6E650A0064656C6100
:102E98007920323030206D73200069326320696EEA
:102EA800697420646F6E650A00696D7520696E69C2
:102EB8007420646F6E6520776974682000616463AC
:102EC80020696E697420646F6E650A006C696E65AE
:102ED8002073656E736F7220696E697420646F6EFB
:102EE800650A0064697374616E63652073656E7347
:102EF8006F7220696E697420646F6E650A00656E72
:102F0800636F6465722073656E736F7220696E6992
:102F18007420646F6E650A006B657920696E697448
:102F280020646F6E650A0073797374656D20696E2D
:102F3800697420646F6E650A007472756500666155
:102F48006C736500000000000000000029240008E0
:042F58002B2400081E
:042F5C00FD29000843
:042F60000024F40055
:04000005080001E509
:00000001FF
