:020000040800F2
:1000000000000220E5010008C9010008DB0100082A
:10001000C9010008C9010008C9010008000000006A
:10002000000000000000000000000000C9010008FE
:10003000C901000800000000C9010008C90100084A
:10004000C9010008C9010008C9010008C901000868
:10005000C9010008C9010008C9010008C901000858
:10006000C9010008C9010008D1240008C90100081D
:10007000C9010008C9010008C9010008C901000838
:10008000C9010008C9010008C9010008C901000828
:10009000C9010008C9010008C9010008A12400081D
:1000A000C9010008C9010008C9010008C901000808
:1000B000292B0008C9010008C9010008C90100086E
:1000C000C9010008C9010008C9010008C9010008E8
:1000D000C9010008C9010008C9010008C9010008D8
:1000E000C9010008C9010008C9010008C9010008C8
:1000F000C9010008C9010008C9010008C9010008B8
:10010000C9010008C9010008C9010008C9010008A7
:10011000C9010008C9010008C9010008C901000897
:10012000C9010008C9010008C9010008C901000887
:10013000C9010008C9010008C9010008C901000877
:10014000C9010008C9010008C9010008C901000867
:10015000C9010008C9010008C9010008C901000857
:10016000C9010008C9010008C9010008C901000847
:10017000C9010008C9010008C90100080000000009
:10018000C9010008C9010008C9010008C901000827
:10019000C9010008C9010008C9010008C901000817
:1001A000C9010008C9010008C9010008C901000807
:1001B000C9010008C9010008C9010008C9010008F7
:0801C000C9010008C901000893
:1001C800684620F007018D4601B5BDE80140854627
:1001D8007047684620F007018D46FEE71549164A24
:1001E8001648521A921000239A4217D1144A154EF3
:1001F800D2F88830144C43F47003C2F88830D2F82F
:100208003432A41B43F04043C2F83432A410002512
:10021800A54209D100F01AF801F052BB50F823406A
:1002280041F823400133DFE756F825309847013578
:10023800EEE700BF0000002004000020443A000858
:1002480000ED00E0443A0008483A00080F49D1F8A8
:10025800883043F47003C1F888300D4B1A680020C9
:1002680042F001021A6098601A6822F0847222F43F
:1002780080321A60074A5A601A6822F480221A608B
:10028800D8604FF000638B60704700BF00ED00E05E
:100298000038024010300024174A1849936803F0C8
:1002A8000C03042B10B50DD0082B0DD0144B0B608C
:1002B800114B144A9B68C3F30313D25C0B68D340F9
:1002C8000B6010BD104BF2E7546850685268630227
:1002D800C2F3881200F03F004CBF0B4B084BB3FB36
:1002E800F0F35343044A5268C2F301420132520008
:1002F800B3FBF2F3DBE700BF003802400000002048
:100308000024F4008435000800127A00FEE700009B
:10031800C378012B10B5044603D994211F48FFF771
:10032800F5FF63780F2B03D995211C48FFF7EEFFE3
:10033800A3780F2B03D996211848FFF7E7FFE37836
:100348002278FBB1164BD9686378C943C1F30221FF
:10035800C1F10400C0B283400F2040FA01F1A07837
:10036800DBB201400B430F491B018818DBB280F850
:1003780000335009012302F01F0203FA02F241F888
:10038800202010BD5309012102F01F0201FA02F2D8
:100398002033044941F8232010BD00BF94350008DC
:1003A80000ED00E000E100E0012810B5084C09D993
:1003B80040F291110748FFF7A9FF236843F48033FF
:1003C800236010BD0028F8D1236823F48033F7E7B1
:1003D80000700040BA350008012810B5084C09D94A
:1003E8004FF4D6710748FFF791FF236843F40033B1
:1003F800236010BD0028F8D1236823F40033F7E701
:1004080000700040BA35000800F10043013B1F2B83
:1004180010B5044626D8164A22FA03F3DB0716D489
:1004280024F00043042B12D0082B10D0B4F5804FD1
:100438001AD0B4F5803F17D0B4F5003F14D0B4F506
:10044800402F11D040F275310A48FFF75FFF002CAA
:100458000ADA094BDB6803F03F031C4214BF012092
:10046800002010BD0228DBD1034B5B68F5E700BF15
:1004780003800080BA350008007000400A2838B5AB
:1004880005460C4603D954210E48FFF73FFF0F2CB1
:1004980003D955210B48FFF739FF04F0FC0101F19E
:1004A800804101F59C3104F003038A689B000F200A
:1004B800984022EA00028A608A689D4015438D6050
:1004C80038BD00BFE935000838B5464B98420446A8
:1004D8000D4636D0B0F1804F33D0A3F57C43984217
:1004E8002FD003F5806398422BD003F580639842A0
:1004F80027D003F58063984223D003F580639842A0
:100508001FD003F5704398421BD003F570539842EF
:1005180017D003F58063984213D003F5806398429F
:100528000FD0A3F5983398420BD003F58063984217
:1005380007D003F58063984203D0B1212A48FFF71A
:10054800E5FE6B6833F0100209D023F04002202A40
:1005580005D0402B03D0B2212348FFF7D7FEEB6824
:1005680033F4807206D0B3F5007F03D0B3211E4860
:10057800FFF7CCFE1B4A2368944212D002F5806232
:1005880094420ED0B4F1804F0BD0A2F58032944241
:1005980007D002F58062944203D002F5806294424B
:1005A80003D16A6823F070031343104A944207D0BA
:1005B80002F5806294421EBFEA6823F44073134335
:1005C8002360AB68E3622B68A362064B9C4203D0AE
:1005D80003F580639C4201D12B6923630123636186
:1005E80038BD00BF000001401B3600080010004065
:1005F80038B5274B984204460D4637D0B0F1804FA6
:1006080034D0A3F57C43984230D003F580639842F8
:100618002CD003F58063984228D003F58063984274
:1006280024D003F58063984220D003F570439842A4
:100638001CD003F57053984218D003F58063984294
:1006480014D003F58063984210D0A3F598339842EC
:100658000CD003F58063984208D003F58063984274
:1006680004D040F2F9110B48FFF750FE012D09D9CB
:100678004FF4FD710748FFF749FE236843F0010373
:10068800236038BD002DF8D1236823F00103F7E774
:10069800000001401B360008524B98422DE9F041FA
:1006A80004460D461FD0B0F1804F1CD0A3F57C4303
:1006B800984218D003F58063984214D003F58063FC
:1006C800984210D003F5784398420CD003F5705344
:1006D800984208D0A3F59433984204D040F29E2162
:1006E8004148FFF713FE2B6833F030020FD023F494
:1006F800803222F01002602A09D023F05003B3F5AB
:10070800803F04D040F29F213748FFF7FFFD6B6818
:10071800012B04D94FF428713348FFF7F7FD2B69F3
:1007280033F0020304D040F2A1212F48FFF7EEFD79
:10073800236A2A6823F010032362266A6768A3697C
:1007480023F0807323F4E64343EA02282B696A689E
:1007580026F02006134346EA0316224B9C4203D098
:1007680003F580639C4234D1AB6833F0040304D0B2
:1007780040F2BF211C48FFF7C9FD6B6933F008033D
:1007880004D04FF430711848FFF7C0FDEB6933F41B
:10079800007304D040F2C1211348FFF7B7FDAB69DD
:1007A80033F4807304D040F2C2210F48FFF7AEFD46
:1007B8006B69EA6926F0800646EA0316AB6826F0FC
:1007C800400646EA0316AB6927F44067134347EA35
:1007D8008307EB686760C4F81880A3632662BDE8E6
:1007E800F08100BF000001401B3600084E4B9842C4
:1007F8002DE9F04104460D4617D0B0F1804F14D0D2
:10080800A3F57C43984210D003F5806398420CD03E
:1008180003F58063984208D003F57843984204D0E2
:1008280040F2EF214148FFF771FD2B6833F03002A9
:100838000FD023F4803222F01002602A09D023F06E
:100848005003B3F5803F04D04FF43C713748FFF7AD
:100858005DFD6B68012B04D940F2F1213348FFF7A5
:1008680055FD2B6933F0020304D040F2F2212F48E2
:10087800FFF74CFD236A2A6823F480732362266AF3
:100888006768E36923F4803323F0730343EA0208BB
:100898002B696A6826F40076134346EA0326224B3E
:1008A8009C4203D003F580639C4234D1AB6833F09B
:1008B800040304D040F20F311C48FFF727FD6B6991
:1008C80033F0080304D04FF444711848FFF71EFDB5
:1008D800EB6933F4007304D040F211311348FFF789
:1008E80015FDAB6933F4807304D040F212310F4820
:1008F800FFF70CFD6B69EA6926F4006646EA0326F1
:10090800AB6826F4806646EA0326AB6927F44057AD
:10091800134347EA0317EB686760C4F81C80E36376
:100928002662BDE8F08100BF000001401B360008C8
:1009380038B51A4B984204460D461FD0B0F1804F87
:100948001CD0A3F57C43984218D003F580639842E5
:1009580014D003F58063984210D003F57843984289
:100968000CD003F57053984208D0A3F594339842FD
:1009780004D040F2CE510A48FFF7C8FC35F008030E
:1009880004D040F2CF510648FFF7C0FCA16921F41A
:10099800006141EA0521A16138BD00BF00000140A6
:1009A8001B36000838B5154B984204460D4617D03B
:1009B800B0F1804F14D0A3F57C43984210D003F5D2
:1009C800806398420CD003F58063984208D003F501
:1009D8007843984204D040F2EB510948FFF796FC5F
:1009E80035F0080304D040F2EC510548FFF78EFCBF
:1009F800E36923F008031D43E56138BD00000140A9
:100A08001B36000838B5104B984204460D4608D0EE
:100A180003F58063984204D040F6A9210B48FFF7FC
:100A280075FC012D09D940F6AA210848FFF76EFC8C
:100A3800636C43F40043636438BD002DF8D1636CE4
:100A480023F40043F7E700BF000001401B3600080D
:100A58002C4B984270B504460D46164637D0B0F177
:100A6800804F34D0A3F57C43984230D003F580639F
:100A780098422CD003F58063984228D003F5806310
:100A8800984224D003F58063984220D003F5704340
:100A980098421CD003F57053984218D003F5806330
:100AA800984214D003F58063984210D0A3F5983388
:100AB80098420CD003F58063984208D003F5806310
:100AC800984204D040F614310F48FFF71FFC35F068
:100AD800FF0300D125B940F615310B48FFF716FC86
:100AE800012E08D940F616310748FFF70FFCE368D6
:100AF8001D43E56070BD002EF9D1E36823EA0505C2
:100B0800F7E700BF000001401B3600082DE9F84F49
:100B18004C4B984204460D462BD003F5806398420F
:100B280027D003F58063984223D003F58063984269
:100B38001FD003F5806398421BD003F58063984269
:100B480017D003F58063984213D003F58063984269
:100B58000FD003F5806398420BD003F58063984269
:100B680007D003F58063984203D093213648FFF7F6
:100B7800CDFB2B881BB994213348FFF7C7FB2B7992
:100B8800032B03D995213048FFF7C0FBEB79022BE3
:100B980003D996212C48FFF7B9FBDFF8AC90002663
:100BA80001274FF003082A6807FA06F3934343D155
:100BB8004FEA460A236808FA0AFB6FEA0B0B03EAB6
:100BC8000B0323602B79216803FA0AF2013B0A43DD
:100BD800012B226023D86B79032B03D9A82148461F
:100BE800FFF794FBA3680BEA0303A3606B79A26881
:100BF80003FA0AF31343A360AB79012B03D9AF219E
:100C08004846FFF783FB636807FA06F223EA020304
:100C18006360AB796268B3409BB213436360E36877
:100C280008FA0AF223EA0203E360EB79E26803FABE
:100C38000AFA4AEA0202E2600136102EB3D1BDE890
:100C4800F88F00BF000002404A36000838B5194B3B
:100C5800984204460D4620D0A3F54C4398421CD038
:100C680003F58063984218D003F58063984214D046
:100C780003F58063984210D003F5444398420CD0A2
:100C8800A3F51C43984208D003F58063984204D02A
:100C98004FF468710848FFF739FBB5F5007F04D3B6
:100CA80040F2A1310448FFF731FBC5F30805A562FE
:100CB80038BD00BF001001407A36000838B5304B07
:100CC800984205460C4620D0A3F54C4398421CD0C8
:100CD80003F58063984218D003F58063984214D0D6
:100CE80003F58063984210D003F5444398420CD032
:100CF800A3F51C43984208D003F58063984204D0BA
:100D080040F263711F48FFF701FB621E1F2A34D8A7
:100D18001D4BD340DB072AD4402C28D0B4F5807F64
:100D280025D0B4F5007F22D0B4F5806F1FD0B4F57C
:100D3800006F1CD0B4F5805F19D0B4F5804F16D081
:100D4800B4F5004F13D0B4F5803F10D0B4F5003F90
:100D58000DD0B4F5802F0AD0B4F5002F07D0B4F524
:100D6800001F04D040F264710648FFF7CFFAEB6920
:100D78001C4214BF0120002038BD802CCCD1F6E7DE
:100D8800001001407A3600088B8000800F2810B5CB
:100D9800044603D98D210548FFF7B8FA044B1868B3
:100DA80020F00F002043186010BD00BFAB360008CC
:100DB800003C024038B53C4B984205460C460BD0E7
:100DC80003F58073984207D003F58073984203D0E7
:100DD80089213648FFF79AFA236833F0407303D025
:100DE8008A213248FFF792FA2379012B03D98B2104
:100DF8002E48FFF78BFA6379012B03D98C212B48F6
:100E0800FFF784FAA36833F0405303D08D212748B5
:100E1800FFF77CFAE36833F0407212D0B2F1806FCA
:100E28000FD023F0A062B2F1006F0AD0B3F1306F97
:100E380007D003F17143012B03D98E211B48FFF71B
:100E480065FA236933F4006303D08F211748FFF74D
:100E58005DFA237D013B0F2B03D990211348FFF73F
:100E680055FA6A682179236822F0407222F4807268
:100E780043EA012313436B60AB680D4AE1681A40EB
:100E880023690B43A1680B43617943EA4103134388
:100E9800AB60227DEB6A013A23F47003D2B243EAD5
:100EA8000253EB6238BD00BF00200140DC36000869
:100EB800FDF7FFC038B5124B984204460D460CD0DA
:100EC80003F58073984208D003F58073984204D0E4
:100ED80040F22B110B48FFF719FA012D09D94FF4ED
:100EE80096710848FFF712FAA36843F00103A3605C
:100EF80038BD002DF8D1A36823F00103F7E700BF40
:100F080000200140DC3600082DE9F0419846394BB5
:100F1800984205460F4614460CD003F58073984254
:100F280008D003F58073984204D04FF41A71324800
:100F3800FFF7ECF9122F04D940F269212E48FFF788
:100F4800E5F9661EF3B20F2B04D940F26A212A484C
:100F5800FFF7DCF9B8F1070F04D940F26B212648F6
:100F6800FFF7D4F9092F1BD9A7F10A03EA6803EBA5
:100F780043030721994022EA010208FA03F31343C5
:100F8800EB60062C18D86C6B06EB86061F23B34063
:100F980024EA030407FA06F626436E63BDE8F081E7
:100FA8002A6907EB470107238B4022EA030208FA64
:100FB80001F313432B61E4E70C2C0DD8E31F2E6BD0
:100FC80003EB83031F249C4026EA040407FA03F674
:100FD80034432C63BDE8F0810D3C04EB8403EA6ADA
:100FE8001F249C4022EA040207FA03F41443EC622B
:100FF800BDE8F08100200140DC3600080B4B984228
:1010080010B504460CD003F58073984208D003F558
:101018008073984204D040F2DF210548FFF776F943
:10102800A36843F08043A36010BD00BF00200140C7
:10103800DC3600080A4B984210B504460CD003F57C
:101048008073984208D003F58073984204D040F228
:1010580075310448FFF75AF9E06C80B210BD00BF43
:1010680000200140DC36000838B5134B984204468E
:101078000D460CD003F58073984208D003F58073B1
:10108800984204D040F2F2510C48FFF73FF96B1E2A
:10109800DBB21F2B04D80A4A22FA03F3DB0704D475
:1010A80040F2F3510548FFF731F923681D4214BF98
:1010B8000120002038BD00BF00200140DC360008B8
:1010C8008B800080012810B5044605D9052803D077
:1010D800D0210448FFF71AF9034B00221A701C703C
:1010E80010BD00BF1B370008023802402DE9F0414F
:1010F8001D4630F4800380460C461746069E04D0F1
:1011080040F2A5112448FFF701F9A31E3D2B04D98D
:101118004FF4D3712048FFF7F9F8A7F1C003F02B7B
:1011280004D940F2A7111C48FFF7F0F8082D04D89D
:101138004FF4AA73EB40DB0704D44FF4D47116487C
:10114800FFF7E4F8B31E0D2B04D940F2A911124899
:10115800FFF7DCF847F6C07292FAA2F24FF440307B
:10116800B2FA82F290FAA0F04FF07061B0FA80F013
:1011780091FAA1F144F000536D08974043EA08033F
:10118800013DB1FA81F13B4385402B438E40034A30
:1011980033435360BDE8F0811B3700080038024034
:1011A800012810B5084C09D940F2BF110748FFF7CC
:1011B800ADF8236843F08073236010BD0028F8D190
:1011C800236823F08073F7E7003802401B370008D4
:1011D800022810B5044604D940F2F7210448FFF765
:1011E80095F8044A936823F003031C43946010BDE8
:1011F8001B3700080038024030F0800310B5044661
:1012080012D020F02003902B0ED020F04003A02B0A
:101218000AD020F01003C02B06D0F02804D04FF4D9
:101228004B710548FFF772F8044A936823F0F003FE
:101238001C43946010BD00BF1B37000800380240F3
:1012480030F4805310B504460CD020F40063B3F595
:10125800A05F07D0B0F5C05F04D040F24B3105481D
:10126800FFF754F8044A936823F4E0531C4394604E
:1012780010BD00BF1B3700080038024030F480530F
:1012880010B504460CD020F40063B3F5A05F07D076
:10129800B0F5C05F04D040F26A310548FFF736F870
:1012A800044B986820F4604040EAC400986010BD80
:1012B8001B370008003802401D4A936803F00C03EE
:1012C800042B10B51AD0082B1AD01A4B184A0360F1
:1012D80093681949C3F30313CC5C0368E340436084
:1012E8009468C4F382240C5D23FA04F48460926841
:1012F800C2F342328A5CD340C36010BD0F4BE5E7AE
:101308005468516852686302C2F3881201F03F01C1
:101318004CBF0A4B074BB3FBF1F35343044A5268E3
:10132800C2F3014201325200B3FBF2F3CEE700BF31
:10133800003802400024F4000B37000800127A003D
:101348000E4B034070B504460E4603B920B940F26F
:101358003D510B48FEF7DAFF012E0A4D08D940F23D
:101368003F510748FEF7D2FF2B6B1C432C6370BD1F
:10137800002EF9D12B6B23EA0404F7E700E80B8170
:101388001B37000800380240C30470B504460E46F7
:1013980000D420B940F2B1510A48FEF7B7FF012E38
:1013A800094D08D940F2B2510648FEF7AFFF2B6C41
:1013B8001C432C6470BD002EF9D12B6C23EA040465
:1013C800F7E700BF1B370008003802400E4B034008
:1013D80070B504460E4603B920B940F2DF510B48F8
:1013E800FEF794FF012E0A4D08D94FF4BC61074857
:1013F800FEF78CFF6B6C1C436C6470BD002EF9D13A
:101408006B6C23EA0404F7E74C8008931B37000849
:1014180000380240A0F12103DBB21C2B10B50446B2
:1014280004D8114A22FA03F3DB070CD404F0DF03D3
:10143800412B08D0A4F17903062B04D940F6C80142
:101448000A48FEF763FF6209012A094B06D11868AA
:1014580004F01F04E04000F0010010BD022A0CBF98
:10146800186F586FF4E700BF010001151B3700081B
:101478000038024013B50023019341F2883431202B
:10148800FFF7C8FF019B01330193019BA34201D0E1
:101498000028F4D03120FFF7BDFF003018BF01202D
:1014A80002B010BD38B5037913F0FB0F044603D022
:1014B80042212A48FEF72AFF637903F0FB02082A33
:1014C80005D0102B03D043212448FEF71FFF2268C4
:1014D800D30DDB0503B91AB944212048FEF716FFDE
:1014E800A379012B03D945211C48FEF70FFFA279E8
:1014F8002379216842B31A4A1568C8430540156024
:10150800556803F1804303F59E33284050601868FE
:101518000143196023689068D94308409060D068F7
:101528000140D1606179102906D191681943916011
:10153800D1680B43D36038BD01F1804202F59E3279
:1015480011680B43136038BD03F1804303F59E33E4
:101558001A6822EA0101196038BD00BF4A3700083D
:10156800003C0140C30DDB0510B5044603B918B9AA
:10157800E2210348FEF7CAFE024B5C6110BD00BFC2
:101588004A370008003C0140704770471423436005
:10159800704700207047002070470000014B03602F
:1015A800704700BF8437000870472DE9F0411D4699
:1015B800036804461B6816460F4698472368394651
:1015C800DB682046984723683146DB682046984701
:1015D80023682946DA6820469047236820465B68D6
:1015E800BDE8F0411847036870B504461B68164605
:1015F8000D46984723682946DB68204698472368A4
:101608003146DB6820469847236820461B68984780
:10161800236845F00101DB682046984723680021CC
:101628001B6920469847236805465B68204698470B
:10163800284670BD42680023934202D000BF0133A0
:10164800FAE77047014B0248186070470400002011
:10165800C4030020704700207047704710B52C2144
:101668000446FFF7F7FF204610BDD0ED036AD0ED22
:10167800017A90ED046AD0ED074AC0ED046A07EEDE
:10168800102A76EEA66A90ED065AC0ED027A05EEAB
:10169800901A67EEA47A37EE667A45EE857A41604D
:1016A800C26037EE067AD0ED086A80ED056A47EE2B
:1016B800667A90ED0A7A77EE877A90ED097AC0ED2E
:1016C8000A7AF4EEC77AF1EE10FAC8BF80ED0A7A0A
:1016D800D0ED0A7AB1EE477AF4EEC77AF1EE10FA55
:1016E80048BF80ED0A7A806A7047002343608360B0
:1016F800C360036143618362704710B507EE901AB7
:1017080007EE102A1A46FFF7F0FF37EE877A029B9A
:1017180080ED067AF1EE677AC0ED077A02624362DD
:1017280010BD000007EE102A1A46094B036010B5D9
:1017380007EE901AFFF7D9FF37EE877A029B80ED04
:10174800067AF1EE677AC0ED077A0262436210BD4D
:10175800A0370008704710B514210446FFF77AFF38
:10176800204610BD836810B50446D3B94268536952
:1017780023F400535361A368052B27D1E368322271
:1017880003F00701B3FBF2F30F22B3FBF2F2C2EB53
:1017980002129B1A274AD35C994263685A691AD283
:1017A80011E0012B04D14268536943F40053E1E787
:1017B800022B13D1C1686423B1FBF3F203FB1212AD
:1017C80043683AB95A6942F400525A61E3680133EE
:1017D800E36010BD5A6922F40052F6E7042B10D1D9
:1017E800C1683223B1FBF3F203FB1212436822B93A
:1017F8005A6942F400525A61BDE75A6922F400520C
:10180800F9E7032BB7D10C4801F0FEF9236903F57A
:101818004873984202D90123A360ACE7E1686422C7
:10182800B1FBF2F302FB1313182B63685A69E5D86E
:10183800DFE700BFA8370008C003002010B5002369
:101848000446C3608160024801F0DEF9206110BDE2
:10185800C0030020164A174B10B50360136B6FEADC
:1018680053236FEA43231363134B43609A6822F0B0
:1018780040629A609A6842F040629A605A6822F41C
:1018880000525A605A685A601A6822F040621A6018
:101898001A6842F0806204461A600321FFF7CEFFFF
:1018A800002301222146054801F07AF9204610BD9F
:1018B80000380240C0370008000C0240C003002076
:1018C80010B50F4C86B000F078F8204601F00AFCFD
:1018D80001A8FFF7BFFF4FF448710A4801F0A0F9CB
:1018E800052101A8FFF7AAFF074800F00FFB2046D3
:1018F80001F096FA01A8FFF72DFF002006B010BDF1
:1019080094010020C00300200402002013B5012028
:10191800FFF7D8FBFFF7AEFD0128044600D0FEE72D
:10192800092300934FF4800002234FF4D872082152
:10193800FFF7DCFB2046FFF733FC3920FFF76AFD91
:101948000028FAD04FF080500121FFF71DFD01203B
:10195800FEF72AFD4FF48030FEF756FD0028F9D037
:101968003120FFF757FD0028FAD00120FEF734FD9B
:101978004FF40030FEF748FD0028F9D00720FFF7A4
:1019880005FA0220FFF724FC0020FFF735FC4FF48E
:10199800A050FFF755FC4FF48050FFF76FFC02B0E2
:1019A800BDE81040FEF778BC08B5FEF74FFCFFF71E
:1019B800ADFFBDE80840FEF76FBCFFF7F5BF0000BC
:1019C80010B5034B0360044600F074FF204610BDB9
:1019D800D437000810B50446FFF7F2FF204604216B
:1019E800FFF738FE204610BD10B5044600F06AFF28
:1019F800014B2360204610BDD437000838B5054692
:101A08004C1E14F8011F19B1284600F0B9FFF8E779
:101A180038BDFFF7F3BF30B585B000230A228DF833
:101A28000F301546B1FBF5F405FB141304A9114456
:101A3800303301F80C3C531EDBB221462CB901AB04
:101A48009918FFF7DBFF05B030BD1A46EAE7704783
:101A580010B554210446FFF7FDFD204610BD0000D7
:101A68003F4A404B0360136B30B540F2FF142343E9
:101A780013633D4B43609D6825F003059D609D6899
:101A880045F003059D605D6825F001055D605D68B2
:101A98005D601D6825F003051D601D6845F00105A2
:101AA8001D60136B23431363304B83609D6825F0DF
:101AB80040759D609D6845F040759D605D6825F4A2
:101AC80080555D605D685D601D6825F040751D602E
:101AD8001D6845F080751D60156B254315639D686D
:101AE800C36025F040659D609D6845F040659D6038
:101AF8001D6825F040651D601D6845F000651D6086
:101B0800156B254315639D68036125F440159D6099
:101B18009D6845F440159D605D6825F480655D60AD
:101B28005D685D601D6825F440151D601D6845F4FD
:101B380080151D60156B2C4314639A68436122F469
:101B480040029A609A6842F440029A601A6822F445
:101B580040021A601A6842F400021A6030BD00BFE1
:101B68000038024008380008000C0240001002400B
:101B7800836800295A690FDD22F48052FF295A61CF
:101B88000B46A8BFFF2340F244515943FF23B1FB42
:101B9800F3F1044BD963704742F480525A6101F162
:101BA800FF03F0E700000140036900295A690DDDD1
:101BB80042F480625A61C1F1FF0140F24453594333
:101BC800FF23B1FBF3F1054B99637047494222F4B7
:101BD8008062FF295A61A8BFFF21EEE7000001409B
:101BE8002DE9F843374D3849384E04462846FFF763
:101BF80010FF28463649FFF70CFF6268536943F027
:101C080001035361A268536923F480535361226925
:101C1800536923F480635361E3685A6A22F47002BB
:101C28005A625A6A42F480125A6263695A6A22F402
:101C380070425A625A6A012142F480525A62084636
:101C4800FFF7C4FB40F2455300250827A3624FF471
:101C58008073E36204F120013046276265622563E0
:101C6800FEF732FC30460121FEF7C2FC4FF00108B6
:101C7800602304F134096363494630462564C4F897
:101C88003880E5636564A564E5642565FEF7AEFD07
:101C980039463046FEF786FE49463046FEF7FCFCDC
:101CA80039463046FEF744FE41463046FEF7AAFE66
:101CB80029462046FFF75CFF29462046BDE8F84341
:101CC800FFF772BFBC030020DC37000800000140AA
:101CD800EC370008704710B504210446FFF7BAFC3A
:101CE800204610BD014B0360704700BF183800083C
:101CF80008B5012308481A46C9B2FFF705F906488E
:101D0800FFF77CF902210448FFF7AEF90028F9D063
:101D18000148FFF78FF908BD0020014030B5114C8C
:101D280087B001214FF48070FFF750FB0125002395
:101D3800694620468DF8043000938DF805300393EA
:101D4800029304938DF81450FFF734F8294620467F
:101D5800FFF7B0F82B462A460B212046FFF7D4F8A8
:101D680007B030BD00200140F7B52A4A2A4C136B52
:101D780043F00703136303238DF80430022500237F
:101D8800694620468DF807300095FEF7BFFE04230C
:101D9800694620460093FEF7B9FE082369462046A7
:101DA80000931026FEF7B2FE694620460096FEF71D
:101DB800ADFE4023694620460093FEF7A7FE802328
:101DC800694620460093FEF7A1FE0096134E694629
:101DD8003046FEF79BFE20276946304600970126CD
:101DE800FEF794FE694620460096FEF78FFE694688
:101DF800204604F580640097FEF788FE6946204671
:101E08000096FEF783FE694620460095FEF77EFEA3
:101E180003B0F0BD00380240000002400008024054
:101E280010B50446FFF7A0FF2046BDE81040FFF7B5
:101E380075BF704710B518210446FFF70BFC204604
:101E480010BD027B836832B1002202735A6942F4E2
:101E580080725A617047012202735A6922F48072B3
:101E6800F7E700001C4A1D4B0360136B30B540F2C6
:101E7800FF152B4313631A4B43609C6824F0C0047E
:101E88009C609C6844F0C0049C601C6824F0C004FA
:101E98001C601C681C60DC6844F04004DC60136B48
:101EA8002B4313630F4B83609A6822F440329A6085
:101EB8009A6842F440329A605A6822F480725A60F2
:101EC8005A685A601A6822F440321A601A6842F452
:101ED80080321A6030BD00BF003802402838000840
:101EE80000100240000002404FF0FF3310B543617C
:101EF80000230446037301464FF4FA72024800F0C7
:101F08004FFE206110BD00BFC0030020436870B5BC
:101F180004461A69120701D500BFFAE70123636175
:101F28006422217C0F480F4D00F062FE0D4800F03E
:101F38006BFE00F5FA6663681B691B070FD4094836
:101F480000F062FEB042F6D96369012BF3D1322268
:101F5800217C284600F04CFE02236361EBE76069B0
:101F680070BD00BFC003002070477047704710B5B0
:101F780024210446FFF76EFB204610BD10B524212E
:101F88000446FFF767FB204610BD10B5D021044674
:101F9800FFF760FB204610BD1449154B03600B6B1F
:101FA8006FEA53236FEA43230B63124B436099682C
:101FB80021F440419960996841F440419960596819
:101FC80021F08001596059685960196821F440412D
:101FD8001960196841F480411960074B0361074B88
:101FE80043638365C367C0F8A03070470038024078
:101FF8005C380008001002403C3800084C380008E3
:102008004268536923F080032DE9F04164210446B6
:1020180053613348DFF8CC8000F002FE6421304879
:1020280000F0FEFD012363610223A3610323E36142
:1020380004232362062363620723A3620E23E36259
:1020480004F114050F23236304F134072E4656F8D0
:10205800041B4046FFF74CFEBE427064F7D162682D
:102068001F4853691F4F43F080035361642100F0F8
:10207800D7FD55F8041B3846FFF73AFE6B6CB5429E
:10208800A0EB0300A866F4D104F1A40304F1C40191
:10209800002243F8042B9942FBD16FF0FF03A3639E
:1020A8006FF0BF03E3636FF07F0323646FF03F03B8
:1020B80063644023A3648023E364C02323654FF44F
:1020C800807363654FF4C873A360227300230422EE
:1020D8002146034800F064FD0020BDE8F08100BF00
:1020E800C003002058010020037B72B60BB1002208
:1020F800027362B6184670474FF48070704700EB61
:10210800810030B5826BD0F8A45002FB05F481B190
:10211800D0F8A030426B062902FB03422B440BD8AF
:10212800D0F8A810C06B0B4400FB012292FBF3F01F
:1021380030BD62006B00F3E722442B44F6E7826867
:1021480000F1A403002053F8041B8A4204DB013089
:102158000828F8D14FF0FF30704700002DE9F84FFC
:10216800DFF870A0DFF87090044600F1140500F164
:1021780034084FF0000B55F8041B5046FFF7B8FD24
:102188006B6CC01A09FB00F0AB6E90FBF3F010F516
:102198007A7054BFC5F88C00C5F88CB04545EAD1B3
:1021A8002046FFF7CCFF431C014611D02046FFF71D
:1021B800A6FF01230646074684F8C430012384F8A5
:1021C800C530C4F8C860C4F8CC702373BDE8F88F74
:1021D8000023F1E75801002018FCFFFF704710B5F5
:1021E80044210446FFF736FA204610BD014B036030
:1021F800704700BF703800082DE9F0410446006CB4
:1022080003681B6888469847206C0368D421DB68FC
:102218009847206C03681921DB689847206C03688D
:102228001B689847206C0368D521DB689847206CA9
:10223800036801211B699847000207B2206C0368F4
:1022480001211B6998470743206C036801211B691A
:102258009847000206B2206C036801211B69984761
:102268000643206C036801211B699847000205B2E8
:10227800206C036800211B6998470543206C03689C
:102288005B683FB236B22DB29847B8F1000F08D05C
:10229800A36A3B44A362E36A3344E362236B2B449F
:1022A8002363A36AE169226BE06AFB1AAD1A236112
:1022B800192293FBF2F301EB4303E361236AA5615F
:1022C800301A606190FBF2F003EB40002062636A11
:1022D800206C95FBF2F503EB4505036865621B6806
:1022E8009847206C0368D421DB689847206C036802
:1022F8002921DB689847206C03681B689847206C85
:102308000368D521DB689847206C036801211B69A5
:102318009847000207B2206C036801211B6998479F
:102328000743206C036801211B699847000206B225
:10233800206C036801211B6998470643206C0368D9
:1023480001211B699847000205B2206C036800212F
:102358001B6998470543206C03685B6898473FB240
:1023680036B22DB201236760A660E56084F83C3080
:10237800BDE8F0810021FFF73FBF406B003018BF78
:102388000120704711F1FF3101D300BFFAE7704710
:1023980038B50446102208462164A823D421FFF743
:1023A80004F9002323616361A361A362E3622363E9
:1023B800E3612362636242F210712046FFF7E2FF95
:1023C8000F226363D421206CFFF70DF9682804BF3E
:1023D800012363631022A823D421206CFFF7E5F8BA
:1023E80038231E22D421206CFFF7DFF800232E2289
:1023F800D421206CFFF7D9F800231222D421206CB5
:10240800FFF7D3F860232022D421206CFFF7CDF802
:1024180038231F22D421206CFFF7C7F842F210712D
:102428002046FFF7AFFF00212046FFF7E5FE002317
:10243800A3634FF47A7501212046FFF7DDFE64217E
:102448002046FFF79FFF013DF5D14FF47A72A36A4A
:10245800E56193FBF2F32562A3626562E36A656056
:1024680093FBF2F3A560E362E560236B054893FBF9
:10247800F2F3214623630A222B4600F091FB84F8ED
:102488003C5038BDC0030020704710B514210446E5
:10249800FFF7E0F8204610BD094B1B6913F0C00395
:1024A8000BD0C02B0CBF01234FF0FF33054A116836
:1024B80040200B441360FFF755B80123F6E700BF2F
:1024C800000802400C000020094B1B6913F0300380
:1024D8000BD0302B0CBF4FF0FF330123054A116896
:1024E80010200B441360FFF73DB84FF0FF33F5E7BA
:1024F8000004024010000020304A314B0360136B87
:1025080030B540F2FF14234313632E4B43609D689C
:1025180025F440559D609D6845F440559D601D68B3
:1025280025F440551D601D681D60DD6845F4805523
:10253800DD60156B254315639D68836025F4404570
:102548009D609D6845F440459D601D6825F44045A3
:102558001D601D681D60DD6845F48045DD60136BF6
:1025680023431363184BC3609D6825F440759D6031
:102578009D6845F440759D601D6825F440751D6093
:102588001D681D60DD6845F48075DD60156B2C43A2
:1025980014639A68036122F440629A609A6842F46C
:1025A80040629A601A6822F440621A601A681A60D7
:1025B800DA6842F48062DA6030BD00BF0038024059
:1025C800843800080008024000040240F0B5344B8B
:1025D80000241C60334B87B001214FF480401C60FD
:1025E800FEF7F4FE01210420FEF7AAFE01210220D5
:1025F800FEF7A6FE01254026032702A92A480296CF
:102608008DF80C408DF80E408DF80F508DF80D7038
:10261800FEF77CFA06210220FDF730FF049610260B
:102628000DEB06008DF816508DF814408DF81560E6
:10263800FEF738FF172301A88DF804308DF8054000
:102648008DF806508DF80750FDF762FE02A917486D
:102658008DF80C408DF80E4002968DF80F508DF8CD
:102668000D70FEF753FA04212846FDF707FF0DEB1E
:10267800060004968DF816508DF814408DF81560F4
:10268800FEF710FF0A2301A88DF804308DF80540E5
:102698008DF806508DF80750FDF73AFE07B0F0BDEB
:1026A8000C00002010000020000802400004024036
:1026B800034B18682C234343B42093FBF0F0704776
:1026C8000C000020034B18682C234343B42093FBD1
:1026D800F0F070471000002038B5C368364D2DED76
:1026E800048B43600369836004462846FFF7E0FFD4
:1026F800E0602846FFF7E6FF6268E3689FED2F5A1F
:10270800D4ED056ADFED2E5A9FED2E6A20619B1AE3
:1027180007EE103AB8EEC77AA3689FED2B9A27EE1A
:10272800057A66EEA56A47EE066AC31A04F17800D0
:1027380007EE903AF8EEE77AC4ED056AB0EE667AED
:10274800D4ED066A67EE857A66EEA56A47EE866A74
:10275800D4ED077AC4ED066A77EEC77A17EE102A29
:1027680017EE901AFEF781FFA269D4ED087A07EEFA
:10277800102A77EEC77A08EE900A17EE901A04F13D
:10278800A400FEF772FF68EE898A2434FDEEE87A29
:1027980008EE100A17EE901A2046FFF7E9F928EE1E
:1027A800098A2046FDEEC87ABDEC048B17EE901A14
:1027B800BDE83840FFF7F8B99C010020CDCCCC3DEE
:1027C8006666663F0000003E00007F4373B50E4B0F
:1027D800002504464FF07E5640F8243BFFF740F9A9
:1027E8002B462A462946009604F17800FEF79AFF00
:1027F80000962B462A46294604F1A400FEF792FFCC
:10280800204602B070BD00BF94380008F7B5154FD8
:10281800154E04464FF07E552430FFF7E1F9009538
:102828002B463A46314604F17800FEF766FF0095DC
:102838002B463A46314604F1A400FEF75EFF002518
:1028480000236361A361E36123626560A560E560BD
:1028580025612B4604222146044800F0A1F92846A8
:1028680003B0F0BDEC51B83DCDCC4C3FC0030020C7
:10287800C16170470162704710B5084B044640F8C3
:10288800A43BFEF7EAFE04F17800FEF7E6FE04F149
:102898002400FFF7DCF8204610BD00BF943800087C
:1028A80010B50446FFF7E8FF2046D021FEF7D2FE18
:1028B800204610BD704710B504210446FEF7CAFE35
:1028C800204610BD014B0360704700BFA8380008C0
:1028D800274A136B30B540F2FF152B431363254B82
:1028E8009C6824F440249C609C6844F440249C60C8
:1028F8001C6824F440241C601C6844F400241C60F8
:10290800106B28431063986820F44010986098680A
:1029180040F440109860186820F440101860186857
:1029280040F400101860586A20F0F0005862586AA5
:1029380040F070005862586A20F470605862586A13
:1029480040F4E0605862536C43F0100353640A4B40
:1029580000220C205A60490018609A60074AB2FBAE
:10296800F1F1D9601A6842F001021A6030BD00BF67
:1029780000380240000002400010014000E6DF0C71
:1029880010B50C4680210548FEF798F90028F9D0C3
:1029980021460248BDE81040FEF758B90010014032
:1029A800704710B538210446FEF754FE204610BD86
:1029B8001049114B03600B6B6FEA53236FEA4323F3
:1029C8000B630E4B83619A6822F030029A609A6812
:1029D80042F030029A605A6822F004025A605A683B
:1029E8005A601A6822F030021A601A6842F010021F
:1029F8001A60704700380240B838000800040240E6
:102A0800826938B55369002523F00403C56104467B
:102A180053614FF48073056245628562C562056340
:102A2800456343608360C3600574457401462B4663
:102A38001922034800F0B4F82575284638BD00BFB0
:102A4800C003002000EB8202D36A126A9B1A23EAB1
:102A5800E3731022C3F5805393FBF2F30A6802EB89
:102A680042021344042293FBF2F30B607047000008
:102A780038B5C569044615B1012D17D038BD0521F3
:102A88002648FFF735F90821E0622448FFF730F9B6
:102A9800294620632148FFF72BF9A269606353692F
:102AA80043F0040353610123E36138BD05211B484A
:102AB800FFF71EF9082120621848FFF719F90021CD
:102AC80060621648FFF714F9A269A062536923F0FF
:102AD8000403536104F1080100222046FFF7B2FF06
:102AE8002A46211D2046FFF7ADFF022204F10C0102
:102AF8002046FFF7A7FFA268EF2A4FF0000304DC87
:102B0800D12A257403DD637402E02374FBE765743E
:102B18000023E3610123237538BD00BF580100205D
:102B2800F8B54FF080431A69D20714D5194F4FF6FC
:102B3800FE721A61002414263D4606FB0473DA6807
:102B480052B1DA68013ADA600134102CF5D1124A30
:102B5800136801331360F8BD9A68DA601A7CFF2A9B
:102B68001FBF1A7C0132D2B21A7406FB04F3EA18AA
:102B7800527C002AE8D1EA580AB1EB58984706FB7C
:102B880004535A68002ADFD0586803689B6898473E
:102B9800DAE700BF180000201400002070477047D3
:102BA800F0B572B6114D00244FF0FF304FF0140EFF
:102BB8002F460EFB04F605EB060CAE5926B9DCF8D9
:102BC8000460002E08BF20460134102CF1D1441CAB
:102BD8000AD0C4B2142565437C1900267E51616071
:102BE800A260E2602674637462B6F0BD180000202B
:102BF8000448142303FB01010023CA608A600B7494
:102C0800704700BF1800002082B072B6034B1B68E3
:102C1800019362B6019802B0704700BF140000200B
:102C280007B50246FFF7F0FF014401911046FFF790
:102C3800EBFF019B984201D200BFF7E703B05DF8B4
:102C480004FB000010B52DED028B8CB0002966D076
:102C5800344B994228BF194607EE901A9FED327AF5
:102C6800F8EEE77A012187EE278A0846FCEEC87A53
:102C780017EE904AFEF788FB240C03A8FEF71CFB0E
:102C88000794013407EE904AF8EEE77A002288EEBE
:102C9800277A07A94FF0804008920A92DFED237A3D
:102CA80077EE677AFCEEE77ACDED017ABDF804306D
:102CB8000993FDF709FC01214FF08040FDF798FCCE
:102CC800012211464FF08040FDF7C2FE184A136BEF
:102CD8006FEA53236FEA43231363164B9A6822F46F
:102CE80040329A609A6842F440329A605A6822F4F4
:102CF80080725A605A685A601A6822F440321A6020
:102D08001A6842F480321A600B4B102283F81C2395
:102D18004FF080521A600CB0BDEC028B10BD01213F
:102D28009AE700BF80F9370360FECD4C0000803F72
:102D3800003802400000024000E100E0F8B500223F
:102D48000C4D142713464FF47A7607FB02F4291921
:102D58000132102A2B514B608E60CB600B744B7480
:102D6800F3D1054A4FF47A7113600360FFF76AFFE5
:102D780062B6F8BD1800002014000020704710B596
:102D880008210446FEF766FC204610BD10B5034B2B
:102D980003600446FEF708FC204610BDCC38000846
:102DA80010B50446FFF7F2FF20461021FEF752FC4B
:102DB800204610BD10B5044621B10349FEF729FE8F
:102DC800204610BD0149F9E7283A00082D3A0008C5
:102DD8001049114B03600B6B6FEA53236FEA4323CF
:102DE8000B630E4B43609A6822F440329A609A68EB
:102DF80042F440329A605A6822F480725A605A68E3
:102E08005A601A6822F440321A601A6842F4803212
:102E18001A607047003802403C3A0008000002403F
:102E280030B52DED048B254925489FED268A264D82
:102E38009FED269A264C8FB0FEF7EBFD254B0093AD
:102E48000022254B254903A8FEF76CFCF0EE489AB2
:102E58001D48FFF749F90028FAD0D5ED327A2846FF
:102E6800F8EEE78AFFF748F907EE900AB8EEE77A36
:102E780003A8C8EE877A17EE902A79EEE77A17EE5C
:102E8800901AFEF7F2FBB4EEC98AF1EE10FA48BFC9
:102E98009FED137A07EE900A48BF38EE078A20465E
:102EA80078EE678A78EE277A17EE901AFFF7E0FC3B
:102EB80018EE901A2046FFF7DDFCC9E7FD38000838
:102EC800BC030020000000001C020020CDCCCC3E3A
:102ED800EC020020000020416666A63FCDCCCC3E27
:102EE8006F12833A03685A6919B142F480725A61C1
:102EF800704722F48072FAE7B9B903689A6822F039
:102F08000C029A609A6842F00C029A605A6822F0A1
:102F180002025A605A685A601A6822F00C021A6053
:102F28001A6842F004021A60704701290ED103683A
:102F38009A6822F00C029A609A6842F00C029A6031
:102F48001A6822F00C021A601A68ECE7022913D1F9
:102F580003689A6822F00C029A609A6842F00C02A0
:102F68009A601A6822F00C021A601A681A60DA6805
:102F780042F00402DA607047052910D103689A68A4
:102F880022F00C029A609A6842F00C029A601A6861
:102F980022F00C021A601A6842F00802C3E70429FA
:102FA800C2D103681A6822F00C021A601A6842F04B
:102FB8000C02B8E7064A08B5136B6FEA53236FEAA9
:102FC80043231363034B03600121FFF795FF08BDFB
:102FD80000380240000C0240B9B903689A6822F030
:102FE80030029A609A6842F030029A605A6822F079
:102FF80004025A605A685A601A6822F030021A604D
:103008001A6842F010021A60704701290ED103684D
:103018009A6822F030029A609A6842F030029A6008
:103028001A6822F030021A601A68ECE7022913D1F4
:1030380003689A6822F030029A609A6842F0300277
:103048009A601A6822F030021A601A681A60DA6800
:1030580042F01002DA607047052910D103689A68B7
:1030680022F030029A609A6842F030029A601A6838
:1030780022F030021A601A6842F02002C3E70429DD
:10308800C2D103681A6822F030021A601A6842F046
:103098003002B8E7064A08B5136B6FEA53236FEAA4
:1030A80043231363034B03600121FFF795FF08BD1A
:1030B80000380240000C0240142310B54360044657
:1030C8000830FFF777FF04F10C00FFF7E3FFA26871
:1030D800536923F002035361E268536923F0040340
:1030E800536110BD2DE9F041454C464FDFF878811A
:1030F800051D28460121FFF7F5FE20464FF4E13172
:10310800FFF7E6FB20464049FEF783FC3F4920468F
:10311800FEF77FFCFEF796FA3D4906462046FEF785
:1031280078FC31463B4E2046FEF775FC314620467A
:10313800FEF76FFC3846FFF701FE20463649FEF7DA
:1031480068FC20463549FEF764FC3846C821FFF77D
:1031580067FD3349334F2046FEF75BFC4046FFF7D7
:10316800ABFF20463049FEF754FC41463846FFF78E
:103178000FF92E492046FEF74CFC3846FFF7FDF8BC
:1031880001462046FFF716FE3146FEF742FC284866
:10319800FEF746FE27492046FEF73BFC2648FEF789
:1031A8002FFF26492046FEF734FC2548FFF728FC68
:1031B80024492046FEF72DFC2348FFF707FA234948
:1031C8002046FEF726FC2248FFF720FB214920462F
:1031D800FEF71FFC2048FEF787FE20461F49FEF732
:1031E80018FC20461E49FEF714FC20461D49FEF730
:1031F80010FC28460021FFF775FE0020BDE8F0818D
:10320800BC030020C0030020123900081E39000842
:10321800323900081C3900085039000861390008A3
:1032280078390008C00100206F3900087E3900088D
:1032380058010020923900081C020020A13900081A
:103248005C010020B83900089C010020D33900082F
:10325800EC020020ED39000804020020073A0008BB
:103268001B390008163A0008B001002070B5044662
:1032780000F10C0604F1080530460021FFF7ACFE0A
:1032880028460021FFF738FE30460121FFF7A4FE4B
:1032980028460021FFF730FE30460121FFF79CFE4B
:1032A80028460121FFF728FE2046BDE87040FEF7BA
:1032B800C1B970B5044600F10C0604F108053046A2
:1032C8000121FFF789FE28460121FFF715FE304648
:1032D8000121FFF781FE28460021FFF70DFE304649
:1032E8000021FFF779FE28460121FFF705FE204659
:1032F800BDE87040FEF79EB92DE9F843044600F199
:1033080008073846894604F10C060121FFF7F4FD49
:1033180000213046FFF760FE2046FEF78BF94FF09C
:1033280009080025B8F1010817D001213046FFF738
:1033380053FE2046FEF77EF9A3681B696D009B07C4
:103348003046EDB24FF0000148BF45F00105FFF7E8
:1033580043FE2046FEF76EF9E4E7B9F1000F1ED0F0
:1033680041463846FFF7C8FD2046FEF763F90121BC
:103378003046FFF731FE2046FEF75CF90021304663
:10338800FFF72AFE2046FEF755F901213846FFF7D8
:10339800B3FD2046FEF74EF92846BDE8F883012123
:1033A800DFE72DE9F04104460F46092600F10C0538
:1033B80000F10808013E1AD000212846FFF70CFE4C
:1033C8002046FEF737F93B064CBF01210021404655
:1033D800FFF792FD2046FEF72DF901212846FFF759
:1033E800FBFD7F002046FEF725F9FFB2E2E73146F4
:1033F8002846FFF7F1FD2046FEF71CF9012140465B
:10340800FFF77AFD2046FEF715F901212846FFF758
:10341800E3FD2046FEF70EF9A36831461F692846EA
:10342800FFF7DAFD2046FEF705F987F00200C0F342
:103438004000BDE8F081000038B5384D384C2846CA
:10344800FFF7C6FC2846374D37492246FEF703F9F1
:103458002846FEF7C9FA2846344D35492246FEF774
:10346800FAF82846FFF79AFB2846324D3249224699
:10347800FEF7F1F82846FEF791F828462F4B40F85A
:10348800083BFFF797FD05F10C00FFF703FE284600
:103498002B4D2C492246FEF7DEF82846FEF7A6FEFD
:1034A8002846294D29492246FEF7D5F82846FEF731
:1034B80019FC2846264D27492246FEF7CCF828460F
:1034C800FEF76AFD2846244D24492246FEF7C3F834
:1034D8002846FFF76DFA2846214D22492246FEF775
:1034E800BAF82846FFF708F828461F4D1F49224614
:1034F800FEF7B1F82846FFF769F928461C4D1D4923
:103508002246FEF7A8F82846FEF7ACFC22462846D5
:103518001949BDE83840FEF79EB800BF9401002065
:1035280008000020BC030020852D0008C0030020EF
:10353800C9190008B0010020A72B0008CC380008E2
:10354800C0010020952D000858010020E521000841
:103558001C020020DD1C00085C010020711F00080F
:103568009C010020A9290008EC02002091240008F1
:1035780004020020812800083B1E0008000000000B
:1035880000000000010203040607080953544D33E4
:1035980032463778785F5374645065726970685F33
:1035A8004472697665722F7372632F6D6973632E27
:1035B800630053544D3332463778785F5374645000
:1035C80065726970685F4472697665722F73726399
:1035D8002F73746D3332663778785F7077722E6325
:1035E8000053544D3332463778785F5374645065CE
:1035F800726970685F4472697665722F7372632F9F
:1036080073746D3332663778785F7379736366677E
:103618002E630053544D3332463778785F537464C1
:103628005065726970685F4472697665722F73724B
:10363800632F73746D3332663778785F74696D2ED3
:10364800630053544D3332463778785F537464506F
:1036580065726970685F4472697665722F73726308
:103668002F73746D3332663778785F6770696F2EA1
:10367800630053544D3332463778785F537464503F
:1036880065726970685F4472697665722F737263D8
:103698002F73746D3332663778785F75736172741F
:1036A8002E630053544D3332463778785F53746431
:1036B8005065726970685F4472697665722F7372BB
:1036C800632F73746D3332663778785F666C617315
:1036D800682E630053544D3332463778785F5374FD
:1036E800645065726970685F4472697665722F7399
:1036F80072632F73746D3332663778785F616463F1
:103708002E63000000000001020304010203040606
:1037180007080953544D3332463778785F53746439
:103728005065726970685F4472697665722F73724A
:10373800632F73746D3332663778785F7263632EE4
:10374800630053544D3332463778785F537464506E
:1037580065726970685F4472697665722F73726307
:103768002F73746D3332663778785F657874692E95
:103778006300000000000000000000009115000830
:1037880093150008951500089B1500089F1500085B
:10379800000000000000000063160008651600081D
:1037A80000010203040506070605040302010000E0
:1037B80000000000000000005D1700085F17000807
:1037C8006D1700080000000000000000C91900087B
:1037D800DD1900084D4F544F522050574D20696E47
:1037E80069740A004D4F544F52204750494F206981
:1037F8006E69740A0000000000000000000000006C
:10380800571A0008591A00080000000000000000BC
:10381800DD1C0008DF1C000800000000000000009C
:103828003B1E00083D1E00084B1E0008000000005B
:1038380000000000731F0008771F00080000000048
:1038480000000000751F0008851F00080000000028
:1038580000000000711F0008931F00086521000880
:103868000000000000000000E5210008E721000832
:103878007D230008000000000000000091240008DB
:1038880093240008000000000000000081280008C0
:10389800A9280008E1260008000000000000000038
:1038A800BD280008BF280008000000000000000034
:1038B800A9290008AB290008792A0008000000009F
:1038C80000000000BB32000875320008C130000853
:1038D800AB33000801330008952D0008A92D000816
:1038E800096573745F696D755F73656E736F720ACE
:1038F80000203A20000A746573745F6C696E655F16
:10390800666F6C6C6F7765720A000A0A0A232323B4
:1039180023230A0A0A007465726D696E616C206956
:103928006E697420646F6E650A006D656D20696E3E
:10393800697420646F6E652C2068656170207374EB
:10394800617274206174200074696D657220696EFB
:10395800697420646F6E650A0064656C6179203251
:103968003030206D73200069326320696E697420DD
:10397800646F6E650A00696D7520696E69742064EC
:103988006F6E652077697468200061646320696ED2
:10399800697420646F6E650A006C696E65207365D2
:1039A8006E736F7220696E697420646F6E650A00A9
:1039B80064697374616E63652073656E736F7220DA
:1039C800696E697420646F6E650A00656E636F6462
:1039D80065722073656E736F7220696E69742064F6
:1039E8006F6E650A006D6F746F7220636F6E74720C
:1039F8006F6C6C20696E697420646F6E650A006B69
:103A0800657920696E697420646F6E650A00737940
:103A18007374656D20696E697420646F6E650A0041
:103A2800747275650066616C7365000000000000C3
:0C3A380000000000852D0008872D00080C
:043A44004134000801
:043A48000024F40062
:04000005080001E509
:00000001FF
